{
  "_format": "hh-sol-artifact-1",
  "contractName": "VaultPoints",
  "sourceName": "src/VaultPoints.sol",
  "abi": [
    {
      "inputs": [],
      "stateMutability": "nonpayable",
      "type": "constructor"
    },
    {
      "inputs": [
        {
          "internalType": "address",
          "name": "spender",
          "type": "address"
        },
        {
          "internalType": "uint256",
          "name": "allowance",
          "type": "uint256"
        },
        {
          "internalType": "uint256",
          "name": "needed",
          "type": "uint256"
        }
      ],
      "name": "ERC20InsufficientAllowance",
      "type": "error"
    },
    {
      "inputs": [
        {
          "internalType": "address",
          "name": "sender",
          "type": "address"
        },
        {
          "internalType": "uint256",
          "name": "balance",
          "type": "uint256"
        },
        {
          "internalType": "uint256",
          "name": "needed",
          "type": "uint256"
        }
      ],
      "name": "ERC20InsufficientBalance",
      "type": "error"
    },
    {
      "inputs": [
        {
          "internalType": "address",
          "name": "approver",
          "type": "address"
        }
      ],
      "name": "ERC20InvalidApprover",
      "type": "error"
    },
    {
      "inputs": [
        {
          "internalType": "address",
          "name": "receiver",
          "type": "address"
        }
      ],
      "name": "ERC20InvalidReceiver",
      "type": "error"
    },
    {
      "inputs": [
        {
          "internalType": "address",
          "name": "sender",
          "type": "address"
        }
      ],
      "name": "ERC20InvalidSender",
      "type": "error"
    },
    {
      "inputs": [
        {
          "internalType": "address",
          "name": "spender",
          "type": "address"
        }
      ],
      "name": "ERC20InvalidSpender",
      "type": "error"
    },
    {
      "inputs": [
        {
          "internalType": "address",
          "name": "owner",
          "type": "address"
        }
      ],
      "name": "OwnableInvalidOwner",
      "type": "error"
    },
    {
      "inputs": [
        {
          "internalType": "address",
          "name": "account",
          "type": "address"
        }
      ],
      "name": "OwnableUnauthorizedAccount",
      "type": "error"
    },
    {
      "anonymous": false,
      "inputs": [
        {
          "indexed": true,
          "internalType": "address",
          "name": "owner",
          "type": "address"
        },
        {
          "indexed": true,
          "internalType": "address",
          "name": "spender",
          "type": "address"
        },
        {
          "indexed": false,
          "internalType": "uint256",
          "name": "value",
          "type": "uint256"
        }
      ],
      "name": "Approval",
      "type": "event"
    },
    {
      "anonymous": false,
      "inputs": [
        {
          "indexed": true,
          "internalType": "address",
          "name": "minter",
          "type": "address"
        },
        {
          "indexed": false,
          "internalType": "bool",
          "name": "status",
          "type": "bool"
        }
      ],
      "name": "MinterUpdated",
      "type": "event"
    },
    {
      "anonymous": false,
      "inputs": [
        {
          "indexed": true,
          "internalType": "address",
          "name": "previousOwner",
          "type": "address"
        },
        {
          "indexed": true,
          "internalType": "address",
          "name": "newOwner",
          "type": "address"
        }
      ],
      "name": "OwnershipTransferred",
      "type": "event"
    },
    {
      "anonymous": false,
      "inputs": [
        {
          "indexed": true,
          "internalType": "address",
          "name": "player",
          "type": "address"
        },
        {
          "indexed": false,
          "internalType": "uint8",
          "name": "tier",
          "type": "uint8"
        },
        {
          "indexed": false,
          "internalType": "uint256",
          "name": "amount",
          "type": "uint256"
        }
      ],
      "name": "TierRewarded",
      "type": "event"
    },
    {
      "anonymous": false,
      "inputs": [
        {
          "indexed": true,
          "internalType": "address",
          "name": "from",
          "type": "address"
        },
        {
          "indexed": true,
          "internalType": "address",
          "name": "to",
          "type": "address"
        },
        {
          "indexed": false,
          "internalType": "uint256",
          "name": "value",
          "type": "uint256"
        }
      ],
      "name": "Transfer",
      "type": "event"
    },
    {
      "inputs": [],
      "name": "TIER1_REWARD",
      "outputs": [
        {
          "internalType": "uint256",
          "name": "",
          "type": "uint256"
        }
      ],
      "stateMutability": "view",
      "type": "function"
    },
    {
      "inputs": [],
      "name": "TIER2_REWARD",
      "outputs": [
        {
          "internalType": "uint256",
          "name": "",
          "type": "uint256"
        }
      ],
      "stateMutability": "view",
      "type": "function"
    },
    {
      "inputs": [],
      "name": "TIER3_REWARD",
      "outputs": [
        {
          "internalType": "uint256",
          "name": "",
          "type": "uint256"
        }
      ],
      "stateMutability": "view",
      "type": "function"
    },
    {
      "inputs": [
        {
          "internalType": "address",
          "name": "owner",
          "type": "address"
        },
        {
          "internalType": "address",
          "name": "spender",
          "type": "address"
        }
      ],
      "name": "allowance",
      "outputs": [
        {
          "internalType": "uint256",
          "name": "",
          "type": "uint256"
        }
      ],
      "stateMutability": "view",
      "type": "function"
    },
    {
      "inputs": [
        {
          "internalType": "address",
          "name": "spender",
          "type": "address"
        },
        {
          "internalType": "uint256",
          "name": "value",
          "type": "uint256"
        }
      ],
      "name": "approve",
      "outputs": [
        {
          "internalType": "bool",
          "name": "",
          "type": "bool"
        }
      ],
      "stateMutability": "nonpayable",
      "type": "function"
    },
    {
      "inputs": [
        {
          "internalType": "address",
          "name": "account",
          "type": "address"
        }
      ],
      "name": "balanceOf",
      "outputs": [
        {
          "internalType": "uint256",
          "name": "",
          "type": "uint256"
        }
      ],
      "stateMutability": "view",
      "type": "function"
    },
    {
      "inputs": [],
      "name": "decimals",
      "outputs": [
        {
          "internalType": "uint8",
          "name": "",
          "type": "uint8"
        }
      ],
      "stateMutability": "view",
      "type": "function"
    },
    {
      "inputs": [
        {
          "internalType": "address",
          "name": "",
          "type": "address"
        }
      ],
      "name": "highestTierCompleted",
      "outputs": [
        {
          "internalType": "uint8",
          "name": "",
          "type": "uint8"
        }
      ],
      "stateMutability": "view",
      "type": "function"
    },
    {
      "inputs": [
        {
          "internalType": "address",
          "name": "",
          "type": "address"
        }
      ],
      "name": "isMinter",
      "outputs": [
        {
          "internalType": "bool",
          "name": "",
          "type": "bool"
        }
      ],
      "stateMutability": "view",
      "type": "function"
    },
    {
      "inputs": [
        {
          "internalType": "address",
          "name": "to",
          "type": "address"
        },
        {
          "internalType": "uint256",
          "name": "amount",
          "type": "uint256"
        }
      ],
      "name": "mint",
      "outputs": [],
      "stateMutability": "nonpayable",
      "type": "function"
    },
    {
      "inputs": [],
      "name": "name",
      "outputs": [
        {
          "internalType": "string",
          "name": "",
          "type": "string"
        }
      ],
      "stateMutability": "view",
      "type": "function"
    },
    {
      "inputs": [],
      "name": "owner",
      "outputs": [
        {
          "internalType": "address",
          "name": "",
          "type": "address"
        }
      ],
      "stateMutability": "view",
      "type": "function"
    },
    {
      "inputs": [],
      "name": "renounceOwnership",
      "outputs": [],
      "stateMutability": "nonpayable",
      "type": "function"
    },
    {
      "inputs": [
        {
          "internalType": "address",
          "name": "player",
          "type": "address"
        },
        {
          "internalType": "uint8",
          "name": "tier",
          "type": "uint8"
        }
      ],
      "name": "rewardTier",
      "outputs": [],
      "stateMutability": "nonpayable",
      "type": "function"
    },
    {
      "inputs": [
        {
          "internalType": "address",
          "name": "minter",
          "type": "address"
        },
        {
          "internalType": "bool",
          "name": "status",
          "type": "bool"
        }
      ],
      "name": "setMinter",
      "outputs": [],
      "stateMutability": "nonpayable",
      "type": "function"
    },
    {
      "inputs": [],
      "name": "symbol",
      "outputs": [
        {
          "internalType": "string",
          "name": "",
          "type": "string"
        }
      ],
      "stateMutability": "view",
      "type": "function"
    },
    {
      "inputs": [],
      "name": "totalSupply",
      "outputs": [
        {
          "internalType": "uint256",
          "name": "",
          "type": "uint256"
        }
      ],
      "stateMutability": "view",
      "type": "function"
    },
    {
      "inputs": [
        {
          "internalType": "address",
          "name": "to",
          "type": "address"
        },
        {
          "internalType": "uint256",
          "name": "value",
          "type": "uint256"
        }
      ],
      "name": "transfer",
      "outputs": [
        {
          "internalType": "bool",
          "name": "",
          "type": "bool"
        }
      ],
      "stateMutability": "nonpayable",
      "type": "function"
    },
    {
      "inputs": [
        {
          "internalType": "address",
          "name": "from",
          "type": "address"
        },
        {
          "internalType": "address",
          "name": "to",
          "type": "address"
        },
        {
          "internalType": "uint256",
          "name": "value",
          "type": "uint256"
        }
      ],
      "name": "transferFrom",
      "outputs": [
        {
          "internalType": "bool",
          "name": "",
          "type": "bool"
        }
      ],
      "stateMutability": "nonpayable",
      "type": "function"
    },
    {
      "inputs": [
        {
          "internalType": "address",
          "name": "newOwner",
          "type": "address"
        }
      ],
      "name": "transferOwnership",
      "outputs": [],
      "stateMutability": "nonpayable",
      "type": "function"
    }
  ],
  "bytecode": "0x608060405234801561000f575f5ffd5b50336040518060400160405280600c81526020016b5661756c7420506f696e747360a01b81525060405180604001604052806002815260200161056560f41b81525081600390816100609190610195565b50600461006d8282610195565b5050506001600160a01b03811661009d57604051631e4fbdf760e01b81525f600482015260240160405180910390fd5b6100a6816100ac565b5061024f565b600580546001600160a01b038381166001600160a01b0319831681179093556040519116919082907f8be0079c531659141344cd1fd0a4f28419497f9722a3daafe3b4186f6b6457e0905f90a35050565b634e487b7160e01b5f52604160045260245ffd5b600181811c9082168061012557607f821691505b60208210810361014357634e487b7160e01b5f52602260045260245ffd5b50919050565b601f82111561019057805f5260205f20601f840160051c8101602085101561016e5750805b601f840160051c820191505b8181101561018d575f815560010161017a565b50505b505050565b81516001600160401b038111156101ae576101ae6100fd565b6101c2816101bc8454610111565b84610149565b6020601f8211600181146101f4575f83156101dd5750848201515b5f19600385901b1c1916600184901b17845561018d565b5f84815260208120601f198516915b828110156102235787850151825560209485019460019092019101610203565b508482101561024057868401515f19600387901b60f8161c191681555b50505050600190811b01905550565b610c288061025c5f395ff3fe608060405234801561000f575f5ffd5b5060043610610127575f3560e01c80638da5cb5b116100a9578063cf412dec1161006e578063cf412dec14610290578063cf456ae7146102a0578063dd62ed3e146102b3578063f2fde38b146102eb578063fc22c2fd146102fe575f5ffd5b80638da5cb5b1461022557806395d89b41146102405780639d8c77e614610248578063a9059cbb1461025b578063aa271e1a1461026e575f5ffd5b806323b872dd116100ef57806323b872dd146101c6578063313ce567146101d957806340c10f19146101e057806370a08231146101f5578063715018a61461021d575f5ffd5b806306fdde031461012b578063095ea7b314610149578063158860931461016c57806318160ddd1461018a5780631e45b4b514610192575b5f5ffd5b61013361030e565b6040516101409190610a30565b60405180910390f35b61015c610157366004610a80565b61039e565b6040519015158152602001610140565b61017c681b1ae4d6e2ef50000081565b604051908152602001610140565b60025461017c565b6101b46101a0366004610aa8565b60066020525f908152604090205460ff1681565b60405160ff9091168152602001610140565b61015c6101d4366004610ac8565b6103b7565b60126101b4565b6101f36101ee366004610a80565b6103da565b005b61017c610203366004610aa8565b6001600160a01b03165f9081526020819052604090205490565b6101f36103f0565b6005546040516001600160a01b039091168152602001610140565b610133610403565b6101f3610256366004610b02565b610412565b61015c610269366004610a80565b6105eb565b61015c61027c366004610aa8565b60076020525f908152604090205460ff1681565b61017c68056bc75e2d6310000081565b6101f36102ae366004610b3c565b6105f8565b61017c6102c1366004610b6a565b6001600160a01b039182165f90815260016020908152604080832093909416825291909152205490565b6101f36102f9366004610aa8565b61065e565b61017c683635c9adc5dea0000081565b60606003805461031d90610b9b565b80601f016020809104026020016040519081016040528092919081815260200182805461034990610b9b565b80156103945780601f1061036b57610100808354040283529160200191610394565b820191905f5260205f20905b81548152906001019060200180831161037757829003601f168201915b5050505050905090565b5f336103ab81858561069b565b60019150505b92915050565b5f336103c48582856106ad565b6103cf858585610729565b506001949350505050565b6103e2610786565b6103ec82826107b3565b5050565b6103f8610786565b6104015f6107e7565b565b60606004805461031d90610b9b565b335f9081526007602052604090205460ff168061043957506005546001600160a01b031633145b61047b5760405162461bcd60e51b815260206004820152600e60248201526d139bdd08185d5d1a1bdc9a5e995960921b60448201526064015b60405180910390fd5b60018160ff1610158015610493575060038160ff1611155b6104ce5760405162461bcd60e51b815260206004820152600c60248201526b24b73b30b634b2103a34b2b960a11b6044820152606401610472565b6001600160a01b0382165f9081526006602052604090205460ff9081169082161161052e5760405162461bcd60e51b815260206004820152601060248201526f105b1c9958591e481c995dd85c99195960821b6044820152606401610472565b5f8160ff1660010361054a575068056bc75e2d63100000610571565b8160ff166002036105655750681b1ae4d6e2ef500000610571565b50683635c9adc5dea000005b6001600160a01b0383165f908152600660205260409020805460ff191660ff841617905561059f83826107b3565b6040805160ff84168152602081018390526001600160a01b038516917f727b51d551ad17348dc2d60af1bf51749019c14b6e1d88e6e3633a4ed4b442a9910160405180910390a2505050565b5f336103ab818585610729565b610600610786565b6001600160a01b0382165f81815260076020908152604091829020805460ff191685151590811790915591519182527fb21afb9ce9be0a676f8f317ff0ca072fb89a4f8ce2d1b6fe80f8755c14f1cb19910160405180910390a25050565b610666610786565b6001600160a01b03811661068f57604051631e4fbdf760e01b81525f6004820152602401610472565b610698816107e7565b50565b6106a88383836001610838565b505050565b6001600160a01b038381165f908152600160209081526040808320938616835292905220545f19811015610723578181101561071557604051637dc7a0d960e11b81526001600160a01b03841660048201526024810182905260448101839052606401610472565b61072384848484035f610838565b50505050565b6001600160a01b03831661075257604051634b637e8f60e11b81525f6004820152602401610472565b6001600160a01b03821661077b5760405163ec442f0560e01b81525f6004820152602401610472565b6106a883838361090a565b6005546001600160a01b031633146104015760405163118cdaa760e01b8152336004820152602401610472565b6001600160a01b0382166107dc5760405163ec442f0560e01b81525f6004820152602401610472565b6103ec5f838361090a565b600580546001600160a01b038381166001600160a01b0319831681179093556040519116919082907f8be0079c531659141344cd1fd0a4f28419497f9722a3daafe3b4186f6b6457e0905f90a35050565b6001600160a01b0384166108615760405163e602df0560e01b81525f6004820152602401610472565b6001600160a01b03831661088a57604051634a1406b160e11b81525f6004820152602401610472565b6001600160a01b038085165f908152600160209081526040808320938716835292905220829055801561072357826001600160a01b0316846001600160a01b03167f8c5be1e5ebec7d5bd14f71427d1e84f3dd0314c0f7b2291e5b200ac8c7c3b925846040516108fc91815260200190565b60405180910390a350505050565b6001600160a01b038316610934578060025f8282546109299190610bd3565b909155506109a49050565b6001600160a01b0383165f90815260208190526040902054818110156109865760405163391434e360e21b81526001600160a01b03851660048201526024810182905260448101839052606401610472565b6001600160a01b0384165f9081526020819052604090209082900390555b6001600160a01b0382166109c0576002805482900390556109de565b6001600160a01b0382165f9081526020819052604090208054820190555b816001600160a01b0316836001600160a01b03167fddf252ad1be2c89b69c2b068fc378daa952ba7f163c4a11628f55a4df523b3ef83604051610a2391815260200190565b60405180910390a3505050565b602081525f82518060208401528060208501604085015e5f604082850101526040601f19601f83011684010191505092915050565b80356001600160a01b0381168114610a7b575f5ffd5b919050565b5f5f60408385031215610a91575f5ffd5b610a9a83610a65565b946020939093013593505050565b5f60208284031215610ab8575f5ffd5b610ac182610a65565b9392505050565b5f5f5f60608486031215610ada575f5ffd5b610ae384610a65565b9250610af160208501610a65565b929592945050506040919091013590565b5f5f60408385031215610b13575f5ffd5b610b1c83610a65565b9150602083013560ff81168114610b31575f5ffd5b809150509250929050565b5f5f60408385031215610b4d575f5ffd5b610b5683610a65565b915060208301358015158114610b31575f5ffd5b5f5f60408385031215610b7b575f5ffd5b610b8483610a65565b9150610b9260208401610a65565b90509250929050565b600181811c90821680610baf57607f821691505b602082108103610bcd57634e487b7160e01b5f52602260045260245ffd5b50919050565b808201808211156103b157634e487b7160e01b5f52601160045260245ffdfea26469706673582212206ec8830aef1cfd649cf9a4a927587e4cb02b4601a58016e4be0cc5de4dfff4dd64736f6c634300081c0033",
  "linkReferences": {},
  "deployedLinkReferences": {}
}