{
  "_format": "hh-sol-artifact-1",
  "contractName": "VaultKey",
  "sourceName": "src/VaultKey.sol",
  "abi": [
    {
      "inputs": [
        {
          "internalType": "address",
          "name": "_usdc",
          "type": "address"
        },
        {
          "internalType": "address",
          "name": "_treasury",
          "type": "address"
        },
        {
          "internalType": "string",
          "name": "_baseURI",
          "type": "string"
        }
      ],
      "stateMutability": "nonpayable",
      "type": "constructor"
    },
    {
      "inputs": [
        {
          "internalType": "address",
          "name": "sender",
          "type": "address"
        },
        {
          "internalType": "uint256",
          "name": "tokenId",
          "type": "uint256"
        },
        {
          "internalType": "address",
          "name": "owner",
          "type": "address"
        }
      ],
      "name": "ERC721IncorrectOwner",
      "type": "error"
    },
    {
      "inputs": [
        {
          "internalType": "address",
          "name": "operator",
          "type": "address"
        },
        {
          "internalType": "uint256",
          "name": "tokenId",
          "type": "uint256"
        }
      ],
      "name": "ERC721InsufficientApproval",
      "type": "error"
    },
    {
      "inputs": [
        {
          "internalType": "address",
          "name": "approver",
          "type": "address"
        }
      ],
      "name": "ERC721InvalidApprover",
      "type": "error"
    },
    {
      "inputs": [
        {
          "internalType": "address",
          "name": "operator",
          "type": "address"
        }
      ],
      "name": "ERC721InvalidOperator",
      "type": "error"
    },
    {
      "inputs": [
        {
          "internalType": "address",
          "name": "owner",
          "type": "address"
        }
      ],
      "name": "ERC721InvalidOwner",
      "type": "error"
    },
    {
      "inputs": [
        {
          "internalType": "address",
          "name": "receiver",
          "type": "address"
        }
      ],
      "name": "ERC721InvalidReceiver",
      "type": "error"
    },
    {
      "inputs": [
        {
          "internalType": "address",
          "name": "sender",
          "type": "address"
        }
      ],
      "name": "ERC721InvalidSender",
      "type": "error"
    },
    {
      "inputs": [
        {
          "internalType": "uint256",
          "name": "tokenId",
          "type": "uint256"
        }
      ],
      "name": "ERC721NonexistentToken",
      "type": "error"
    },
    {
      "inputs": [
        {
          "internalType": "address",
          "name": "owner",
          "type": "address"
        }
      ],
      "name": "OwnableInvalidOwner",
      "type": "error"
    },
    {
      "inputs": [
        {
          "internalType": "address",
          "name": "account",
          "type": "address"
        }
      ],
      "name": "OwnableUnauthorizedAccount",
      "type": "error"
    },
    {
      "anonymous": false,
      "inputs": [
        {
          "indexed": true,
          "internalType": "address",
          "name": "owner",
          "type": "address"
        },
        {
          "indexed": true,
          "internalType": "address",
          "name": "approved",
          "type": "address"
        },
        {
          "indexed": true,
          "internalType": "uint256",
          "name": "tokenId",
          "type": "uint256"
        }
      ],
      "name": "Approval",
      "type": "event"
    },
    {
      "anonymous": false,
      "inputs": [
        {
          "indexed": true,
          "internalType": "address",
          "name": "owner",
          "type": "address"
        },
        {
          "indexed": true,
          "internalType": "address",
          "name": "operator",
          "type": "address"
        },
        {
          "indexed": false,
          "internalType": "bool",
          "name": "approved",
          "type": "bool"
        }
      ],
      "name": "ApprovalForAll",
      "type": "event"
    },
    {
      "anonymous": false,
      "inputs": [
        {
          "indexed": false,
          "internalType": "uint256",
          "name": "_fromTokenId",
          "type": "uint256"
        },
        {
          "indexed": false,
          "internalType": "uint256",
          "name": "_toTokenId",
          "type": "uint256"
        }
      ],
      "name": "BatchMetadataUpdate",
      "type": "event"
    },
    {
      "anonymous": false,
      "inputs": [
        {
          "indexed": false,
          "internalType": "uint256",
          "name": "_tokenId",
          "type": "uint256"
        }
      ],
      "name": "MetadataUpdate",
      "type": "event"
    },
    {
      "anonymous": false,
      "inputs": [
        {
          "indexed": true,
          "internalType": "address",
          "name": "previousOwner",
          "type": "address"
        },
        {
          "indexed": true,
          "internalType": "address",
          "name": "newOwner",
          "type": "address"
        }
      ],
      "name": "OwnershipTransferred",
      "type": "event"
    },
    {
      "anonymous": false,
      "inputs": [
        {
          "indexed": true,
          "internalType": "address",
          "name": "player",
          "type": "address"
        }
      ],
      "name": "Tier2Completed",
      "type": "event"
    },
    {
      "anonymous": false,
      "inputs": [
        {
          "indexed": true,
          "internalType": "address",
          "name": "from",
          "type": "address"
        },
        {
          "indexed": true,
          "internalType": "address",
          "name": "to",
          "type": "address"
        },
        {
          "indexed": true,
          "internalType": "uint256",
          "name": "tokenId",
          "type": "uint256"
        }
      ],
      "name": "Transfer",
      "type": "event"
    },
    {
      "anonymous": false,
      "inputs": [
        {
          "indexed": true,
          "internalType": "address",
          "name": "player",
          "type": "address"
        },
        {
          "indexed": true,
          "internalType": "uint256",
          "name": "tokenId",
          "type": "uint256"
        }
      ],
      "name": "VaultKeyMinted",
      "type": "event"
    },
    {
      "inputs": [],
      "name": "MAX_SUPPLY",
      "outputs": [
        {
          "internalType": "uint256",
          "name": "",
          "type": "uint256"
        }
      ],
      "stateMutability": "view",
      "type": "function"
    },
    {
      "inputs": [],
      "name": "MINT_PRICE_USDC",
      "outputs": [
        {
          "internalType": "uint256",
          "name": "",
          "type": "uint256"
        }
      ],
      "stateMutability": "view",
      "type": "function"
    },
    {
      "inputs": [
        {
          "internalType": "address",
          "name": "to",
          "type": "address"
        },
        {
          "internalType": "uint256",
          "name": "tokenId",
          "type": "uint256"
        }
      ],
      "name": "approve",
      "outputs": [],
      "stateMutability": "nonpayable",
      "type": "function"
    },
    {
      "inputs": [
        {
          "internalType": "address",
          "name": "owner",
          "type": "address"
        }
      ],
      "name": "balanceOf",
      "outputs": [
        {
          "internalType": "uint256",
          "name": "",
          "type": "uint256"
        }
      ],
      "stateMutability": "view",
      "type": "function"
    },
    {
      "inputs": [],
      "name": "baseTokenURI",
      "outputs": [
        {
          "internalType": "string",
          "name": "",
          "type": "string"
        }
      ],
      "stateMutability": "view",
      "type": "function"
    },
    {
      "inputs": [
        {
          "internalType": "address",
          "name": "player",
          "type": "address"
        }
      ],
      "name": "completeTier2",
      "outputs": [],
      "stateMutability": "nonpayable",
      "type": "function"
    },
    {
      "inputs": [
        {
          "internalType": "uint256",
          "name": "tokenId",
          "type": "uint256"
        }
      ],
      "name": "getApproved",
      "outputs": [
        {
          "internalType": "address",
          "name": "",
          "type": "address"
        }
      ],
      "stateMutability": "view",
      "type": "function"
    },
    {
      "inputs": [
        {
          "internalType": "address",
          "name": "",
          "type": "address"
        }
      ],
      "name": "hasMinted",
      "outputs": [
        {
          "internalType": "bool",
          "name": "",
          "type": "bool"
        }
      ],
      "stateMutability": "view",
      "type": "function"
    },
    {
      "inputs": [
        {
          "internalType": "address",
          "name": "owner",
          "type": "address"
        },
        {
          "internalType": "address",
          "name": "operator",
          "type": "address"
        }
      ],
      "name": "isApprovedForAll",
      "outputs": [
        {
          "internalType": "bool",
          "name": "",
          "type": "bool"
        }
      ],
      "stateMutability": "view",
      "type": "function"
    },
    {
      "inputs": [],
      "name": "mint",
      "outputs": [],
      "stateMutability": "nonpayable",
      "type": "function"
    },
    {
      "inputs": [],
      "name": "mintWithETH",
      "outputs": [],
      "stateMutability": "payable",
      "type": "function"
    },
    {
      "inputs": [],
      "name": "name",
      "outputs": [
        {
          "internalType": "string",
          "name": "",
          "type": "string"
        }
      ],
      "stateMutability": "view",
      "type": "function"
    },
    {
      "inputs": [],
      "name": "owner",
      "outputs": [
        {
          "internalType": "address",
          "name": "",
          "type": "address"
        }
      ],
      "stateMutability": "view",
      "type": "function"
    },
    {
      "inputs": [
        {
          "internalType": "uint256",
          "name": "tokenId",
          "type": "uint256"
        }
      ],
      "name": "ownerOf",
      "outputs": [
        {
          "internalType": "address",
          "name": "",
          "type": "address"
        }
      ],
      "stateMutability": "view",
      "type": "function"
    },
    {
      "inputs": [],
      "name": "renounceOwnership",
      "outputs": [],
      "stateMutability": "nonpayable",
      "type": "function"
    },
    {
      "inputs": [
        {
          "internalType": "address",
          "name": "from",
          "type": "address"
        },
        {
          "internalType": "address",
          "name": "to",
          "type": "address"
        },
        {
          "internalType": "uint256",
          "name": "tokenId",
          "type": "uint256"
        }
      ],
      "name": "safeTransferFrom",
      "outputs": [],
      "stateMutability": "nonpayable",
      "type": "function"
    },
    {
      "inputs": [
        {
          "internalType": "address",
          "name": "from",
          "type": "address"
        },
        {
          "internalType": "address",
          "name": "to",
          "type": "address"
        },
        {
          "internalType": "uint256",
          "name": "tokenId",
          "type": "uint256"
        },
        {
          "internalType": "bytes",
          "name": "data",
          "type": "bytes"
        }
      ],
      "name": "safeTransferFrom",
      "outputs": [],
      "stateMutability": "nonpayable",
      "type": "function"
    },
    {
      "inputs": [
        {
          "internalType": "address",
          "name": "operator",
          "type": "address"
        },
        {
          "internalType": "bool",
          "name": "approved",
          "type": "bool"
        }
      ],
      "name": "setApprovalForAll",
      "outputs": [],
      "stateMutability": "nonpayable",
      "type": "function"
    },
    {
      "inputs": [
        {
          "internalType": "string",
          "name": "_baseURI",
          "type": "string"
        }
      ],
      "name": "setBaseURI",
      "outputs": [],
      "stateMutability": "nonpayable",
      "type": "function"
    },
    {
      "inputs": [
        {
          "internalType": "address",
          "name": "_treasury",
          "type": "address"
        }
      ],
      "name": "setTreasury",
      "outputs": [],
      "stateMutability": "nonpayable",
      "type": "function"
    },
    {
      "inputs": [
        {
          "internalType": "bytes4",
          "name": "interfaceId",
          "type": "bytes4"
        }
      ],
      "name": "supportsInterface",
      "outputs": [
        {
          "internalType": "bool",
          "name": "",
          "type": "bool"
        }
      ],
      "stateMutability": "view",
      "type": "function"
    },
    {
      "inputs": [],
      "name": "symbol",
      "outputs": [
        {
          "internalType": "string",
          "name": "",
          "type": "string"
        }
      ],
      "stateMutability": "view",
      "type": "function"
    },
    {
      "inputs": [
        {
          "internalType": "address",
          "name": "",
          "type": "address"
        }
      ],
      "name": "tier2Completed",
      "outputs": [
        {
          "internalType": "bool",
          "name": "",
          "type": "bool"
        }
      ],
      "stateMutability": "view",
      "type": "function"
    },
    {
      "inputs": [
        {
          "internalType": "uint256",
          "name": "tokenId",
          "type": "uint256"
        }
      ],
      "name": "tokenURI",
      "outputs": [
        {
          "internalType": "string",
          "name": "",
          "type": "string"
        }
      ],
      "stateMutability": "view",
      "type": "function"
    },
    {
      "inputs": [],
      "name": "totalMinted",
      "outputs": [
        {
          "internalType": "uint256",
          "name": "",
          "type": "uint256"
        }
      ],
      "stateMutability": "view",
      "type": "function"
    },
    {
      "inputs": [
        {
          "internalType": "address",
          "name": "from",
          "type": "address"
        },
        {
          "internalType": "address",
          "name": "to",
          "type": "address"
        },
        {
          "internalType": "uint256",
          "name": "tokenId",
          "type": "uint256"
        }
      ],
      "name": "transferFrom",
      "outputs": [],
      "stateMutability": "nonpayable",
      "type": "function"
    },
    {
      "inputs": [
        {
          "internalType": "address",
          "name": "newOwner",
          "type": "address"
        }
      ],
      "name": "transferOwnership",
      "outputs": [],
      "stateMutability": "nonpayable",
      "type": "function"
    },
    {
      "inputs": [],
      "name": "treasury",
      "outputs": [
        {
          "internalType": "address",
          "name": "",
          "type": "address"
        }
      ],
      "stateMutability": "view",
      "type": "function"
    },
    {
      "inputs": [],
      "name": "usdc",
      "outputs": [
        {
          "internalType": "contract IERC20",
          "name": "",
          "type": "address"
        }
      ],
      "stateMutability": "view",
      "type": "function"
    }
  ],
  "bytecode": "0x60a060405234801561000f575f5ffd5b506040516121a83803806121a883398101604081905261002e9161017d565b33604051806040016040528060098152602001685661756c74204b657960b81b81525060405180604001604052806004815260200163564b455960e01b815250815f908161007c91906102d2565b50600161008982826102d2565b5050506001600160a01b0381166100b957604051631e4fbdf760e01b81525f600482015260240160405180910390fd5b6100c2816100fd565b506001600160a01b03838116608052600880546001600160a01b031916918416919091179055600a6100f482826102d2565b5050505061038c565b600780546001600160a01b038381166001600160a01b0319831681179093556040519116919082907f8be0079c531659141344cd1fd0a4f28419497f9722a3daafe3b4186f6b6457e0905f90a35050565b80516001600160a01b0381168114610164575f5ffd5b919050565b634e487b7160e01b5f52604160045260245ffd5b5f5f5f6060848603121561018f575f5ffd5b6101988461014e565b92506101a66020850161014e565b60408501519092506001600160401b038111156101c1575f5ffd5b8401601f810186136101d1575f5ffd5b80516001600160401b038111156101ea576101ea610169565b604051601f8201601f19908116603f011681016001600160401b038111828210171561021857610218610169565b60405281815282820160200188101561022f575f5ffd5b8160208401602083015e5f602083830101528093505050509250925092565b600181811c9082168061026257607f821691505b60208210810361028057634e487b7160e01b5f52602260045260245ffd5b50919050565b601f8211156102cd57805f5260205f20601f840160051c810160208510156102ab5750805b601f840160051c820191505b818110156102ca575f81556001016102b7565b50505b505050565b81516001600160401b038111156102eb576102eb610169565b6102ff816102f9845461024e565b84610286565b6020601f821160018114610331575f831561031a5750848201515b5f19600385901b1c1916600184901b1784556102ca565b5f84815260208120601f198516915b828110156103605787850151825560209485019460019092019101610340565b508482101561037d57868401515f19600387901b60f8161c191681555b50505050600190811b01905550565b608051611dfd6103ab5f395f818161031e01526107b10152611dfd5ff3fe6080604052600436106101b9575f3560e01c806370a08231116100f2578063a2309ff811610092578063d547cfb711610062578063d547cfb7146104df578063e985e9c5146104f3578063f0f4426014610512578063f2fde38b14610531575f5ffd5b8063a2309ff814610475578063b88d4fde1461048a578063c4f84d28146104a9578063c87b56dd146104c0575f5ffd5b80638f2aef5b116100cd5780638f2aef5b1461040c57806395d89b41146104145780639a4fe09c14610428578063a22cb46514610456575f5ffd5b806370a08231146103bc578063715018a6146103db5780638da5cb5b146103ef575f5ffd5b806332cb6b0c1161015d57806342842e0e1161013857806342842e0e1461034057806355f804b31461035f57806361d027b31461037e5780636352211e1461039d575f5ffd5b806332cb6b0c146102bc57806338e21cce146102df5780633e413bee1461030d575f5ffd5b8063081812fc11610198578063081812fc14610233578063095ea7b31461026a5780631249c58b1461028957806323b872dd1461029d575f5ffd5b806218fdb1146101bd57806301ffc9a7146101de57806306fdde0314610212575b5f5ffd5b3480156101c8575f5ffd5b506101dc6101d7366004611801565b610550565b005b3480156101e9575f5ffd5b506101fd6101f836600461182f565b610602565b60405190151581526020015b60405180910390f35b34801561021d575f5ffd5b5061022661062c565b6040516102099190611878565b34801561023e575f5ffd5b5061025261024d36600461188a565b6106bb565b6040516001600160a01b039091168152602001610209565b348015610275575f5ffd5b506101dc6102843660046118a1565b6106e2565b348015610294575f5ffd5b506101dc6106f1565b3480156102a8575f5ffd5b506101dc6102b73660046118c9565b6108db565b3480156102c7575f5ffd5b506102d1610d0581565b604051908152602001610209565b3480156102ea575f5ffd5b506101fd6102f9366004611801565b600b6020525f908152604090205460ff1681565b348015610318575f5ffd5b506102527f000000000000000000000000000000000000000000000000000000000000000081565b34801561034b575f5ffd5b506101dc61035a3660046118c9565b610964565b34801561036a575f5ffd5b506101dc61037936600461198e565b610983565b348015610389575f5ffd5b50600854610252906001600160a01b031681565b3480156103a8575f5ffd5b506102526103b736600461188a565b610997565b3480156103c7575f5ffd5b506102d16103d6366004611801565b6109a1565b3480156103e6575f5ffd5b506101dc6109e6565b3480156103fa575f5ffd5b506007546001600160a01b0316610252565b6101dc6109f9565b34801561041f575f5ffd5b50610226610bce565b348015610433575f5ffd5b506101fd610442366004611801565b600c6020525f908152604090205460ff1681565b348015610461575f5ffd5b506101dc6104703660046119e0565b610bdd565b348015610480575f5ffd5b506102d160095481565b348015610495575f5ffd5b506101dc6104a4366004611a15565b610be8565b3480156104b4575f5ffd5b506102d16301f78a4081565b3480156104cb575f5ffd5b506102266104da36600461188a565b610c00565b3480156104ea575f5ffd5b50610226610c81565b3480156104fe575f5ffd5b506101fd61050d366004611a8c565b610d0d565b34801561051d575f5ffd5b506101dc61052c366004611801565b610d3a565b34801561053c575f5ffd5b506101dc61054b366004611801565b610d64565b610558610da1565b6001600160a01b0381165f908152600b602052604090205460ff166105b75760405162461bcd60e51b815260206004820152601060248201526f2737ba10309035b2bc903437b63232b960811b60448201526064015b60405180910390fd5b6001600160a01b0381165f818152600c6020526040808220805460ff19166001179055517feaba4a3e197c198581d64f76595bc671824ed174ec48504b9e7e821376af6afa9190a250565b5f6001600160e01b03198216632483248360e11b1480610626575061062682610dce565b92915050565b60605f805461063a90611abd565b80601f016020809104026020016040519081016040528092919081815260200182805461066690611abd565b80156106b15780601f10610688576101008083540402835291602001916106b1565b820191905f5260205f20905b81548152906001019060200180831161069457829003601f168201915b5050505050905090565b5f6106c582610e1d565b505f828152600460205260409020546001600160a01b0316610626565b6106ed828233610e55565b5050565b335f908152600b602052604090205460ff16156107415760405162461bcd60e51b815260206004820152600e60248201526d105b1c9958591e481b5a5b9d195960921b60448201526064016105ae565b610d056009541061077f5760405162461bcd60e51b815260206004820152600860248201526714dbdb19081bdd5d60c21b60448201526064016105ae565b6008546040516323b872dd60e01b81523360048201526001600160a01b0391821660248201526301f78a4060448201527f0000000000000000000000000000000000000000000000000000000000000000909116906323b872dd906064016020604051808303815f875af11580156107f9573d5f5f3e3d5ffd5b505050506040513d601f19601f8201168201806040525081019061081d9190611af5565b6108605760405162461bcd60e51b81526020600482015260146024820152731554d110c81d1c985b9cd9995c8819985a5b195960621b60448201526064016105ae565b5f60095f815461086f90611b24565b9182905550335f818152600b60205260409020805460ff1916600117905590915061089a9082610e62565b6108ac816108a783610e7b565b610eaf565b604051819033907fb30ee8e611648c807fbda07b384e27c5a891ff9d6d9b65e771ddf8df625c4af4905f90a350565b6001600160a01b03821661090457604051633250574960e11b81525f60048201526024016105ae565b5f610910838333610efe565b9050836001600160a01b0316816001600160a01b03161461095e576040516364283d7b60e01b81526001600160a01b03808616600483015260248201849052821660448201526064016105ae565b50505050565b61097e83838360405180602001604052805f815250610be8565b505050565b61098b610da1565b600a6106ed8282611b80565b5f61062682610e1d565b5f6001600160a01b0382166109cb576040516322718ad960e21b81525f60048201526024016105ae565b506001600160a01b03165f9081526003602052604090205490565b6109ee610da1565b6109f75f610ff0565b565b335f908152600b602052604090205460ff1615610a495760405162461bcd60e51b815260206004820152600e60248201526d105b1c9958591e481b5a5b9d195960921b60448201526064016105ae565b610d0560095410610a875760405162461bcd60e51b815260206004820152600860248201526714dbdb19081bdd5d60c21b60448201526064016105ae565b5f3411610ac15760405162461bcd60e51b81526020600482015260086024820152670a6cadcc8408aa8960c31b60448201526064016105ae565b6008546040515f916001600160a01b03169034908381818185875af1925050503d805f8114610b0b576040519150601f19603f3d011682016040523d82523d5f602084013e610b10565b606091505b5050905080610b575760405162461bcd60e51b8152602060048201526013602482015272115512081d1c985b9cd9995c8819985a5b1959606a1b60448201526064016105ae565b5f60095f8154610b6690611b24565b9182905550335f818152600b60205260409020805460ff19166001179055909150610b919082610e62565b610b9e816108a783610e7b565b604051819033907fb30ee8e611648c807fbda07b384e27c5a891ff9d6d9b65e771ddf8df625c4af4905f90a35050565b60606001805461063a90611abd565b6106ed338383611041565b610bf38484846108db565b61095e3385858585611108565b6060610c0b82610e1d565b505f610c2160408051602081019091525f815290565b90505f610c2d84611230565b905081515f03610c3e579392505050565b805115610c70578181604051602001610c58929190611c52565b60405160208183030381529060405292505050919050565b610c79846112cf565b949350505050565b600a8054610c8e90611abd565b80601f0160208091040260200160405190810160405280929190818152602001828054610cba90611abd565b8015610d055780601f10610cdc57610100808354040283529160200191610d05565b820191905f5260205f20905b815481529060010190602001808311610ce857829003601f168201915b505050505081565b6001600160a01b039182165f90815260056020908152604080832093909416825291909152205460ff1690565b610d42610da1565b600880546001600160a01b0319166001600160a01b0392909216919091179055565b610d6c610da1565b6001600160a01b038116610d9557604051631e4fbdf760e01b81525f60048201526024016105ae565b610d9e81610ff0565b50565b6007546001600160a01b031633146109f75760405163118cdaa760e01b81523360048201526024016105ae565b5f6001600160e01b031982166380ac58cd60e01b1480610dfe57506001600160e01b03198216635b5e139f60e01b145b8061062657506301ffc9a760e01b6001600160e01b0319831614610626565b5f818152600260205260408120546001600160a01b03168061062657604051637e27328960e01b8152600481018490526024016105ae565b61097e8383836001611340565b6106ed828260405180602001604052805f815250611444565b6060600a610e888361145b565b604051602001610e99929190611c66565b6040516020818303038152906040529050919050565b5f828152600660205260409020610ec68282611b80565b506040518281527ff8e1a15aba9398e019f0b49df1a4fde98ee17ae345cb5f6b5e2c27f5033e8ce79060200160405180910390a15050565b5f828152600260205260408120546001600160a01b0390811690831615610f2a57610f2a818486611559565b6001600160a01b03811615610f6457610f455f855f5f611340565b6001600160a01b0381165f90815260036020526040902080545f190190555b6001600160a01b03851615610f92576001600160a01b0385165f908152600360205260409020805460010190555b5f8481526002602052604080822080546001600160a01b0319166001600160a01b0389811691821790925591518793918516917fddf252ad1be2c89b69c2b068fc378daa952ba7f163c4a11628f55a4df523b3ef91a4949350505050565b600780546001600160a01b038381166001600160a01b0319831681179093556040519116919082907f8be0079c531659141344cd1fd0a4f28419497f9722a3daafe3b4186f6b6457e0905f90a35050565b6001600160a01b03831661106a5760405163a9fbf51f60e01b81525f60048201526024016105ae565b6001600160a01b03821661109c57604051630b61174360e31b81526001600160a01b03831660048201526024016105ae565b6001600160a01b038381165f81815260056020908152604080832094871680845294825291829020805460ff191686151590811790915591519182527f17307eab39ab6107e8899845ad3d59bd9653f200f220920489ca2b5937696c31910160405180910390a3505050565b6001600160a01b0383163b1561122957604051630a85bd0160e11b81526001600160a01b0384169063150b7a029061114a908890889087908790600401611cfa565b6020604051808303815f875af1925050508015611184575060408051601f3d908101601f1916820190925261118191810190611d36565b60015b6111eb573d8080156111b1576040519150601f19603f3d011682016040523d82523d5f602084013e6111b6565b606091505b5080515f036111e357604051633250574960e11b81526001600160a01b03851660048201526024016105ae565b805160208201fd5b6001600160e01b03198116630a85bd0160e11b1461122757604051633250574960e11b81526001600160a01b03851660048201526024016105ae565b505b5050505050565b5f81815260066020526040902080546060919061124c90611abd565b80601f016020809104026020016040519081016040528092919081815260200182805461127890611abd565b80156112c35780601f1061129a576101008083540402835291602001916112c3565b820191905f5260205f20905b8154815290600101906020018083116112a657829003601f168201915b50505050509050919050565b60606112da82610e1d565b505f6112f060408051602081019091525f815290565b90505f81511161130e5760405180602001604052805f815250611339565b80611318846115bd565b604051602001611329929190611c52565b6040516020818303038152906040525b9392505050565b808061135457506001600160a01b03821615155b15611415575f61136384610e1d565b90506001600160a01b0383161580159061138f5750826001600160a01b0316816001600160a01b031614155b80156113a257506113a08184610d0d565b155b156113cb5760405163a9fbf51f60e01b81526001600160a01b03841660048201526024016105ae565b81156114135783856001600160a01b0316826001600160a01b03167f8c5be1e5ebec7d5bd14f71427d1e84f3dd0314c0f7b2291e5b200ac8c7c3b92560405160405180910390a45b505b50505f90815260046020526040902080546001600160a01b0319166001600160a01b0392909216919091179055565b61144e838361164d565b61097e335f858585611108565b6060815f036114815750506040805180820190915260018152600360fc1b602082015290565b815f5b81156114aa578061149481611b24565b91506114a39050600a83611d65565b9150611484565b5f8167ffffffffffffffff8111156114c4576114c4611903565b6040519080825280601f01601f1916602001820160405280156114ee576020820181803683370190505b5090505b8415610c79578161150281611d78565b92506115119050600a86611d8d565b61151c906030611da0565b60f81b81838151811061153157611531611db3565b60200101906001600160f81b03191690815f1a905350611552600a86611d65565b94506114f2565b6115648383836116ae565b61097e576001600160a01b03831661159257604051637e27328960e01b8152600481018290526024016105ae565b60405163177e802f60e01b81526001600160a01b0383166004820152602481018290526044016105ae565b60605f6115c98361170f565b60010190505f8167ffffffffffffffff8111156115e8576115e8611903565b6040519080825280601f01601f191660200182016040528015611612576020820181803683370190505b5090508181016020015b5f19016f181899199a1a9b1b9c1cb0b131b232b360811b600a86061a8153600a850494508461161c57509392505050565b6001600160a01b03821661167657604051633250574960e11b81525f60048201526024016105ae565b5f61168283835f610efe565b90506001600160a01b0381161561097e576040516339e3563760e11b81525f60048201526024016105ae565b5f6001600160a01b03831615801590610c795750826001600160a01b0316846001600160a01b031614806116e757506116e78484610d0d565b80610c795750505f908152600460205260409020546001600160a01b03908116911614919050565b5f8072184f03e93ff9f4daa797ed6e38ed64bf6a1f0160401b831061174d5772184f03e93ff9f4daa797ed6e38ed64bf6a1f0160401b830492506040015b6d04ee2d6d415b85acef81000000008310611779576d04ee2d6d415b85acef8100000000830492506020015b662386f26fc10000831061179757662386f26fc10000830492506010015b6305f5e10083106117af576305f5e100830492506008015b61271083106117c357612710830492506004015b606483106117d5576064830492506002015b600a83106106265760010192915050565b80356001600160a01b03811681146117fc575f5ffd5b919050565b5f60208284031215611811575f5ffd5b611339826117e6565b6001600160e01b031981168114610d9e575f5ffd5b5f6020828403121561183f575f5ffd5b81356113398161181a565b5f81518084528060208401602086015e5f602082860101526020601f19601f83011685010191505092915050565b602081525f611339602083018461184a565b5f6020828403121561189a575f5ffd5b5035919050565b5f5f604083850312156118b2575f5ffd5b6118bb836117e6565b946020939093013593505050565b5f5f5f606084860312156118db575f5ffd5b6118e4846117e6565b92506118f2602085016117e6565b929592945050506040919091013590565b634e487b7160e01b5f52604160045260245ffd5b5f5f67ffffffffffffffff84111561193157611931611903565b50604051601f19601f85018116603f0116810181811067ffffffffffffffff8211171561196057611960611903565b604052838152905080828401851015611977575f5ffd5b838360208301375f60208583010152509392505050565b5f6020828403121561199e575f5ffd5b813567ffffffffffffffff8111156119b4575f5ffd5b8201601f810184136119c4575f5ffd5b610c7984823560208401611917565b8015158114610d9e575f5ffd5b5f5f604083850312156119f1575f5ffd5b6119fa836117e6565b91506020830135611a0a816119d3565b809150509250929050565b5f5f5f5f60808587031215611a28575f5ffd5b611a31856117e6565b9350611a3f602086016117e6565b925060408501359150606085013567ffffffffffffffff811115611a61575f5ffd5b8501601f81018713611a71575f5ffd5b611a8087823560208401611917565b91505092959194509250565b5f5f60408385031215611a9d575f5ffd5b611aa6836117e6565b9150611ab4602084016117e6565b90509250929050565b600181811c90821680611ad157607f821691505b602082108103611aef57634e487b7160e01b5f52602260045260245ffd5b50919050565b5f60208284031215611b05575f5ffd5b8151611339816119d3565b634e487b7160e01b5f52601160045260245ffd5b5f60018201611b3557611b35611b10565b5060010190565b601f82111561097e57805f5260205f20601f840160051c81016020851015611b615750805b601f840160051c820191505b81811015611229575f8155600101611b6d565b815167ffffffffffffffff811115611b9a57611b9a611903565b611bae81611ba88454611abd565b84611b3c565b6020601f821160018114611be0575f8315611bc95750848201515b5f19600385901b1c1916600184901b178455611229565b5f84815260208120601f198516915b82811015611c0f5787850151825560209485019460019092019101611bef565b5084821015611c2c57868401515f19600387901b60f8161c191681555b50505050600190811b01905550565b5f81518060208401855e5f93019283525090919050565b5f610c79611c608386611c3b565b84611c3b565b5f5f8454611c7381611abd565b600182168015611c8a5760018114611c9f57611ccc565b60ff1983168652811515820286019350611ccc565b875f5260205f205f5b83811015611cc457815488820152600190910190602001611ca8565b505081860193505b505050602f60f81b8152611ce36001820185611c3b565b64173539b7b760d91b815260050195945050505050565b6001600160a01b03858116825284166020820152604081018390526080606082018190525f90611d2c9083018461184a565b9695505050505050565b5f60208284031215611d46575f5ffd5b81516113398161181a565b634e487b7160e01b5f52601260045260245ffd5b5f82611d7357611d73611d51565b500490565b5f81611d8657611d86611b10565b505f190190565b5f82611d9b57611d9b611d51565b500690565b8082018082111561062657610626611b10565b634e487b7160e01b5f52603260045260245ffdfea2646970667358221220acac0977d5a19fa4f02ef819b940bb96ea5860cb5bfec1d4dddf2510d854660464736f6c634300081c0033",
  "linkReferences": {},
  "deployedLinkReferences": {}
}