{"src/VaultLeaderboard.sol":{"VaultLeaderboard":{"abi":[{"inputs":[],"stateMutability":"nonpayable","type":"constructor"},{"inputs":[{"internalType":"address","name":"owner","type":"address"}],"name":"OwnableInvalidOwner","type":"error"},{"inputs":[{"internalType":"address","name":"account","type":"address"}],"name":"OwnableUnauthorizedAccount","type":"error"},{"anonymous":false,"inputs":[{"indexed":true,"internalType":"address","name":"previousOwner","type":"address"},{"indexed":true,"internalType":"address","name":"newOwner","type":"address"}],"name":"OwnershipTransferred","type":"event"},{"anonymous":false,"inputs":[{"indexed":true,"internalType":"address","name":"recorder","type":"address"},{"indexed":false,"internalType":"bool","name":"status","type":"bool"}],"name":"RecorderUpdated","type":"event"},{"anonymous":false,"inputs":[{"indexed":true,"internalType":"address","name":"player","type":"address"},{"indexed":false,"internalType":"uint8","name":"tier","type":"uint8"},{"indexed":false,"internalType":"uint32","name":"score","type":"uint32"},{"indexed":false,"internalType":"uint32","name":"timestamp","type":"uint32"}],"name":"ScoreRecorded","type":"event"},{"inputs":[],"name":"MAX_ENTRIES","outputs":[{"internalType":"uint256","name":"","type":"uint256"}],"stateMutability":"view","type":"function"},{"inputs":[{"internalType":"address","name":"","type":"address"},{"internalType":"uint8","name":"","type":"uint8"}],"name":"bestScore","outputs":[{"internalType":"uint32","name":"","type":"uint32"}],"stateMutability":"view","type":"function"},{"inputs":[{"internalType":"uint256","name":"offset","type":"uint256"},{"internalType":"uint256","name":"limit","type":"uint256"}],"name":"getEntries","outputs":[{"components":[{"internalType":"address","name":"player","type":"address"},{"internalType":"uint8","name":"tier","type":"uint8"},{"internalType":"uint32","name":"completionTime","type":"uint32"},{"internalType":"uint32","name":"score","type":"uint32"}],"internalType":"struct VaultLeaderboard.Entry[]","name":"","type":"tuple[]"}],"stateMutability":"view","type":"function"},{"inputs":[{"internalType":"address","name":"","type":"address"}],"name":"isRecorder","outputs":[{"internalType":"bool","name":"","type":"bool"}],"stateMutability":"view","type":"function"},{"inputs":[{"internalType":"uint256","name":"","type":"uint256"}],"name":"leaderboard","outputs":[{"internalType":"address","name":"player","type":"address"},{"internalType":"uint8","name":"tier","type":"uint8"},{"internalType":"uint32","name":"completionTime","type":"uint32"},{"internalType":"uint32","name":"score","type":"uint32"}],"stateMutability":"view","type":"function"},{"inputs":[],"name":"owner","outputs":[{"internalType":"address","name":"","type":"address"}],"stateMutability":"view","type":"function"},{"inputs":[{"internalType":"address","name":"player","type":"address"},{"internalType":"uint8","name":"tier","type":"uint8"},{"internalType":"uint32","name":"completionTime","type":"uint32"}],"name":"recordScore","outputs":[],"stateMutability":"nonpayable","type":"function"},{"inputs":[],"name":"renounceOwnership","outputs":[],"stateMutability":"nonpayable","type":"function"},{"inputs":[{"internalType":"address","name":"recorder","type":"address"},{"internalType":"bool","name":"status","type":"bool"}],"name":"setRecorder","outputs":[],"stateMutability":"nonpayable","type":"function"},{"inputs":[],"name":"totalEntries","outputs":[{"internalType":"uint256","name":"","type":"uint256"}],"stateMutability":"view","type":"function"},{"inputs":[{"internalType":"address","name":"newOwner","type":"address"}],"name":"transferOwnership","outputs":[],"stateMutability":"nonpayable","type":"function"}],"evm":{"bytecode":{"linkReferences":{},"object":"6080604052348015600e575f5ffd5b503380603357604051631e4fbdf760e01b81525f600482015260240160405180910390fd5b603a81603f565b50608e565b5f80546001600160a01b038381166001600160a01b0319831681178455604051919092169283917f8be0079c531659141344cd1fd0a4f28419497f9722a3daafe3b4186f6b6457e09190a35050565b610ab48061009b5f395ff3fe608060405234801561000f575f5ffd5b50600436106100a6575f3560e01c80637d4cb9641161006e5780637d4cb964146101355780637fef036e1461014c5780638da5cb5b14610154578063b949f6521461016e578063bf368399146101b3578063f2fde38b146101fe575f5ffd5b8063065ed3db146100aa578063478e8dad146100bf578063646ce049146100e85780636b39349f1461011a578063715018a61461012d575b5f5ffd5b6100bd6100b83660046107ff565b610211565b005b6100d26100cd36600461084b565b610514565b6040516100df919061086b565b60405180910390f35b61010a6100f63660046108ea565b60036020525f908152604090205460ff1681565b60405190151581526020016100df565b6100bd61012836600461090a565b610658565b6100bd6106be565b61013e61014d81565b6040519081526020016100df565b60015461013e565b5f546040516001600160a01b0390911681526020016100df565b61019e61017c366004610943565b600260209081525f928352604080842090915290825290205463ffffffff1681565b60405163ffffffff90911681526020016100df565b6101c66101c1366004610974565b6106d1565b604080516001600160a01b03909516855260ff909316602085015263ffffffff918216928401929092521660608201526080016100df565b6100bd61020c3660046108ea565b61071c565b335f9081526003602052604090205460ff168061023757505f546001600160a01b031633145b6102795760405162461bcd60e51b815260206004820152600e60248201526d139bdd08185d5d1a1bdc9a5e995960921b60448201526064015b60405180910390fd5b60018260ff1610158015610291575060038260ff1611155b6102cc5760405162461bcd60e51b815260206004820152600c60248201526b24b73b30b634b2103a34b2b960a11b6044820152606401610270565b6001600160a01b0383166103135760405162461bcd60e51b815260206004820152600e60248201526d24b73b30b634b210383630bcb2b960911b6044820152606401610270565b5f61032360ff84166103e861099f565b90505f8263ffffffff161180156103415750610e108263ffffffff16105b1561036f575f600761035584610e106109c5565b61035f91906109e1565b905061036b8183610a14565b9150505b6001600160a01b0384165f90815260026020908152604080832060ff8716845290915290205463ffffffff908116908216111561050e576001600160a01b0384165f90815260026020908152604080832060ff871684529091529020805463ffffffff191663ffffffff831617905560015461014d11156104b857604080516080810182526001600160a01b03808716825260ff8087166020840190815263ffffffff808816958501958652868116606086019081526001805480820182555f9190915295517fb10e2d527612073b26eecdfd717e6a320cf44b4afac2b0732d9fcbe2b7fa0cf690960180549351975191518316600160c81b0263ffffffff60c81b1992909316600160a81b029190911667ffffffffffffffff60a81b1997909416600160a01b026001600160a81b031990931695909416949094171793909316929092171790555b6040805160ff8516815263ffffffff838116602083015284168183015290516001600160a01b038616917f9969acacabbaab187c6d9c1b7abb2d08818e07e8e5311bcbb0e0754e1976c2c7919081900360600190a25b50505050565b60605f6105218385610a30565b60015490915081111561053357506001545b5f61053e8583610a43565b67ffffffffffffffff81111561055657610556610a56565b6040519080825280602002602001820160405280156105a657816020015b604080516080810182525f8082526020808301829052928201819052606082015282525f199092019101816105745790505b509050845b8281101561064d57600181815481106105c6576105c6610a6a565b5f9182526020918290206040805160808101825291909201546001600160a01b038116825260ff600160a01b8204169382019390935263ffffffff600160a81b8404811692820192909252600160c81b9092041660608201528261062a8884610a43565b8151811061063a5761063a610a6a565b60209081029190910101526001016105ab565b509150505b92915050565b610660610759565b6001600160a01b0382165f81815260036020908152604091829020805460ff191685151590811790915591519182527f6a89877a284cfdc505260b8a48e49b65cb85c8668646e1c0e332fac355134db7910160405180910390a25050565b6106c6610759565b6106cf5f610785565b565b600181815481106106e0575f80fd5b5f918252602090912001546001600160a01b038116915060ff600160a01b8204169063ffffffff600160a81b8204811691600160c81b90041684565b610724610759565b6001600160a01b03811661074d57604051631e4fbdf760e01b81525f6004820152602401610270565b61075681610785565b50565b5f546001600160a01b031633146106cf5760405163118cdaa760e01b8152336004820152602401610270565b5f80546001600160a01b038381166001600160a01b0319831681178455604051919092169283917f8be0079c531659141344cd1fd0a4f28419497f9722a3daafe3b4186f6b6457e09190a35050565b80356001600160a01b03811681146107ea575f5ffd5b919050565b803560ff811681146107ea575f5ffd5b5f5f5f60608486031215610811575f5ffd5b61081a846107d4565b9250610828602085016107ef565b9150604084013563ffffffff81168114610840575f5ffd5b809150509250925092565b5f5f6040838503121561085c575f5ffd5b50508035926020909101359150565b602080825282518282018190525f918401906040840190835b818110156108df57835160018060a01b03815116845260ff602082015116602085015263ffffffff604082015116604085015263ffffffff606082015116606085015250608083019250602084019350600181019050610884565b509095945050505050565b5f602082840312156108fa575f5ffd5b610903826107d4565b9392505050565b5f5f6040838503121561091b575f5ffd5b610924836107d4565b915060208301358015158114610938575f5ffd5b809150509250929050565b5f5f60408385031215610954575f5ffd5b61095d836107d4565b915061096b602084016107ef565b90509250929050565b5f60208284031215610984575f5ffd5b5035919050565b634e487b7160e01b5f52601160045260245ffd5b63ffffffff81811683821602908116908181146109be576109be61098b565b5092915050565b63ffffffff82811682821603908111156106525761065261098b565b5f63ffffffff831680610a0257634e487b7160e01b5f52601260045260245ffd5b8063ffffffff84160491505092915050565b63ffffffff81811683821601908111156106525761065261098b565b808201808211156106525761065261098b565b818103818111156106525761065261098b565b634e487b7160e01b5f52604160045260245ffd5b634e487b7160e01b5f52603260045260245ffdfea2646970667358221220cbd3d83da4e67a90a1dec3222d5797a3322012d885fa92d238cd821e1900d55364736f6c634300081c0033","opcodes":"PUSH1 0x80 PUSH1 0x40 MSTORE CALLVALUE DUP1 ISZERO PUSH1 0xE JUMPI PUSH0 PUSH0 REVERT JUMPDEST POP CALLER DUP1 PUSH1 0x33 JUMPI PUSH1 0x40 MLOAD PUSH4 0x1E4FBDF7 PUSH1 0xE0 SHL DUP2 MSTORE PUSH0 PUSH1 0x4 DUP3 ADD MSTORE PUSH1 0x24 ADD PUSH1 0x40 MLOAD DUP1 SWAP2 SUB SWAP1 REVERT JUMPDEST PUSH1 0x3A DUP2 PUSH1 0x3F JUMP JUMPDEST POP PUSH1 0x8E JUMP JUMPDEST PUSH0 DUP1 SLOAD PUSH1 0x1 PUSH1 0x1 PUSH1 0xA0 SHL SUB DUP4 DUP2 AND PUSH1 0x1 PUSH1 0x1 PUSH1 0xA0 SHL SUB NOT DUP4 AND DUP2 OR DUP5 SSTORE PUSH1 0x40 MLOAD SWAP2 SWAP1 SWAP3 AND SWAP3 DUP4 SWAP2 PUSH32 0x8BE0079C531659141344CD1FD0A4F28419497F9722A3DAAFE3B4186F6B6457E0 SWAP2 SWAP1 LOG3 POP POP JUMP JUMPDEST PUSH2 0xAB4 DUP1 PUSH2 0x9B PUSH0 CODECOPY PUSH0 RETURN INVALID PUSH1 0x80 PUSH1 0x40 MSTORE CALLVALUE DUP1 ISZERO PUSH2 0xF JUMPI PUSH0 PUSH0 REVERT JUMPDEST POP PUSH1 0x4 CALLDATASIZE LT PUSH2 0xA6 JUMPI PUSH0 CALLDATALOAD PUSH1 0xE0 SHR DUP1 PUSH4 0x7D4CB964 GT PUSH2 0x6E JUMPI DUP1 PUSH4 0x7D4CB964 EQ PUSH2 0x135 JUMPI DUP1 PUSH4 0x7FEF036E EQ PUSH2 0x14C JUMPI DUP1 PUSH4 0x8DA5CB5B EQ PUSH2 0x154 JUMPI DUP1 PUSH4 0xB949F652 EQ PUSH2 0x16E JUMPI DUP1 PUSH4 0xBF368399 EQ PUSH2 0x1B3 JUMPI DUP1 PUSH4 0xF2FDE38B EQ PUSH2 0x1FE JUMPI PUSH0 PUSH0 REVERT JUMPDEST DUP1 PUSH4 0x65ED3DB EQ PUSH2 0xAA JUMPI DUP1 PUSH4 0x478E8DAD EQ PUSH2 0xBF JUMPI DUP1 PUSH4 0x646CE049 EQ PUSH2 0xE8 JUMPI DUP1 PUSH4 0x6B39349F EQ PUSH2 0x11A JUMPI DUP1 PUSH4 0x715018A6 EQ PUSH2 0x12D JUMPI JUMPDEST PUSH0 PUSH0 REVERT JUMPDEST PUSH2 0xBD PUSH2 0xB8 CALLDATASIZE PUSH1 0x4 PUSH2 0x7FF JUMP JUMPDEST PUSH2 0x211 JUMP JUMPDEST STOP JUMPDEST PUSH2 0xD2 PUSH2 0xCD CALLDATASIZE PUSH1 0x4 PUSH2 0x84B JUMP JUMPDEST PUSH2 0x514 JUMP JUMPDEST PUSH1 0x40 MLOAD PUSH2 0xDF SWAP2 SWAP1 PUSH2 0x86B JUMP JUMPDEST PUSH1 0x40 MLOAD DUP1 SWAP2 SUB SWAP1 RETURN JUMPDEST PUSH2 0x10A PUSH2 0xF6 CALLDATASIZE PUSH1 0x4 PUSH2 0x8EA JUMP JUMPDEST PUSH1 0x3 PUSH1 0x20 MSTORE PUSH0 SWAP1 DUP2 MSTORE PUSH1 0x40 SWAP1 KECCAK256 SLOAD PUSH1 0xFF AND DUP2 JUMP JUMPDEST PUSH1 0x40 MLOAD SWAP1 ISZERO ISZERO DUP2 MSTORE PUSH1 0x20 ADD PUSH2 0xDF JUMP JUMPDEST PUSH2 0xBD PUSH2 0x128 CALLDATASIZE PUSH1 0x4 PUSH2 0x90A JUMP JUMPDEST PUSH2 0x658 JUMP JUMPDEST PUSH2 0xBD PUSH2 0x6BE JUMP JUMPDEST PUSH2 0x13E PUSH2 0x14D DUP2 JUMP JUMPDEST PUSH1 0x40 MLOAD SWAP1 DUP2 MSTORE PUSH1 0x20 ADD PUSH2 0xDF JUMP JUMPDEST PUSH1 0x1 SLOAD PUSH2 0x13E JUMP JUMPDEST PUSH0 SLOAD PUSH1 0x40 MLOAD PUSH1 0x1 PUSH1 0x1 PUSH1 0xA0 SHL SUB SWAP1 SWAP2 AND DUP2 MSTORE PUSH1 0x20 ADD PUSH2 0xDF JUMP JUMPDEST PUSH2 0x19E PUSH2 0x17C CALLDATASIZE PUSH1 0x4 PUSH2 0x943 JUMP JUMPDEST PUSH1 0x2 PUSH1 0x20 SWAP1 DUP2 MSTORE PUSH0 SWAP3 DUP4 MSTORE PUSH1 0x40 DUP1 DUP5 KECCAK256 SWAP1 SWAP2 MSTORE SWAP1 DUP3 MSTORE SWAP1 KECCAK256 SLOAD PUSH4 0xFFFFFFFF AND DUP2 JUMP JUMPDEST PUSH1 0x40 MLOAD PUSH4 0xFFFFFFFF SWAP1 SWAP2 AND DUP2 MSTORE PUSH1 0x20 ADD PUSH2 0xDF JUMP JUMPDEST PUSH2 0x1C6 PUSH2 0x1C1 CALLDATASIZE PUSH1 0x4 PUSH2 0x974 JUMP JUMPDEST PUSH2 0x6D1 JUMP JUMPDEST PUSH1 0x40 DUP1 MLOAD PUSH1 0x1 PUSH1 0x1 PUSH1 0xA0 SHL SUB SWAP1 SWAP6 AND DUP6 MSTORE PUSH1 0xFF SWAP1 SWAP4 AND PUSH1 0x20 DUP6 ADD MSTORE PUSH4 0xFFFFFFFF SWAP2 DUP3 AND SWAP3 DUP5 ADD SWAP3 SWAP1 SWAP3 MSTORE AND PUSH1 0x60 DUP3 ADD MSTORE PUSH1 0x80 ADD PUSH2 0xDF JUMP JUMPDEST PUSH2 0xBD PUSH2 0x20C CALLDATASIZE PUSH1 0x4 PUSH2 0x8EA JUMP JUMPDEST PUSH2 0x71C JUMP JUMPDEST CALLER PUSH0 SWAP1 DUP2 MSTORE PUSH1 0x3 PUSH1 0x20 MSTORE PUSH1 0x40 SWAP1 KECCAK256 SLOAD PUSH1 0xFF AND DUP1 PUSH2 0x237 JUMPI POP PUSH0 SLOAD PUSH1 0x1 PUSH1 0x1 PUSH1 0xA0 SHL SUB AND CALLER EQ JUMPDEST PUSH2 0x279 JUMPI PUSH1 0x40 MLOAD PUSH3 0x461BCD PUSH1 0xE5 SHL DUP2 MSTORE PUSH1 0x20 PUSH1 0x4 DUP3 ADD MSTORE PUSH1 0xE PUSH1 0x24 DUP3 ADD MSTORE PUSH14 0x139BDD08185D5D1A1BDC9A5E9959 PUSH1 0x92 SHL PUSH1 0x44 DUP3 ADD MSTORE PUSH1 0x64 ADD JUMPDEST PUSH1 0x40 MLOAD DUP1 SWAP2 SUB SWAP1 REVERT JUMPDEST PUSH1 0x1 DUP3 PUSH1 0xFF AND LT ISZERO DUP1 ISZERO PUSH2 0x291 JUMPI POP PUSH1 0x3 DUP3 PUSH1 0xFF AND GT ISZERO JUMPDEST PUSH2 0x2CC JUMPI PUSH1 0x40 MLOAD PUSH3 0x461BCD PUSH1 0xE5 SHL DUP2 MSTORE PUSH1 0x20 PUSH1 0x4 DUP3 ADD MSTORE PUSH1 0xC PUSH1 0x24 DUP3 ADD MSTORE PUSH12 0x24B73B30B634B2103A34B2B9 PUSH1 0xA1 SHL PUSH1 0x44 DUP3 ADD MSTORE PUSH1 0x64 ADD PUSH2 0x270 JUMP JUMPDEST PUSH1 0x1 PUSH1 0x1 PUSH1 0xA0 SHL SUB DUP4 AND PUSH2 0x313 JUMPI PUSH1 0x40 MLOAD PUSH3 0x461BCD PUSH1 0xE5 SHL DUP2 MSTORE PUSH1 0x20 PUSH1 0x4 DUP3 ADD MSTORE PUSH1 0xE PUSH1 0x24 DUP3 ADD MSTORE PUSH14 0x24B73B30B634B210383630BCB2B9 PUSH1 0x91 SHL PUSH1 0x44 DUP3 ADD MSTORE PUSH1 0x64 ADD PUSH2 0x270 JUMP JUMPDEST PUSH0 PUSH2 0x323 PUSH1 0xFF DUP5 AND PUSH2 0x3E8 PUSH2 0x99F JUMP JUMPDEST SWAP1 POP PUSH0 DUP3 PUSH4 0xFFFFFFFF AND GT DUP1 ISZERO PUSH2 0x341 JUMPI POP PUSH2 0xE10 DUP3 PUSH4 0xFFFFFFFF AND LT JUMPDEST ISZERO PUSH2 0x36F JUMPI PUSH0 PUSH1 0x7 PUSH2 0x355 DUP5 PUSH2 0xE10 PUSH2 0x9C5 JUMP JUMPDEST PUSH2 0x35F SWAP2 SWAP1 PUSH2 0x9E1 JUMP JUMPDEST SWAP1 POP PUSH2 0x36B DUP2 DUP4 PUSH2 0xA14 JUMP JUMPDEST SWAP2 POP POP JUMPDEST PUSH1 0x1 PUSH1 0x1 PUSH1 0xA0 SHL SUB DUP5 AND PUSH0 SWAP1 DUP2 MSTORE PUSH1 0x2 PUSH1 0x20 SWAP1 DUP2 MSTORE PUSH1 0x40 DUP1 DUP4 KECCAK256 PUSH1 0xFF DUP8 AND DUP5 MSTORE SWAP1 SWAP2 MSTORE SWAP1 KECCAK256 SLOAD PUSH4 0xFFFFFFFF SWAP1 DUP2 AND SWAP1 DUP3 AND GT ISZERO PUSH2 0x50E JUMPI PUSH1 0x1 PUSH1 0x1 PUSH1 0xA0 SHL SUB DUP5 AND PUSH0 SWAP1 DUP2 MSTORE PUSH1 0x2 PUSH1 0x20 SWAP1 DUP2 MSTORE PUSH1 0x40 DUP1 DUP4 KECCAK256 PUSH1 0xFF DUP8 AND DUP5 MSTORE SWAP1 SWAP2 MSTORE SWAP1 KECCAK256 DUP1 SLOAD PUSH4 0xFFFFFFFF NOT AND PUSH4 0xFFFFFFFF DUP4 AND OR SWAP1 SSTORE PUSH1 0x1 SLOAD PUSH2 0x14D GT ISZERO PUSH2 0x4B8 JUMPI PUSH1 0x40 DUP1 MLOAD PUSH1 0x80 DUP2 ADD DUP3 MSTORE PUSH1 0x1 PUSH1 0x1 PUSH1 0xA0 SHL SUB DUP1 DUP8 AND DUP3 MSTORE PUSH1 0xFF DUP1 DUP8 AND PUSH1 0x20 DUP5 ADD SWAP1 DUP2 MSTORE PUSH4 0xFFFFFFFF DUP1 DUP9 AND SWAP6 DUP6 ADD SWAP6 DUP7 MSTORE DUP7 DUP2 AND PUSH1 0x60 DUP7 ADD SWAP1 DUP2 MSTORE PUSH1 0x1 DUP1 SLOAD DUP1 DUP3 ADD DUP3 SSTORE PUSH0 SWAP2 SWAP1 SWAP2 MSTORE SWAP6 MLOAD PUSH32 0xB10E2D527612073B26EECDFD717E6A320CF44B4AFAC2B0732D9FCBE2B7FA0CF6 SWAP1 SWAP7 ADD DUP1 SLOAD SWAP4 MLOAD SWAP8 MLOAD SWAP2 MLOAD DUP4 AND PUSH1 0x1 PUSH1 0xC8 SHL MUL PUSH4 0xFFFFFFFF PUSH1 0xC8 SHL NOT SWAP3 SWAP1 SWAP4 AND PUSH1 0x1 PUSH1 0xA8 SHL MUL SWAP2 SWAP1 SWAP2 AND PUSH8 0xFFFFFFFFFFFFFFFF PUSH1 0xA8 SHL NOT SWAP8 SWAP1 SWAP5 AND PUSH1 0x1 PUSH1 0xA0 SHL MUL PUSH1 0x1 PUSH1 0x1 PUSH1 0xA8 SHL SUB NOT SWAP1 SWAP4 AND SWAP6 SWAP1 SWAP5 AND SWAP5 SWAP1 SWAP5 OR OR SWAP4 SWAP1 SWAP4 AND SWAP3 SWAP1 SWAP3 OR OR SWAP1 SSTORE JUMPDEST PUSH1 0x40 DUP1 MLOAD PUSH1 0xFF DUP6 AND DUP2 MSTORE PUSH4 0xFFFFFFFF DUP4 DUP2 AND PUSH1 0x20 DUP4 ADD MSTORE DUP5 AND DUP2 DUP4 ADD MSTORE SWAP1 MLOAD PUSH1 0x1 PUSH1 0x1 PUSH1 0xA0 SHL SUB DUP7 AND SWAP2 PUSH32 0x9969ACACABBAAB187C6D9C1B7ABB2D08818E07E8E5311BCBB0E0754E1976C2C7 SWAP2 SWAP1 DUP2 SWAP1 SUB PUSH1 0x60 ADD SWAP1 LOG2 JUMPDEST POP POP POP POP JUMP JUMPDEST PUSH1 0x60 PUSH0 PUSH2 0x521 DUP4 DUP6 PUSH2 0xA30 JUMP JUMPDEST PUSH1 0x1 SLOAD SWAP1 SWAP2 POP DUP2 GT ISZERO PUSH2 0x533 JUMPI POP PUSH1 0x1 SLOAD JUMPDEST PUSH0 PUSH2 0x53E DUP6 DUP4 PUSH2 0xA43 JUMP JUMPDEST PUSH8 0xFFFFFFFFFFFFFFFF DUP2 GT ISZERO PUSH2 0x556 JUMPI PUSH2 0x556 PUSH2 0xA56 JUMP JUMPDEST PUSH1 0x40 MLOAD SWAP1 DUP1 DUP3 MSTORE DUP1 PUSH1 0x20 MUL PUSH1 0x20 ADD DUP3 ADD PUSH1 0x40 MSTORE DUP1 ISZERO PUSH2 0x5A6 JUMPI DUP2 PUSH1 0x20 ADD JUMPDEST PUSH1 0x40 DUP1 MLOAD PUSH1 0x80 DUP2 ADD DUP3 MSTORE PUSH0 DUP1 DUP3 MSTORE PUSH1 0x20 DUP1 DUP4 ADD DUP3 SWAP1 MSTORE SWAP3 DUP3 ADD DUP2 SWAP1 MSTORE PUSH1 0x60 DUP3 ADD MSTORE DUP3 MSTORE PUSH0 NOT SWAP1 SWAP3 ADD SWAP2 ADD DUP2 PUSH2 0x574 JUMPI SWAP1 POP JUMPDEST POP SWAP1 POP DUP5 JUMPDEST DUP3 DUP2 LT ISZERO PUSH2 0x64D JUMPI PUSH1 0x1 DUP2 DUP2 SLOAD DUP2 LT PUSH2 0x5C6 JUMPI PUSH2 0x5C6 PUSH2 0xA6A JUMP JUMPDEST PUSH0 SWAP2 DUP3 MSTORE PUSH1 0x20 SWAP2 DUP3 SWAP1 KECCAK256 PUSH1 0x40 DUP1 MLOAD PUSH1 0x80 DUP2 ADD DUP3 MSTORE SWAP2 SWAP1 SWAP3 ADD SLOAD PUSH1 0x1 PUSH1 0x1 PUSH1 0xA0 SHL SUB DUP2 AND DUP3 MSTORE PUSH1 0xFF PUSH1 0x1 PUSH1 0xA0 SHL DUP3 DIV AND SWAP4 DUP3 ADD SWAP4 SWAP1 SWAP4 MSTORE PUSH4 0xFFFFFFFF PUSH1 0x1 PUSH1 0xA8 SHL DUP5 DIV DUP2 AND SWAP3 DUP3 ADD SWAP3 SWAP1 SWAP3 MSTORE PUSH1 0x1 PUSH1 0xC8 SHL SWAP1 SWAP3 DIV AND PUSH1 0x60 DUP3 ADD MSTORE DUP3 PUSH2 0x62A DUP9 DUP5 PUSH2 0xA43 JUMP JUMPDEST DUP2 MLOAD DUP2 LT PUSH2 0x63A JUMPI PUSH2 0x63A PUSH2 0xA6A JUMP JUMPDEST PUSH1 0x20 SWAP1 DUP2 MUL SWAP2 SWAP1 SWAP2 ADD ADD MSTORE PUSH1 0x1 ADD PUSH2 0x5AB JUMP JUMPDEST POP SWAP2 POP POP JUMPDEST SWAP3 SWAP2 POP POP JUMP JUMPDEST PUSH2 0x660 PUSH2 0x759 JUMP JUMPDEST PUSH1 0x1 PUSH1 0x1 PUSH1 0xA0 SHL SUB DUP3 AND PUSH0 DUP2 DUP2 MSTORE PUSH1 0x3 PUSH1 0x20 SWAP1 DUP2 MSTORE PUSH1 0x40 SWAP2 DUP3 SWAP1 KECCAK256 DUP1 SLOAD PUSH1 0xFF NOT AND DUP6 ISZERO ISZERO SWAP1 DUP2 OR SWAP1 SWAP2 SSTORE SWAP2 MLOAD SWAP2 DUP3 MSTORE PUSH32 0x6A89877A284CFDC505260B8A48E49B65CB85C8668646E1C0E332FAC355134DB7 SWAP2 ADD PUSH1 0x40 MLOAD DUP1 SWAP2 SUB SWAP1 LOG2 POP POP JUMP JUMPDEST PUSH2 0x6C6 PUSH2 0x759 JUMP JUMPDEST PUSH2 0x6CF PUSH0 PUSH2 0x785 JUMP JUMPDEST JUMP JUMPDEST PUSH1 0x1 DUP2 DUP2 SLOAD DUP2 LT PUSH2 0x6E0 JUMPI PUSH0 DUP1 REVERT JUMPDEST PUSH0 SWAP2 DUP3 MSTORE PUSH1 0x20 SWAP1 SWAP2 KECCAK256 ADD SLOAD PUSH1 0x1 PUSH1 0x1 PUSH1 0xA0 SHL SUB DUP2 AND SWAP2 POP PUSH1 0xFF PUSH1 0x1 PUSH1 0xA0 SHL DUP3 DIV AND SWAP1 PUSH4 0xFFFFFFFF PUSH1 0x1 PUSH1 0xA8 SHL DUP3 DIV DUP2 AND SWAP2 PUSH1 0x1 PUSH1 0xC8 SHL SWAP1 DIV AND DUP5 JUMP JUMPDEST PUSH2 0x724 PUSH2 0x759 JUMP JUMPDEST PUSH1 0x1 PUSH1 0x1 PUSH1 0xA0 SHL SUB DUP2 AND PUSH2 0x74D JUMPI PUSH1 0x40 MLOAD PUSH4 0x1E4FBDF7 PUSH1 0xE0 SHL DUP2 MSTORE PUSH0 PUSH1 0x4 DUP3 ADD MSTORE PUSH1 0x24 ADD PUSH2 0x270 JUMP JUMPDEST PUSH2 0x756 DUP2 PUSH2 0x785 JUMP JUMPDEST POP JUMP JUMPDEST PUSH0 SLOAD PUSH1 0x1 PUSH1 0x1 PUSH1 0xA0 SHL SUB AND CALLER EQ PUSH2 0x6CF JUMPI PUSH1 0x40 MLOAD PUSH4 0x118CDAA7 PUSH1 0xE0 SHL DUP2 MSTORE CALLER PUSH1 0x4 DUP3 ADD MSTORE PUSH1 0x24 ADD PUSH2 0x270 JUMP JUMPDEST PUSH0 DUP1 SLOAD PUSH1 0x1 PUSH1 0x1 PUSH1 0xA0 SHL SUB DUP4 DUP2 AND PUSH1 0x1 PUSH1 0x1 PUSH1 0xA0 SHL SUB NOT DUP4 AND DUP2 OR DUP5 SSTORE PUSH1 0x40 MLOAD SWAP2 SWAP1 SWAP3 AND SWAP3 DUP4 SWAP2 PUSH32 0x8BE0079C531659141344CD1FD0A4F28419497F9722A3DAAFE3B4186F6B6457E0 SWAP2 SWAP1 LOG3 POP POP JUMP JUMPDEST DUP1 CALLDATALOAD PUSH1 0x1 PUSH1 0x1 PUSH1 0xA0 SHL SUB DUP2 AND DUP2 EQ PUSH2 0x7EA JUMPI PUSH0 PUSH0 REVERT JUMPDEST SWAP2 SWAP1 POP JUMP JUMPDEST DUP1 CALLDATALOAD PUSH1 0xFF DUP2 AND DUP2 EQ PUSH2 0x7EA JUMPI PUSH0 PUSH0 REVERT JUMPDEST PUSH0 PUSH0 PUSH0 PUSH1 0x60 DUP5 DUP7 SUB SLT ISZERO PUSH2 0x811 JUMPI PUSH0 PUSH0 REVERT JUMPDEST PUSH2 0x81A DUP5 PUSH2 0x7D4 JUMP JUMPDEST SWAP3 POP PUSH2 0x828 PUSH1 0x20 DUP6 ADD PUSH2 0x7EF JUMP JUMPDEST SWAP2 POP PUSH1 0x40 DUP5 ADD CALLDATALOAD PUSH4 0xFFFFFFFF DUP2 AND DUP2 EQ PUSH2 0x840 JUMPI PUSH0 PUSH0 REVERT JUMPDEST DUP1 SWAP2 POP POP SWAP3 POP SWAP3 POP SWAP3 JUMP JUMPDEST PUSH0 PUSH0 PUSH1 0x40 DUP4 DUP6 SUB SLT ISZERO PUSH2 0x85C JUMPI PUSH0 PUSH0 REVERT JUMPDEST POP POP DUP1 CALLDATALOAD SWAP3 PUSH1 0x20 SWAP1 SWAP2 ADD CALLDATALOAD SWAP2 POP JUMP JUMPDEST PUSH1 0x20 DUP1 DUP3 MSTORE DUP3 MLOAD DUP3 DUP3 ADD DUP2 SWAP1 MSTORE PUSH0 SWAP2 DUP5 ADD SWAP1 PUSH1 0x40 DUP5 ADD SWAP1 DUP4 JUMPDEST DUP2 DUP2 LT ISZERO PUSH2 0x8DF JUMPI DUP4 MLOAD PUSH1 0x1 DUP1 PUSH1 0xA0 SHL SUB DUP2 MLOAD AND DUP5 MSTORE PUSH1 0xFF PUSH1 0x20 DUP3 ADD MLOAD AND PUSH1 0x20 DUP6 ADD MSTORE PUSH4 0xFFFFFFFF PUSH1 0x40 DUP3 ADD MLOAD AND PUSH1 0x40 DUP6 ADD MSTORE PUSH4 0xFFFFFFFF PUSH1 0x60 DUP3 ADD MLOAD AND PUSH1 0x60 DUP6 ADD MSTORE POP PUSH1 0x80 DUP4 ADD SWAP3 POP PUSH1 0x20 DUP5 ADD SWAP4 POP PUSH1 0x1 DUP2 ADD SWAP1 POP PUSH2 0x884 JUMP JUMPDEST POP SWAP1 SWAP6 SWAP5 POP POP POP POP POP JUMP JUMPDEST PUSH0 PUSH1 0x20 DUP3 DUP5 SUB SLT ISZERO PUSH2 0x8FA JUMPI PUSH0 PUSH0 REVERT JUMPDEST PUSH2 0x903 DUP3 PUSH2 0x7D4 JUMP JUMPDEST SWAP4 SWAP3 POP POP POP JUMP JUMPDEST PUSH0 PUSH0 PUSH1 0x40 DUP4 DUP6 SUB SLT ISZERO PUSH2 0x91B JUMPI PUSH0 PUSH0 REVERT JUMPDEST PUSH2 0x924 DUP4 PUSH2 0x7D4 JUMP JUMPDEST SWAP2 POP PUSH1 0x20 DUP4 ADD CALLDATALOAD DUP1 ISZERO ISZERO DUP2 EQ PUSH2 0x938 JUMPI PUSH0 PUSH0 REVERT JUMPDEST DUP1 SWAP2 POP POP SWAP3 POP SWAP3 SWAP1 POP JUMP JUMPDEST PUSH0 PUSH0 PUSH1 0x40 DUP4 DUP6 SUB SLT ISZERO PUSH2 0x954 JUMPI PUSH0 PUSH0 REVERT JUMPDEST PUSH2 0x95D DUP4 PUSH2 0x7D4 JUMP JUMPDEST SWAP2 POP PUSH2 0x96B PUSH1 0x20 DUP5 ADD PUSH2 0x7EF JUMP JUMPDEST SWAP1 POP SWAP3 POP SWAP3 SWAP1 POP JUMP JUMPDEST PUSH0 PUSH1 0x20 DUP3 DUP5 SUB SLT ISZERO PUSH2 0x984 JUMPI PUSH0 PUSH0 REVERT JUMPDEST POP CALLDATALOAD SWAP2 SWAP1 POP JUMP JUMPDEST PUSH4 0x4E487B71 PUSH1 0xE0 SHL PUSH0 MSTORE PUSH1 0x11 PUSH1 0x4 MSTORE PUSH1 0x24 PUSH0 REVERT JUMPDEST PUSH4 0xFFFFFFFF DUP2 DUP2 AND DUP4 DUP3 AND MUL SWAP1 DUP2 AND SWAP1 DUP2 DUP2 EQ PUSH2 0x9BE JUMPI PUSH2 0x9BE PUSH2 0x98B JUMP JUMPDEST POP SWAP3 SWAP2 POP POP JUMP JUMPDEST PUSH4 0xFFFFFFFF DUP3 DUP2 AND DUP3 DUP3 AND SUB SWAP1 DUP2 GT ISZERO PUSH2 0x652 JUMPI PUSH2 0x652 PUSH2 0x98B JUMP JUMPDEST PUSH0 PUSH4 0xFFFFFFFF DUP4 AND DUP1 PUSH2 0xA02 JUMPI PUSH4 0x4E487B71 PUSH1 0xE0 SHL PUSH0 MSTORE PUSH1 0x12 PUSH1 0x4 MSTORE PUSH1 0x24 PUSH0 REVERT JUMPDEST DUP1 PUSH4 0xFFFFFFFF DUP5 AND DIV SWAP2 POP POP SWAP3 SWAP2 POP POP JUMP JUMPDEST PUSH4 0xFFFFFFFF DUP2 DUP2 AND DUP4 DUP3 AND ADD SWAP1 DUP2 GT ISZERO PUSH2 0x652 JUMPI PUSH2 0x652 PUSH2 0x98B JUMP JUMPDEST DUP1 DUP3 ADD DUP1 DUP3 GT ISZERO PUSH2 0x652 JUMPI PUSH2 0x652 PUSH2 0x98B JUMP JUMPDEST DUP2 DUP2 SUB DUP2 DUP2 GT ISZERO PUSH2 0x652 JUMPI PUSH2 0x652 PUSH2 0x98B JUMP JUMPDEST PUSH4 0x4E487B71 PUSH1 0xE0 SHL PUSH0 MSTORE PUSH1 0x41 PUSH1 0x4 MSTORE PUSH1 0x24 PUSH0 REVERT JUMPDEST PUSH4 0x4E487B71 PUSH1 0xE0 SHL PUSH0 MSTORE PUSH1 0x32 PUSH1 0x4 MSTORE PUSH1 0x24 PUSH0 REVERT INVALID LOG2 PUSH5 0x6970667358 0x22 SLT KECCAK256 0xCB 0xD3 0xD8 RETURNDATASIZE LOG4 0xE6 PUSH27 0x90A1DEC3222D5797A3322012D885FA92D238CD821E1900D5536473 PUSH16 0x6C634300081C00330000000000000000 "},"methodIdentifiers":{"MAX_ENTRIES()":"7d4cb964","bestScore(address,uint8)":"b949f652","getEntries(uint256,uint256)":"478e8dad","isRecorder(address)":"646ce049","leaderboard(uint256)":"bf368399","owner()":"8da5cb5b","recordScore(address,uint8,uint32)":"065ed3db","renounceOwnership()":"715018a6","setRecorder(address,bool)":"6b39349f","totalEntries()":"7fef036e","transferOwnership(address)":"f2fde38b"}}}}}