{"src/MasterKey.sol":{"MasterKey":{"abi":[{"inputs":[{"internalType":"address","name":"_usdc","type":"address"},{"internalType":"address","name":"_vaultKey","type":"address"},{"internalType":"address","name":"_treasury","type":"address"},{"internalType":"string","name":"_baseURI","type":"string"}],"stateMutability":"nonpayable","type":"constructor"},{"inputs":[{"internalType":"address","name":"sender","type":"address"},{"internalType":"uint256","name":"tokenId","type":"uint256"},{"internalType":"address","name":"owner","type":"address"}],"name":"ERC721IncorrectOwner","type":"error"},{"inputs":[{"internalType":"address","name":"operator","type":"address"},{"internalType":"uint256","name":"tokenId","type":"uint256"}],"name":"ERC721InsufficientApproval","type":"error"},{"inputs":[{"internalType":"address","name":"approver","type":"address"}],"name":"ERC721InvalidApprover","type":"error"},{"inputs":[{"internalType":"address","name":"operator","type":"address"}],"name":"ERC721InvalidOperator","type":"error"},{"inputs":[{"internalType":"address","name":"owner","type":"address"}],"name":"ERC721InvalidOwner","type":"error"},{"inputs":[{"internalType":"address","name":"receiver","type":"address"}],"name":"ERC721InvalidReceiver","type":"error"},{"inputs":[{"internalType":"address","name":"sender","type":"address"}],"name":"ERC721InvalidSender","type":"error"},{"inputs":[{"internalType":"uint256","name":"tokenId","type":"uint256"}],"name":"ERC721NonexistentToken","type":"error"},{"inputs":[{"internalType":"address","name":"owner","type":"address"}],"name":"OwnableInvalidOwner","type":"error"},{"inputs":[{"internalType":"address","name":"account","type":"address"}],"name":"OwnableUnauthorizedAccount","type":"error"},{"anonymous":false,"inputs":[{"indexed":true,"internalType":"address","name":"owner","type":"address"},{"indexed":true,"internalType":"address","name":"approved","type":"address"},{"indexed":true,"internalType":"uint256","name":"tokenId","type":"uint256"}],"name":"Approval","type":"event"},{"anonymous":false,"inputs":[{"indexed":true,"internalType":"address","name":"owner","type":"address"},{"indexed":true,"internalType":"address","name":"operator","type":"address"},{"indexed":false,"internalType":"bool","name":"approved","type":"bool"}],"name":"ApprovalForAll","type":"event"},{"anonymous":false,"inputs":[{"indexed":false,"internalType":"uint256","name":"_fromTokenId","type":"uint256"},{"indexed":false,"internalType":"uint256","name":"_toTokenId","type":"uint256"}],"name":"BatchMetadataUpdate","type":"event"},{"anonymous":false,"inputs":[{"indexed":true,"internalType":"address","name":"player","type":"address"},{"indexed":true,"internalType":"uint256","name":"tokenId","type":"uint256"}],"name":"MasterKeyMinted","type":"event"},{"anonymous":false,"inputs":[{"indexed":false,"internalType":"uint256","name":"_tokenId","type":"uint256"}],"name":"MetadataUpdate","type":"event"},{"anonymous":false,"inputs":[{"indexed":true,"internalType":"address","name":"previousOwner","type":"address"},{"indexed":true,"internalType":"address","name":"newOwner","type":"address"}],"name":"OwnershipTransferred","type":"event"},{"anonymous":false,"inputs":[{"indexed":true,"internalType":"address","name":"player","type":"address"},{"indexed":false,"internalType":"uint256","name":"legendTokenId","type":"uint256"}],"name":"Tier3Completed","type":"event"},{"anonymous":false,"inputs":[{"indexed":true,"internalType":"address","name":"from","type":"address"},{"indexed":true,"internalType":"address","name":"to","type":"address"},{"indexed":true,"internalType":"uint256","name":"tokenId","type":"uint256"}],"name":"Transfer","type":"event"},{"inputs":[],"name":"MAX_SUPPLY","outputs":[{"internalType":"uint256","name":"","type":"uint256"}],"stateMutability":"view","type":"function"},{"inputs":[],"name":"MINT_PRICE_USDC","outputs":[{"internalType":"uint256","name":"","type":"uint256"}],"stateMutability":"view","type":"function"},{"inputs":[{"internalType":"address","name":"to","type":"address"},{"internalType":"uint256","name":"tokenId","type":"uint256"}],"name":"approve","outputs":[],"stateMutability":"nonpayable","type":"function"},{"inputs":[{"internalType":"address","name":"owner","type":"address"}],"name":"balanceOf","outputs":[{"internalType":"uint256","name":"","type":"uint256"}],"stateMutability":"view","type":"function"},{"inputs":[],"name":"baseTokenURI","outputs":[{"internalType":"string","name":"","type":"string"}],"stateMutability":"view","type":"function"},{"inputs":[{"internalType":"address","name":"player","type":"address"}],"name":"completeTier3","outputs":[],"stateMutability":"nonpayable","type":"function"},{"inputs":[{"internalType":"uint256","name":"tokenId","type":"uint256"}],"name":"getApproved","outputs":[{"internalType":"address","name":"","type":"address"}],"stateMutability":"view","type":"function"},{"inputs":[{"internalType":"address","name":"","type":"address"}],"name":"hasMinted","outputs":[{"internalType":"bool","name":"","type":"bool"}],"stateMutability":"view","type":"function"},{"inputs":[{"internalType":"address","name":"owner","type":"address"},{"internalType":"address","name":"operator","type":"address"}],"name":"isApprovedForAll","outputs":[{"internalType":"bool","name":"","type":"bool"}],"stateMutability":"view","type":"function"},{"inputs":[],"name":"mint","outputs":[],"stateMutability":"nonpayable","type":"function"},{"inputs":[],"name":"mintWithETH","outputs":[],"stateMutability":"payable","type":"function"},{"inputs":[],"name":"name","outputs":[{"internalType":"string","name":"","type":"string"}],"stateMutability":"view","type":"function"},{"inputs":[],"name":"owner","outputs":[{"internalType":"address","name":"","type":"address"}],"stateMutability":"view","type":"function"},{"inputs":[{"internalType":"uint256","name":"tokenId","type":"uint256"}],"name":"ownerOf","outputs":[{"internalType":"address","name":"","type":"address"}],"stateMutability":"view","type":"function"},{"inputs":[],"name":"renounceOwnership","outputs":[],"stateMutability":"nonpayable","type":"function"},{"inputs":[{"internalType":"address","name":"from","type":"address"},{"internalType":"address","name":"to","type":"address"},{"internalType":"uint256","name":"tokenId","type":"uint256"}],"name":"safeTransferFrom","outputs":[],"stateMutability":"nonpayable","type":"function"},{"inputs":[{"internalType":"address","name":"from","type":"address"},{"internalType":"address","name":"to","type":"address"},{"internalType":"uint256","name":"tokenId","type":"uint256"},{"internalType":"bytes","name":"data","type":"bytes"}],"name":"safeTransferFrom","outputs":[],"stateMutability":"nonpayable","type":"function"},{"inputs":[{"internalType":"address","name":"operator","type":"address"},{"internalType":"bool","name":"approved","type":"bool"}],"name":"setApprovalForAll","outputs":[],"stateMutability":"nonpayable","type":"function"},{"inputs":[{"internalType":"string","name":"_baseURI","type":"string"}],"name":"setBaseURI","outputs":[],"stateMutability":"nonpayable","type":"function"},{"inputs":[{"internalType":"address","name":"_treasury","type":"address"}],"name":"setTreasury","outputs":[],"stateMutability":"nonpayable","type":"function"},{"inputs":[{"internalType":"address","name":"_vaultLegend","type":"address"}],"name":"setVaultLegend","outputs":[],"stateMutability":"nonpayable","type":"function"},{"inputs":[{"internalType":"bytes4","name":"interfaceId","type":"bytes4"}],"name":"supportsInterface","outputs":[{"internalType":"bool","name":"","type":"bool"}],"stateMutability":"view","type":"function"},{"inputs":[],"name":"symbol","outputs":[{"internalType":"string","name":"","type":"string"}],"stateMutability":"view","type":"function"},{"inputs":[{"internalType":"address","name":"","type":"address"}],"name":"tier3Completed","outputs":[{"internalType":"bool","name":"","type":"bool"}],"stateMutability":"view","type":"function"},{"inputs":[{"internalType":"uint256","name":"tokenId","type":"uint256"}],"name":"tokenURI","outputs":[{"internalType":"string","name":"","type":"string"}],"stateMutability":"view","type":"function"},{"inputs":[],"name":"totalMinted","outputs":[{"internalType":"uint256","name":"","type":"uint256"}],"stateMutability":"view","type":"function"},{"inputs":[{"internalType":"address","name":"from","type":"address"},{"internalType":"address","name":"to","type":"address"},{"internalType":"uint256","name":"tokenId","type":"uint256"}],"name":"transferFrom","outputs":[],"stateMutability":"nonpayable","type":"function"},{"inputs":[{"internalType":"address","name":"newOwner","type":"address"}],"name":"transferOwnership","outputs":[],"stateMutability":"nonpayable","type":"function"},{"inputs":[],"name":"treasury","outputs":[{"internalType":"address","name":"","type":"address"}],"stateMutability":"view","type":"function"},{"inputs":[],"name":"usdc","outputs":[{"internalType":"contract IERC20","name":"","type":"address"}],"stateMutability":"view","type":"function"},{"inputs":[],"name":"vaultKey","outputs":[{"internalType":"contract VaultKey","name":"","type":"address"}],"stateMutability":"view","type":"function"},{"inputs":[],"name":"vaultLegend","outputs":[{"internalType":"contract VaultLegend","name":"","type":"address"}],"stateMutability":"view","type":"function"}],"evm":{"bytecode":{"linkReferences":{},"object":"60c060405234801561000f575f5ffd5b5060405161257b38038061257b83398101604081905261002e91610185565b336040518060400160405280600a8152602001694d6173746572204b657960b01b815250604051806040016040528060048152602001634d4b455960e01b815250815f908161007d91906102eb565b50600161008a82826102eb565b5050506001600160a01b0381166100ba57604051631e4fbdf760e01b81525f600482015260240160405180910390fd5b6100c381610105565b506001600160a01b0384811660805283811660a052600980546001600160a01b031916918416919091179055600b6100fb82826102eb565b50505050506103a5565b600780546001600160a01b038381166001600160a01b0319831681179093556040519116919082907f8be0079c531659141344cd1fd0a4f28419497f9722a3daafe3b4186f6b6457e0905f90a35050565b80516001600160a01b038116811461016c575f5ffd5b919050565b634e487b7160e01b5f52604160045260245ffd5b5f5f5f5f60808587031215610198575f5ffd5b6101a185610156565b93506101af60208601610156565b92506101bd60408601610156565b60608601519092506001600160401b038111156101d8575f5ffd5b8501601f810187136101e8575f5ffd5b80516001600160401b0381111561020157610201610171565b604051601f8201601f19908116603f011681016001600160401b038111828210171561022f5761022f610171565b604052818152828201602001891015610246575f5ffd5b8160208401602083015e5f6020838301015280935050505092959194509250565b600181811c9082168061027b57607f821691505b60208210810361029957634e487b7160e01b5f52602260045260245ffd5b50919050565b601f8211156102e657805f5260205f20601f840160051c810160208510156102c45750805b601f840160051c820191505b818110156102e3575f81556001016102d0565b50505b505050565b81516001600160401b0381111561030457610304610171565b610318816103128454610267565b8461029f565b6020601f82116001811461034a575f83156103335750848201515b5f19600385901b1c1916600184901b1784556102e3565b5f84815260208120601f198516915b828110156103795787850151825560209485019460019092019101610359565b508482101561039657868401515f19600387901b60f8161c191681555b50505050600190811b01905550565b60805160a0516121a06103db5f395f81816104dc015281816108d60152610ca701525f818161036e0152610a4a01526121a05ff3fe6080604052600436106101db575f3560e01c8063715018a6116100fd578063b88d4fde11610092578063dd2af79d11610062578063dd2af79d14610567578063e985e9c514610586578063f0f44260146105a5578063f2fde38b146105c4575f5ffd5b8063b88d4fde146104fe578063c4f84d281461051d578063c87b56dd14610534578063d547cfb714610553575f5ffd5b80639fdd207f116100cd5780639fdd207f14610478578063a22cb46514610497578063a2309ff8146104b6578063a56100b5146104cb575f5ffd5b8063715018a61461042b5780638da5cb5b1461043f5780638f2aef5b1461045c57806395d89b4114610464575f5ffd5b806332cb6b0c1161017357806355f804b31161014357806355f804b3146103af57806361d027b3146103ce5780636352211e146103ed57806370a082311461040c575f5ffd5b806332cb6b0c1461030c57806338e21cce1461032f5780633e413bee1461035d57806342842e0e14610390575f5ffd5b8063095ea7b3116101ae578063095ea7b31461028c5780630a69e8b5146102ab5780631249c58b146102d957806323b872dd146102ed575f5ffd5b806301ffc9a7146101df57806304cd2e6f1461021357806306fdde0314610234578063081812fc14610255575b5f5ffd5b3480156101ea575f5ffd5b506101fe6101f9366004611b87565b6105e3565b60405190151581526020015b60405180910390f35b34801561021e575f5ffd5b5061023261022d366004611bbd565b61060d565b005b34801561023f575f5ffd5b506102486107fc565b60405161020a9190611c04565b348015610260575f5ffd5b5061027461026f366004611c16565b61088b565b6040516001600160a01b03909116815260200161020a565b348015610297575f5ffd5b506102326102a6366004611c2d565b6108b2565b3480156102b6575f5ffd5b506101fe6102c5366004611bbd565b600d6020525f908152604090205460ff1681565b3480156102e4575f5ffd5b506102326108c1565b3480156102f8575f5ffd5b50610232610307366004611c55565b610b74565b348015610317575f5ffd5b5061032161029a81565b60405190815260200161020a565b34801561033a575f5ffd5b506101fe610349366004611bbd565b600c6020525f908152604090205460ff1681565b348015610368575f5ffd5b506102747f000000000000000000000000000000000000000000000000000000000000000081565b34801561039b575f5ffd5b506102326103aa366004611c55565b610bfd565b3480156103ba575f5ffd5b506102326103c9366004611d1a565b610c1c565b3480156103d9575f5ffd5b50600954610274906001600160a01b031681565b3480156103f8575f5ffd5b50610274610407366004611c16565b610c30565b348015610417575f5ffd5b50610321610426366004611bbd565b610c3a565b348015610436575f5ffd5b50610232610c7f565b34801561044a575f5ffd5b506007546001600160a01b0316610274565b610232610c92565b34801561046f575f5ffd5b50610248610f30565b348015610483575f5ffd5b50600854610274906001600160a01b031681565b3480156104a2575f5ffd5b506102326104b1366004611d6c565b610f3f565b3480156104c1575f5ffd5b50610321600a5481565b3480156104d6575f5ffd5b506102747f000000000000000000000000000000000000000000000000000000000000000081565b348015610509575f5ffd5b50610232610518366004611da1565b610f4a565b348015610528575f5ffd5b506103216303ef148081565b34801561053f575f5ffd5b5061024861054e366004611c16565b610f62565b34801561055e575f5ffd5b50610248610fe3565b348015610572575f5ffd5b50610232610581366004611bbd565b61106f565b348015610591575f5ffd5b506101fe6105a0366004611e18565b611099565b3480156105b0575f5ffd5b506102326105bf366004611bbd565b6110c6565b3480156105cf575f5ffd5b506102326105de366004611bbd565b6110f0565b5f6001600160e01b03198216632483248360e11b148061060757506106078261112d565b92915050565b61061561117c565b6001600160a01b0381165f908152600c602052604090205460ff166106815760405162461bcd60e51b815260206004820152601760248201527f4e6f742061206d6173746572206b657920686f6c64657200000000000000000060448201526064015b60405180910390fd5b6001600160a01b0381165f908152600d602052604090205460ff16156106dd5760405162461bcd60e51b8152602060048201526011602482015270105b1c9958591e4818dbdb5c1b195d1959607a1b6044820152606401610678565b6008546001600160a01b031661072b5760405162461bcd60e51b815260206004820152601360248201527215985d5b1d131959d95b99081b9bdd081cd95d606a1b6044820152606401610678565b6001600160a01b038181165f818152600d6020526040808220805460ff1916600117905560085490516331ce992f60e01b81526004810193909352909216906331ce992f906024016020604051808303815f875af115801561078f573d5f5f3e3d5ffd5b505050506040513d601f19601f820116820180604052508101906107b39190611e49565b9050816001600160a01b03167f64fb6099887eeb3a933ebf379a9442abef1de568082a409941892f26ef37d819826040516107f091815260200190565b60405180910390a25050565b60605f805461080a90611e60565b80601f016020809104026020016040519081016040528092919081815260200182805461083690611e60565b80156108815780601f1061085857610100808354040283529160200191610881565b820191905f5260205f20905b81548152906001019060200180831161086457829003601f168201915b5050505050905090565b5f610895826111a9565b505f828152600460205260409020546001600160a01b0316610607565b6108bd8282336111e1565b5050565b604051631c710e6760e11b81523360048201527f00000000000000000000000000000000000000000000000000000000000000006001600160a01b0316906338e21cce90602401602060405180830381865afa158015610923573d5f5f3e3d5ffd5b505050506040513d601f19601f820116820180604052508101906109479190611e98565b61098a5760405162461bcd60e51b8152602060048201526014602482015273139959590815985d5b1d0812d95e48199a5c9cdd60621b6044820152606401610678565b335f908152600c602052604090205460ff16156109da5760405162461bcd60e51b815260206004820152600e60248201526d105b1c9958591e481b5a5b9d195960921b6044820152606401610678565b61029a600a5410610a185760405162461bcd60e51b815260206004820152600860248201526714dbdb19081bdd5d60c21b6044820152606401610678565b6009546040516323b872dd60e01b81523360048201526001600160a01b0391821660248201526303ef148060448201527f0000000000000000000000000000000000000000000000000000000000000000909116906323b872dd906064016020604051808303815f875af1158015610a92573d5f5f3e3d5ffd5b505050506040513d601f19601f82011682018060405250810190610ab69190611e98565b610af95760405162461bcd60e51b81526020600482015260146024820152731554d110c81d1c985b9cd9995c8819985a5b195960621b6044820152606401610678565b5f600a5f8154610b0890611ec7565b9182905550335f818152600c60205260409020805460ff19166001179055909150610b3390826111ee565b610b4581610b4083611207565b61123b565b604051819033907ff68bad5af62d777d3f6b0d6b439aee2fe6cf022434bbc879441aaef1e20f4284905f90a350565b6001600160a01b038216610b9d57604051633250574960e11b81525f6004820152602401610678565b5f610ba983833361128a565b9050836001600160a01b0316816001600160a01b031614610bf7576040516364283d7b60e01b81526001600160a01b0380861660048301526024820184905282166044820152606401610678565b50505050565b610c1783838360405180602001604052805f815250610f4a565b505050565b610c2461117c565b600b6108bd8282611f23565b5f610607826111a9565b5f6001600160a01b038216610c64576040516322718ad960e21b81525f6004820152602401610678565b506001600160a01b03165f9081526003602052604090205490565b610c8761117c565b610c905f61137c565b565b604051631c710e6760e11b81523360048201527f00000000000000000000000000000000000000000000000000000000000000006001600160a01b0316906338e21cce90602401602060405180830381865afa158015610cf4573d5f5f3e3d5ffd5b505050506040513d601f19601f82011682018060405250810190610d189190611e98565b610d5b5760405162461bcd60e51b8152602060048201526014602482015273139959590815985d5b1d0812d95e48199a5c9cdd60621b6044820152606401610678565b335f908152600c602052604090205460ff1615610dab5760405162461bcd60e51b815260206004820152600e60248201526d105b1c9958591e481b5a5b9d195960921b6044820152606401610678565b61029a600a5410610de95760405162461bcd60e51b815260206004820152600860248201526714dbdb19081bdd5d60c21b6044820152606401610678565b5f3411610e235760405162461bcd60e51b81526020600482015260086024820152670a6cadcc8408aa8960c31b6044820152606401610678565b6009546040515f916001600160a01b03169034908381818185875af1925050503d805f8114610e6d576040519150601f19603f3d011682016040523d82523d5f602084013e610e72565b606091505b5050905080610eb95760405162461bcd60e51b8152602060048201526013602482015272115512081d1c985b9cd9995c8819985a5b1959606a1b6044820152606401610678565b5f600a5f8154610ec890611ec7565b9182905550335f818152600c60205260409020805460ff19166001179055909150610ef390826111ee565b610f0081610b4083611207565b604051819033907ff68bad5af62d777d3f6b0d6b439aee2fe6cf022434bbc879441aaef1e20f4284905f90a35050565b60606001805461080a90611e60565b6108bd3383836113cd565b610f55848484610b74565b610bf73385858585611494565b6060610f6d826111a9565b505f610f8360408051602081019091525f815290565b90505f610f8f846115bc565b905081515f03610fa0579392505050565b805115610fd2578181604051602001610fba929190611ff5565b60405160208183030381529060405292505050919050565b610fdb8461165b565b949350505050565b600b8054610ff090611e60565b80601f016020809104026020016040519081016040528092919081815260200182805461101c90611e60565b80156110675780601f1061103e57610100808354040283529160200191611067565b820191905f5260205f20905b81548152906001019060200180831161104a57829003601f168201915b505050505081565b61107761117c565b600880546001600160a01b0319166001600160a01b0392909216919091179055565b6001600160a01b039182165f90815260056020908152604080832093909416825291909152205460ff1690565b6110ce61117c565b600980546001600160a01b0319166001600160a01b0392909216919091179055565b6110f861117c565b6001600160a01b03811661112157604051631e4fbdf760e01b81525f6004820152602401610678565b61112a8161137c565b50565b5f6001600160e01b031982166380ac58cd60e01b148061115d57506001600160e01b03198216635b5e139f60e01b145b8061060757506301ffc9a760e01b6001600160e01b0319831614610607565b6007546001600160a01b03163314610c905760405163118cdaa760e01b8152336004820152602401610678565b5f818152600260205260408120546001600160a01b03168061060757604051637e27328960e01b815260048101849052602401610678565b610c1783838360016116cc565b6108bd828260405180602001604052805f8152506117d0565b6060600b611214836117e7565b604051602001611225929190612009565b6040516020818303038152906040529050919050565b5f8281526006602052604090206112528282611f23565b506040518281527ff8e1a15aba9398e019f0b49df1a4fde98ee17ae345cb5f6b5e2c27f5033e8ce79060200160405180910390a15050565b5f828152600260205260408120546001600160a01b03908116908316156112b6576112b68184866118e5565b6001600160a01b038116156112f0576112d15f855f5f6116cc565b6001600160a01b0381165f90815260036020526040902080545f190190555b6001600160a01b0385161561131e576001600160a01b0385165f908152600360205260409020805460010190555b5f8481526002602052604080822080546001600160a01b0319166001600160a01b0389811691821790925591518793918516917fddf252ad1be2c89b69c2b068fc378daa952ba7f163c4a11628f55a4df523b3ef91a4949350505050565b600780546001600160a01b038381166001600160a01b0319831681179093556040519116919082907f8be0079c531659141344cd1fd0a4f28419497f9722a3daafe3b4186f6b6457e0905f90a35050565b6001600160a01b0383166113f65760405163a9fbf51f60e01b81525f6004820152602401610678565b6001600160a01b03821661142857604051630b61174360e31b81526001600160a01b0383166004820152602401610678565b6001600160a01b038381165f81815260056020908152604080832094871680845294825291829020805460ff191686151590811790915591519182527f17307eab39ab6107e8899845ad3d59bd9653f200f220920489ca2b5937696c31910160405180910390a3505050565b6001600160a01b0383163b156115b557604051630a85bd0160e11b81526001600160a01b0384169063150b7a02906114d690889088908790879060040161209d565b6020604051808303815f875af1925050508015611510575060408051601f3d908101601f1916820190925261150d918101906120d9565b60015b611577573d80801561153d576040519150601f19603f3d011682016040523d82523d5f602084013e611542565b606091505b5080515f0361156f57604051633250574960e11b81526001600160a01b0385166004820152602401610678565b805160208201fd5b6001600160e01b03198116630a85bd0160e11b146115b357604051633250574960e11b81526001600160a01b0385166004820152602401610678565b505b5050505050565b5f8181526006602052604090208054606091906115d890611e60565b80601f016020809104026020016040519081016040528092919081815260200182805461160490611e60565b801561164f5780601f106116265761010080835404028352916020019161164f565b820191905f5260205f20905b81548152906001019060200180831161163257829003601f168201915b50505050509050919050565b6060611666826111a9565b505f61167c60408051602081019091525f815290565b90505f81511161169a5760405180602001604052805f8152506116c5565b806116a484611949565b6040516020016116b5929190611ff5565b6040516020818303038152906040525b9392505050565b80806116e057506001600160a01b03821615155b156117a1575f6116ef846111a9565b90506001600160a01b0383161580159061171b5750826001600160a01b0316816001600160a01b031614155b801561172e575061172c8184611099565b155b156117575760405163a9fbf51f60e01b81526001600160a01b0384166004820152602401610678565b811561179f5783856001600160a01b0316826001600160a01b03167f8c5be1e5ebec7d5bd14f71427d1e84f3dd0314c0f7b2291e5b200ac8c7c3b92560405160405180910390a45b505b50505f90815260046020526040902080546001600160a01b0319166001600160a01b0392909216919091179055565b6117da83836119d9565b610c17335f858585611494565b6060815f0361180d5750506040805180820190915260018152600360fc1b602082015290565b815f5b8115611836578061182081611ec7565b915061182f9050600a83612108565b9150611810565b5f8167ffffffffffffffff81111561185057611850611c8f565b6040519080825280601f01601f19166020018201604052801561187a576020820181803683370190505b5090505b8415610fdb578161188e8161211b565b925061189d9050600a86612130565b6118a8906030612143565b60f81b8183815181106118bd576118bd612156565b60200101906001600160f81b03191690815f1a9053506118de600a86612108565b945061187e565b6118f0838383611a3a565b610c17576001600160a01b03831661191e57604051637e27328960e01b815260048101829052602401610678565b60405163177e802f60e01b81526001600160a01b038316600482015260248101829052604401610678565b60605f61195583611a9b565b60010190505f8167ffffffffffffffff81111561197457611974611c8f565b6040519080825280601f01601f19166020018201604052801561199e576020820181803683370190505b5090508181016020015b5f19016f181899199a1a9b1b9c1cb0b131b232b360811b600a86061a8153600a85049450846119a857509392505050565b6001600160a01b038216611a0257604051633250574960e11b81525f6004820152602401610678565b5f611a0e83835f61128a565b90506001600160a01b03811615610c17576040516339e3563760e11b81525f6004820152602401610678565b5f6001600160a01b03831615801590610fdb5750826001600160a01b0316846001600160a01b03161480611a735750611a738484611099565b80610fdb5750505f908152600460205260409020546001600160a01b03908116911614919050565b5f8072184f03e93ff9f4daa797ed6e38ed64bf6a1f0160401b8310611ad95772184f03e93ff9f4daa797ed6e38ed64bf6a1f0160401b830492506040015b6d04ee2d6d415b85acef81000000008310611b05576d04ee2d6d415b85acef8100000000830492506020015b662386f26fc100008310611b2357662386f26fc10000830492506010015b6305f5e1008310611b3b576305f5e100830492506008015b6127108310611b4f57612710830492506004015b60648310611b61576064830492506002015b600a83106106075760010192915050565b6001600160e01b03198116811461112a575f5ffd5b5f60208284031215611b97575f5ffd5b81356116c581611b72565b80356001600160a01b0381168114611bb8575f5ffd5b919050565b5f60208284031215611bcd575f5ffd5b6116c582611ba2565b5f81518084528060208401602086015e5f602082860101526020601f19601f83011685010191505092915050565b602081525f6116c56020830184611bd6565b5f60208284031215611c26575f5ffd5b5035919050565b5f5f60408385031215611c3e575f5ffd5b611c4783611ba2565b946020939093013593505050565b5f5f5f60608486031215611c67575f5ffd5b611c7084611ba2565b9250611c7e60208501611ba2565b929592945050506040919091013590565b634e487b7160e01b5f52604160045260245ffd5b5f5f67ffffffffffffffff841115611cbd57611cbd611c8f565b50604051601f19601f85018116603f0116810181811067ffffffffffffffff82111715611cec57611cec611c8f565b604052838152905080828401851015611d03575f5ffd5b838360208301375f60208583010152509392505050565b5f60208284031215611d2a575f5ffd5b813567ffffffffffffffff811115611d40575f5ffd5b8201601f81018413611d50575f5ffd5b610fdb84823560208401611ca3565b801515811461112a575f5ffd5b5f5f60408385031215611d7d575f5ffd5b611d8683611ba2565b91506020830135611d9681611d5f565b809150509250929050565b5f5f5f5f60808587031215611db4575f5ffd5b611dbd85611ba2565b9350611dcb60208601611ba2565b925060408501359150606085013567ffffffffffffffff811115611ded575f5ffd5b8501601f81018713611dfd575f5ffd5b611e0c87823560208401611ca3565b91505092959194509250565b5f5f60408385031215611e29575f5ffd5b611e3283611ba2565b9150611e4060208401611ba2565b90509250929050565b5f60208284031215611e59575f5ffd5b5051919050565b600181811c90821680611e7457607f821691505b602082108103611e9257634e487b7160e01b5f52602260045260245ffd5b50919050565b5f60208284031215611ea8575f5ffd5b81516116c581611d5f565b634e487b7160e01b5f52601160045260245ffd5b5f60018201611ed857611ed8611eb3565b5060010190565b601f821115610c1757805f5260205f20601f840160051c81016020851015611f045750805b601f840160051c820191505b818110156115b5575f8155600101611f10565b815167ffffffffffffffff811115611f3d57611f3d611c8f565b611f5181611f4b8454611e60565b84611edf565b6020601f821160018114611f83575f8315611f6c5750848201515b5f19600385901b1c1916600184901b1784556115b5565b5f84815260208120601f198516915b82811015611fb25787850151825560209485019460019092019101611f92565b5084821015611fcf57868401515f19600387901b60f8161c191681555b50505050600190811b01905550565b5f81518060208401855e5f93019283525090919050565b5f610fdb6120038386611fde565b84611fde565b5f5f845461201681611e60565b60018216801561202d57600181146120425761206f565b60ff198316865281151582028601935061206f565b875f5260205f205f5b838110156120675781548882015260019091019060200161204b565b505081860193505b505050602f60f81b81526120866001820185611fde565b64173539b7b760d91b815260050195945050505050565b6001600160a01b03858116825284166020820152604081018390526080606082018190525f906120cf90830184611bd6565b9695505050505050565b5f602082840312156120e9575f5ffd5b81516116c581611b72565b634e487b7160e01b5f52601260045260245ffd5b5f82612116576121166120f4565b500490565b5f8161212957612129611eb3565b505f190190565b5f8261213e5761213e6120f4565b500690565b8082018082111561060757610607611eb3565b634e487b7160e01b5f52603260045260245ffdfea264697066735822122021d0798c54fdd1ebac8566cdb8a6018cd5561509bc0c5bc5464d680836ceacac64736f6c634300081c0033","opcodes":"PUSH1 0xC0 PUSH1 0x40 MSTORE CALLVALUE DUP1 ISZERO PUSH2 0xF JUMPI PUSH0 PUSH0 REVERT JUMPDEST POP PUSH1 0x40 MLOAD PUSH2 0x257B CODESIZE SUB DUP1 PUSH2 0x257B DUP4 CODECOPY DUP2 ADD PUSH1 0x40 DUP2 SWAP1 MSTORE PUSH2 0x2E SWAP2 PUSH2 0x185 JUMP JUMPDEST CALLER PUSH1 0x40 MLOAD DUP1 PUSH1 0x40 ADD PUSH1 0x40 MSTORE DUP1 PUSH1 0xA DUP2 MSTORE PUSH1 0x20 ADD PUSH10 0x4D6173746572204B6579 PUSH1 0xB0 SHL DUP2 MSTORE POP PUSH1 0x40 MLOAD DUP1 PUSH1 0x40 ADD PUSH1 0x40 MSTORE DUP1 PUSH1 0x4 DUP2 MSTORE PUSH1 0x20 ADD PUSH4 0x4D4B4559 PUSH1 0xE0 SHL DUP2 MSTORE POP DUP2 PUSH0 SWAP1 DUP2 PUSH2 0x7D SWAP2 SWAP1 PUSH2 0x2EB JUMP JUMPDEST POP PUSH1 0x1 PUSH2 0x8A DUP3 DUP3 PUSH2 0x2EB JUMP JUMPDEST POP POP POP PUSH1 0x1 PUSH1 0x1 PUSH1 0xA0 SHL SUB DUP2 AND PUSH2 0xBA JUMPI PUSH1 0x40 MLOAD PUSH4 0x1E4FBDF7 PUSH1 0xE0 SHL DUP2 MSTORE PUSH0 PUSH1 0x4 DUP3 ADD MSTORE PUSH1 0x24 ADD PUSH1 0x40 MLOAD DUP1 SWAP2 SUB SWAP1 REVERT JUMPDEST PUSH2 0xC3 DUP2 PUSH2 0x105 JUMP JUMPDEST POP PUSH1 0x1 PUSH1 0x1 PUSH1 0xA0 SHL SUB DUP5 DUP2 AND PUSH1 0x80 MSTORE DUP4 DUP2 AND PUSH1 0xA0 MSTORE PUSH1 0x9 DUP1 SLOAD PUSH1 0x1 PUSH1 0x1 PUSH1 0xA0 SHL SUB NOT AND SWAP2 DUP5 AND SWAP2 SWAP1 SWAP2 OR SWAP1 SSTORE PUSH1 0xB PUSH2 0xFB DUP3 DUP3 PUSH2 0x2EB JUMP JUMPDEST POP POP POP POP POP PUSH2 0x3A5 JUMP JUMPDEST PUSH1 0x7 DUP1 SLOAD PUSH1 0x1 PUSH1 0x1 PUSH1 0xA0 SHL SUB DUP4 DUP2 AND PUSH1 0x1 PUSH1 0x1 PUSH1 0xA0 SHL SUB NOT DUP4 AND DUP2 OR SWAP1 SWAP4 SSTORE PUSH1 0x40 MLOAD SWAP2 AND SWAP2 SWAP1 DUP3 SWAP1 PUSH32 0x8BE0079C531659141344CD1FD0A4F28419497F9722A3DAAFE3B4186F6B6457E0 SWAP1 PUSH0 SWAP1 LOG3 POP POP JUMP JUMPDEST DUP1 MLOAD PUSH1 0x1 PUSH1 0x1 PUSH1 0xA0 SHL SUB DUP2 AND DUP2 EQ PUSH2 0x16C JUMPI PUSH0 PUSH0 REVERT JUMPDEST SWAP2 SWAP1 POP JUMP JUMPDEST PUSH4 0x4E487B71 PUSH1 0xE0 SHL PUSH0 MSTORE PUSH1 0x41 PUSH1 0x4 MSTORE PUSH1 0x24 PUSH0 REVERT JUMPDEST PUSH0 PUSH0 PUSH0 PUSH0 PUSH1 0x80 DUP6 DUP8 SUB SLT ISZERO PUSH2 0x198 JUMPI PUSH0 PUSH0 REVERT JUMPDEST PUSH2 0x1A1 DUP6 PUSH2 0x156 JUMP JUMPDEST SWAP4 POP PUSH2 0x1AF PUSH1 0x20 DUP7 ADD PUSH2 0x156 JUMP JUMPDEST SWAP3 POP PUSH2 0x1BD PUSH1 0x40 DUP7 ADD PUSH2 0x156 JUMP JUMPDEST PUSH1 0x60 DUP7 ADD MLOAD SWAP1 SWAP3 POP PUSH1 0x1 PUSH1 0x1 PUSH1 0x40 SHL SUB DUP2 GT ISZERO PUSH2 0x1D8 JUMPI PUSH0 PUSH0 REVERT JUMPDEST DUP6 ADD PUSH1 0x1F DUP2 ADD DUP8 SGT PUSH2 0x1E8 JUMPI PUSH0 PUSH0 REVERT JUMPDEST DUP1 MLOAD PUSH1 0x1 PUSH1 0x1 PUSH1 0x40 SHL SUB DUP2 GT ISZERO PUSH2 0x201 JUMPI PUSH2 0x201 PUSH2 0x171 JUMP JUMPDEST PUSH1 0x40 MLOAD PUSH1 0x1F DUP3 ADD PUSH1 0x1F NOT SWAP1 DUP2 AND PUSH1 0x3F ADD AND DUP2 ADD PUSH1 0x1 PUSH1 0x1 PUSH1 0x40 SHL SUB DUP2 GT DUP3 DUP3 LT OR ISZERO PUSH2 0x22F JUMPI PUSH2 0x22F PUSH2 0x171 JUMP JUMPDEST PUSH1 0x40 MSTORE DUP2 DUP2 MSTORE DUP3 DUP3 ADD PUSH1 0x20 ADD DUP10 LT ISZERO PUSH2 0x246 JUMPI PUSH0 PUSH0 REVERT JUMPDEST DUP2 PUSH1 0x20 DUP5 ADD PUSH1 0x20 DUP4 ADD MCOPY PUSH0 PUSH1 0x20 DUP4 DUP4 ADD ADD MSTORE DUP1 SWAP4 POP POP POP POP SWAP3 SWAP6 SWAP2 SWAP5 POP SWAP3 POP JUMP JUMPDEST PUSH1 0x1 DUP2 DUP2 SHR SWAP1 DUP3 AND DUP1 PUSH2 0x27B JUMPI PUSH1 0x7F DUP3 AND SWAP2 POP JUMPDEST PUSH1 0x20 DUP3 LT DUP2 SUB PUSH2 0x299 JUMPI PUSH4 0x4E487B71 PUSH1 0xE0 SHL PUSH0 MSTORE PUSH1 0x22 PUSH1 0x4 MSTORE PUSH1 0x24 PUSH0 REVERT JUMPDEST POP SWAP2 SWAP1 POP JUMP JUMPDEST PUSH1 0x1F DUP3 GT ISZERO PUSH2 0x2E6 JUMPI DUP1 PUSH0 MSTORE PUSH1 0x20 PUSH0 KECCAK256 PUSH1 0x1F DUP5 ADD PUSH1 0x5 SHR DUP2 ADD PUSH1 0x20 DUP6 LT ISZERO PUSH2 0x2C4 JUMPI POP DUP1 JUMPDEST PUSH1 0x1F DUP5 ADD PUSH1 0x5 SHR DUP3 ADD SWAP2 POP JUMPDEST DUP2 DUP2 LT ISZERO PUSH2 0x2E3 JUMPI PUSH0 DUP2 SSTORE PUSH1 0x1 ADD PUSH2 0x2D0 JUMP JUMPDEST POP POP JUMPDEST POP POP POP JUMP JUMPDEST DUP2 MLOAD PUSH1 0x1 PUSH1 0x1 PUSH1 0x40 SHL SUB DUP2 GT ISZERO PUSH2 0x304 JUMPI PUSH2 0x304 PUSH2 0x171 JUMP JUMPDEST PUSH2 0x318 DUP2 PUSH2 0x312 DUP5 SLOAD PUSH2 0x267 JUMP JUMPDEST DUP5 PUSH2 0x29F JUMP JUMPDEST PUSH1 0x20 PUSH1 0x1F DUP3 GT PUSH1 0x1 DUP2 EQ PUSH2 0x34A JUMPI PUSH0 DUP4 ISZERO PUSH2 0x333 JUMPI POP DUP5 DUP3 ADD MLOAD JUMPDEST PUSH0 NOT PUSH1 0x3 DUP6 SWAP1 SHL SHR NOT AND PUSH1 0x1 DUP5 SWAP1 SHL OR DUP5 SSTORE PUSH2 0x2E3 JUMP JUMPDEST PUSH0 DUP5 DUP2 MSTORE PUSH1 0x20 DUP2 KECCAK256 PUSH1 0x1F NOT DUP6 AND SWAP2 JUMPDEST DUP3 DUP2 LT ISZERO PUSH2 0x379 JUMPI DUP8 DUP6 ADD MLOAD DUP3 SSTORE PUSH1 0x20 SWAP5 DUP6 ADD SWAP5 PUSH1 0x1 SWAP1 SWAP3 ADD SWAP2 ADD PUSH2 0x359 JUMP JUMPDEST POP DUP5 DUP3 LT ISZERO PUSH2 0x396 JUMPI DUP7 DUP5 ADD MLOAD PUSH0 NOT PUSH1 0x3 DUP8 SWAP1 SHL PUSH1 0xF8 AND SHR NOT AND DUP2 SSTORE JUMPDEST POP POP POP POP PUSH1 0x1 SWAP1 DUP2 SHL ADD SWAP1 SSTORE POP JUMP JUMPDEST PUSH1 0x80 MLOAD PUSH1 0xA0 MLOAD PUSH2 0x21A0 PUSH2 0x3DB PUSH0 CODECOPY PUSH0 DUP2 DUP2 PUSH2 0x4DC ADD MSTORE DUP2 DUP2 PUSH2 0x8D6 ADD MSTORE PUSH2 0xCA7 ADD MSTORE PUSH0 DUP2 DUP2 PUSH2 0x36E ADD MSTORE PUSH2 0xA4A ADD MSTORE PUSH2 0x21A0 PUSH0 RETURN INVALID PUSH1 0x80 PUSH1 0x40 MSTORE PUSH1 0x4 CALLDATASIZE LT PUSH2 0x1DB JUMPI PUSH0 CALLDATALOAD PUSH1 0xE0 SHR DUP1 PUSH4 0x715018A6 GT PUSH2 0xFD JUMPI DUP1 PUSH4 0xB88D4FDE GT PUSH2 0x92 JUMPI DUP1 PUSH4 0xDD2AF79D GT PUSH2 0x62 JUMPI DUP1 PUSH4 0xDD2AF79D EQ PUSH2 0x567 JUMPI DUP1 PUSH4 0xE985E9C5 EQ PUSH2 0x586 JUMPI DUP1 PUSH4 0xF0F44260 EQ PUSH2 0x5A5 JUMPI DUP1 PUSH4 0xF2FDE38B EQ PUSH2 0x5C4 JUMPI PUSH0 PUSH0 REVERT JUMPDEST DUP1 PUSH4 0xB88D4FDE EQ PUSH2 0x4FE JUMPI DUP1 PUSH4 0xC4F84D28 EQ PUSH2 0x51D JUMPI DUP1 PUSH4 0xC87B56DD EQ PUSH2 0x534 JUMPI DUP1 PUSH4 0xD547CFB7 EQ PUSH2 0x553 JUMPI PUSH0 PUSH0 REVERT JUMPDEST DUP1 PUSH4 0x9FDD207F GT PUSH2 0xCD JUMPI DUP1 PUSH4 0x9FDD207F EQ PUSH2 0x478 JUMPI DUP1 PUSH4 0xA22CB465 EQ PUSH2 0x497 JUMPI DUP1 PUSH4 0xA2309FF8 EQ PUSH2 0x4B6 JUMPI DUP1 PUSH4 0xA56100B5 EQ PUSH2 0x4CB JUMPI PUSH0 PUSH0 REVERT JUMPDEST DUP1 PUSH4 0x715018A6 EQ PUSH2 0x42B JUMPI DUP1 PUSH4 0x8DA5CB5B EQ PUSH2 0x43F JUMPI DUP1 PUSH4 0x8F2AEF5B EQ PUSH2 0x45C JUMPI DUP1 PUSH4 0x95D89B41 EQ PUSH2 0x464 JUMPI PUSH0 PUSH0 REVERT JUMPDEST DUP1 PUSH4 0x32CB6B0C GT PUSH2 0x173 JUMPI DUP1 PUSH4 0x55F804B3 GT PUSH2 0x143 JUMPI DUP1 PUSH4 0x55F804B3 EQ PUSH2 0x3AF JUMPI DUP1 PUSH4 0x61D027B3 EQ PUSH2 0x3CE JUMPI DUP1 PUSH4 0x6352211E EQ PUSH2 0x3ED JUMPI DUP1 PUSH4 0x70A08231 EQ PUSH2 0x40C JUMPI PUSH0 PUSH0 REVERT JUMPDEST DUP1 PUSH4 0x32CB6B0C EQ PUSH2 0x30C JUMPI DUP1 PUSH4 0x38E21CCE EQ PUSH2 0x32F JUMPI DUP1 PUSH4 0x3E413BEE EQ PUSH2 0x35D JUMPI DUP1 PUSH4 0x42842E0E EQ PUSH2 0x390 JUMPI PUSH0 PUSH0 REVERT JUMPDEST DUP1 PUSH4 0x95EA7B3 GT PUSH2 0x1AE JUMPI DUP1 PUSH4 0x95EA7B3 EQ PUSH2 0x28C JUMPI DUP1 PUSH4 0xA69E8B5 EQ PUSH2 0x2AB JUMPI DUP1 PUSH4 0x1249C58B EQ PUSH2 0x2D9 JUMPI DUP1 PUSH4 0x23B872DD EQ PUSH2 0x2ED JUMPI PUSH0 PUSH0 REVERT JUMPDEST DUP1 PUSH4 0x1FFC9A7 EQ PUSH2 0x1DF JUMPI DUP1 PUSH4 0x4CD2E6F EQ PUSH2 0x213 JUMPI DUP1 PUSH4 0x6FDDE03 EQ PUSH2 0x234 JUMPI DUP1 PUSH4 0x81812FC EQ PUSH2 0x255 JUMPI JUMPDEST PUSH0 PUSH0 REVERT JUMPDEST CALLVALUE DUP1 ISZERO PUSH2 0x1EA JUMPI PUSH0 PUSH0 REVERT JUMPDEST POP PUSH2 0x1FE PUSH2 0x1F9 CALLDATASIZE PUSH1 0x4 PUSH2 0x1B87 JUMP JUMPDEST PUSH2 0x5E3 JUMP JUMPDEST PUSH1 0x40 MLOAD SWAP1 ISZERO ISZERO DUP2 MSTORE PUSH1 0x20 ADD JUMPDEST PUSH1 0x40 MLOAD DUP1 SWAP2 SUB SWAP1 RETURN JUMPDEST CALLVALUE DUP1 ISZERO PUSH2 0x21E JUMPI PUSH0 PUSH0 REVERT JUMPDEST POP PUSH2 0x232 PUSH2 0x22D CALLDATASIZE PUSH1 0x4 PUSH2 0x1BBD JUMP JUMPDEST PUSH2 0x60D JUMP JUMPDEST STOP JUMPDEST CALLVALUE DUP1 ISZERO PUSH2 0x23F JUMPI PUSH0 PUSH0 REVERT JUMPDEST POP PUSH2 0x248 PUSH2 0x7FC JUMP JUMPDEST PUSH1 0x40 MLOAD PUSH2 0x20A SWAP2 SWAP1 PUSH2 0x1C04 JUMP JUMPDEST CALLVALUE DUP1 ISZERO PUSH2 0x260 JUMPI PUSH0 PUSH0 REVERT JUMPDEST POP PUSH2 0x274 PUSH2 0x26F CALLDATASIZE PUSH1 0x4 PUSH2 0x1C16 JUMP JUMPDEST PUSH2 0x88B JUMP JUMPDEST PUSH1 0x40 MLOAD PUSH1 0x1 PUSH1 0x1 PUSH1 0xA0 SHL SUB SWAP1 SWAP2 AND DUP2 MSTORE PUSH1 0x20 ADD PUSH2 0x20A JUMP JUMPDEST CALLVALUE DUP1 ISZERO PUSH2 0x297 JUMPI PUSH0 PUSH0 REVERT JUMPDEST POP PUSH2 0x232 PUSH2 0x2A6 CALLDATASIZE PUSH1 0x4 PUSH2 0x1C2D JUMP JUMPDEST PUSH2 0x8B2 JUMP JUMPDEST CALLVALUE DUP1 ISZERO PUSH2 0x2B6 JUMPI PUSH0 PUSH0 REVERT JUMPDEST POP PUSH2 0x1FE PUSH2 0x2C5 CALLDATASIZE PUSH1 0x4 PUSH2 0x1BBD JUMP JUMPDEST PUSH1 0xD PUSH1 0x20 MSTORE PUSH0 SWAP1 DUP2 MSTORE PUSH1 0x40 SWAP1 KECCAK256 SLOAD PUSH1 0xFF AND DUP2 JUMP JUMPDEST CALLVALUE DUP1 ISZERO PUSH2 0x2E4 JUMPI PUSH0 PUSH0 REVERT JUMPDEST POP PUSH2 0x232 PUSH2 0x8C1 JUMP JUMPDEST CALLVALUE DUP1 ISZERO PUSH2 0x2F8 JUMPI PUSH0 PUSH0 REVERT JUMPDEST POP PUSH2 0x232 PUSH2 0x307 CALLDATASIZE PUSH1 0x4 PUSH2 0x1C55 JUMP JUMPDEST PUSH2 0xB74 JUMP JUMPDEST CALLVALUE DUP1 ISZERO PUSH2 0x317 JUMPI PUSH0 PUSH0 REVERT JUMPDEST POP PUSH2 0x321 PUSH2 0x29A DUP2 JUMP JUMPDEST PUSH1 0x40 MLOAD SWAP1 DUP2 MSTORE PUSH1 0x20 ADD PUSH2 0x20A JUMP JUMPDEST CALLVALUE DUP1 ISZERO PUSH2 0x33A JUMPI PUSH0 PUSH0 REVERT JUMPDEST POP PUSH2 0x1FE PUSH2 0x349 CALLDATASIZE PUSH1 0x4 PUSH2 0x1BBD JUMP JUMPDEST PUSH1 0xC PUSH1 0x20 MSTORE PUSH0 SWAP1 DUP2 MSTORE PUSH1 0x40 SWAP1 KECCAK256 SLOAD PUSH1 0xFF AND DUP2 JUMP JUMPDEST CALLVALUE DUP1 ISZERO PUSH2 0x368 JUMPI PUSH0 PUSH0 REVERT JUMPDEST POP PUSH2 0x274 PUSH32 0x0 DUP2 JUMP JUMPDEST CALLVALUE DUP1 ISZERO PUSH2 0x39B JUMPI PUSH0 PUSH0 REVERT JUMPDEST POP PUSH2 0x232 PUSH2 0x3AA CALLDATASIZE PUSH1 0x4 PUSH2 0x1C55 JUMP JUMPDEST PUSH2 0xBFD JUMP JUMPDEST CALLVALUE DUP1 ISZERO PUSH2 0x3BA JUMPI PUSH0 PUSH0 REVERT JUMPDEST POP PUSH2 0x232 PUSH2 0x3C9 CALLDATASIZE PUSH1 0x4 PUSH2 0x1D1A JUMP JUMPDEST PUSH2 0xC1C JUMP JUMPDEST CALLVALUE DUP1 ISZERO PUSH2 0x3D9 JUMPI PUSH0 PUSH0 REVERT JUMPDEST POP PUSH1 0x9 SLOAD PUSH2 0x274 SWAP1 PUSH1 0x1 PUSH1 0x1 PUSH1 0xA0 SHL SUB AND DUP2 JUMP JUMPDEST CALLVALUE DUP1 ISZERO PUSH2 0x3F8 JUMPI PUSH0 PUSH0 REVERT JUMPDEST POP PUSH2 0x274 PUSH2 0x407 CALLDATASIZE PUSH1 0x4 PUSH2 0x1C16 JUMP JUMPDEST PUSH2 0xC30 JUMP JUMPDEST CALLVALUE DUP1 ISZERO PUSH2 0x417 JUMPI PUSH0 PUSH0 REVERT JUMPDEST POP PUSH2 0x321 PUSH2 0x426 CALLDATASIZE PUSH1 0x4 PUSH2 0x1BBD JUMP JUMPDEST PUSH2 0xC3A JUMP JUMPDEST CALLVALUE DUP1 ISZERO PUSH2 0x436 JUMPI PUSH0 PUSH0 REVERT JUMPDEST POP PUSH2 0x232 PUSH2 0xC7F JUMP JUMPDEST CALLVALUE DUP1 ISZERO PUSH2 0x44A JUMPI PUSH0 PUSH0 REVERT JUMPDEST POP PUSH1 0x7 SLOAD PUSH1 0x1 PUSH1 0x1 PUSH1 0xA0 SHL SUB AND PUSH2 0x274 JUMP JUMPDEST PUSH2 0x232 PUSH2 0xC92 JUMP JUMPDEST CALLVALUE DUP1 ISZERO PUSH2 0x46F JUMPI PUSH0 PUSH0 REVERT JUMPDEST POP PUSH2 0x248 PUSH2 0xF30 JUMP JUMPDEST CALLVALUE DUP1 ISZERO PUSH2 0x483 JUMPI PUSH0 PUSH0 REVERT JUMPDEST POP PUSH1 0x8 SLOAD PUSH2 0x274 SWAP1 PUSH1 0x1 PUSH1 0x1 PUSH1 0xA0 SHL SUB AND DUP2 JUMP JUMPDEST CALLVALUE DUP1 ISZERO PUSH2 0x4A2 JUMPI PUSH0 PUSH0 REVERT JUMPDEST POP PUSH2 0x232 PUSH2 0x4B1 CALLDATASIZE PUSH1 0x4 PUSH2 0x1D6C JUMP JUMPDEST PUSH2 0xF3F JUMP JUMPDEST CALLVALUE DUP1 ISZERO PUSH2 0x4C1 JUMPI PUSH0 PUSH0 REVERT JUMPDEST POP PUSH2 0x321 PUSH1 0xA SLOAD DUP2 JUMP JUMPDEST CALLVALUE DUP1 ISZERO PUSH2 0x4D6 JUMPI PUSH0 PUSH0 REVERT JUMPDEST POP PUSH2 0x274 PUSH32 0x0 DUP2 JUMP JUMPDEST CALLVALUE DUP1 ISZERO PUSH2 0x509 JUMPI PUSH0 PUSH0 REVERT JUMPDEST POP PUSH2 0x232 PUSH2 0x518 CALLDATASIZE PUSH1 0x4 PUSH2 0x1DA1 JUMP JUMPDEST PUSH2 0xF4A JUMP JUMPDEST CALLVALUE DUP1 ISZERO PUSH2 0x528 JUMPI PUSH0 PUSH0 REVERT JUMPDEST POP PUSH2 0x321 PUSH4 0x3EF1480 DUP2 JUMP JUMPDEST CALLVALUE DUP1 ISZERO PUSH2 0x53F JUMPI PUSH0 PUSH0 REVERT JUMPDEST POP PUSH2 0x248 PUSH2 0x54E CALLDATASIZE PUSH1 0x4 PUSH2 0x1C16 JUMP JUMPDEST PUSH2 0xF62 JUMP JUMPDEST CALLVALUE DUP1 ISZERO PUSH2 0x55E JUMPI PUSH0 PUSH0 REVERT JUMPDEST POP PUSH2 0x248 PUSH2 0xFE3 JUMP JUMPDEST CALLVALUE DUP1 ISZERO PUSH2 0x572 JUMPI PUSH0 PUSH0 REVERT JUMPDEST POP PUSH2 0x232 PUSH2 0x581 CALLDATASIZE PUSH1 0x4 PUSH2 0x1BBD JUMP JUMPDEST PUSH2 0x106F JUMP JUMPDEST CALLVALUE DUP1 ISZERO PUSH2 0x591 JUMPI PUSH0 PUSH0 REVERT JUMPDEST POP PUSH2 0x1FE PUSH2 0x5A0 CALLDATASIZE PUSH1 0x4 PUSH2 0x1E18 JUMP JUMPDEST PUSH2 0x1099 JUMP JUMPDEST CALLVALUE DUP1 ISZERO PUSH2 0x5B0 JUMPI PUSH0 PUSH0 REVERT JUMPDEST POP PUSH2 0x232 PUSH2 0x5BF CALLDATASIZE PUSH1 0x4 PUSH2 0x1BBD JUMP JUMPDEST PUSH2 0x10C6 JUMP JUMPDEST CALLVALUE DUP1 ISZERO PUSH2 0x5CF JUMPI PUSH0 PUSH0 REVERT JUMPDEST POP PUSH2 0x232 PUSH2 0x5DE CALLDATASIZE PUSH1 0x4 PUSH2 0x1BBD JUMP JUMPDEST PUSH2 0x10F0 JUMP JUMPDEST PUSH0 PUSH1 0x1 PUSH1 0x1 PUSH1 0xE0 SHL SUB NOT DUP3 AND PUSH4 0x24832483 PUSH1 0xE1 SHL EQ DUP1 PUSH2 0x607 JUMPI POP PUSH2 0x607 DUP3 PUSH2 0x112D JUMP JUMPDEST SWAP3 SWAP2 POP POP JUMP JUMPDEST PUSH2 0x615 PUSH2 0x117C JUMP JUMPDEST PUSH1 0x1 PUSH1 0x1 PUSH1 0xA0 SHL SUB DUP2 AND PUSH0 SWAP1 DUP2 MSTORE PUSH1 0xC PUSH1 0x20 MSTORE PUSH1 0x40 SWAP1 KECCAK256 SLOAD PUSH1 0xFF AND PUSH2 0x681 JUMPI PUSH1 0x40 MLOAD PUSH3 0x461BCD PUSH1 0xE5 SHL DUP2 MSTORE PUSH1 0x20 PUSH1 0x4 DUP3 ADD MSTORE PUSH1 0x17 PUSH1 0x24 DUP3 ADD MSTORE PUSH32 0x4E6F742061206D6173746572206B657920686F6C646572000000000000000000 PUSH1 0x44 DUP3 ADD MSTORE PUSH1 0x64 ADD JUMPDEST PUSH1 0x40 MLOAD DUP1 SWAP2 SUB SWAP1 REVERT JUMPDEST PUSH1 0x1 PUSH1 0x1 PUSH1 0xA0 SHL SUB DUP2 AND PUSH0 SWAP1 DUP2 MSTORE PUSH1 0xD PUSH1 0x20 MSTORE PUSH1 0x40 SWAP1 KECCAK256 SLOAD PUSH1 0xFF AND ISZERO PUSH2 0x6DD JUMPI PUSH1 0x40 MLOAD PUSH3 0x461BCD PUSH1 0xE5 SHL DUP2 MSTORE PUSH1 0x20 PUSH1 0x4 DUP3 ADD MSTORE PUSH1 0x11 PUSH1 0x24 DUP3 ADD MSTORE PUSH17 0x105B1C9958591E4818DBDB5C1B195D1959 PUSH1 0x7A SHL PUSH1 0x44 DUP3 ADD MSTORE PUSH1 0x64 ADD PUSH2 0x678 JUMP JUMPDEST PUSH1 0x8 SLOAD PUSH1 0x1 PUSH1 0x1 PUSH1 0xA0 SHL SUB AND PUSH2 0x72B JUMPI PUSH1 0x40 MLOAD PUSH3 0x461BCD PUSH1 0xE5 SHL DUP2 MSTORE PUSH1 0x20 PUSH1 0x4 DUP3 ADD MSTORE PUSH1 0x13 PUSH1 0x24 DUP3 ADD MSTORE PUSH19 0x15985D5B1D131959D95B99081B9BDD081CD95D PUSH1 0x6A SHL PUSH1 0x44 DUP3 ADD MSTORE PUSH1 0x64 ADD PUSH2 0x678 JUMP JUMPDEST PUSH1 0x1 PUSH1 0x1 PUSH1 0xA0 SHL SUB DUP2 DUP2 AND PUSH0 DUP2 DUP2 MSTORE PUSH1 0xD PUSH1 0x20 MSTORE PUSH1 0x40 DUP1 DUP3 KECCAK256 DUP1 SLOAD PUSH1 0xFF NOT AND PUSH1 0x1 OR SWAP1 SSTORE PUSH1 0x8 SLOAD SWAP1 MLOAD PUSH4 0x31CE992F PUSH1 0xE0 SHL DUP2 MSTORE PUSH1 0x4 DUP2 ADD SWAP4 SWAP1 SWAP4 MSTORE SWAP1 SWAP3 AND SWAP1 PUSH4 0x31CE992F SWAP1 PUSH1 0x24 ADD PUSH1 0x20 PUSH1 0x40 MLOAD DUP1 DUP4 SUB DUP2 PUSH0 DUP8 GAS CALL ISZERO DUP1 ISZERO PUSH2 0x78F JUMPI RETURNDATASIZE PUSH0 PUSH0 RETURNDATACOPY RETURNDATASIZE PUSH0 REVERT JUMPDEST POP POP POP POP PUSH1 0x40 MLOAD RETURNDATASIZE PUSH1 0x1F NOT PUSH1 0x1F DUP3 ADD AND DUP3 ADD DUP1 PUSH1 0x40 MSTORE POP DUP2 ADD SWAP1 PUSH2 0x7B3 SWAP2 SWAP1 PUSH2 0x1E49 JUMP JUMPDEST SWAP1 POP DUP2 PUSH1 0x1 PUSH1 0x1 PUSH1 0xA0 SHL SUB AND PUSH32 0x64FB6099887EEB3A933EBF379A9442ABEF1DE568082A409941892F26EF37D819 DUP3 PUSH1 0x40 MLOAD PUSH2 0x7F0 SWAP2 DUP2 MSTORE PUSH1 0x20 ADD SWAP1 JUMP JUMPDEST PUSH1 0x40 MLOAD DUP1 SWAP2 SUB SWAP1 LOG2 POP POP JUMP JUMPDEST PUSH1 0x60 PUSH0 DUP1 SLOAD PUSH2 0x80A SWAP1 PUSH2 0x1E60 JUMP JUMPDEST DUP1 PUSH1 0x1F ADD PUSH1 0x20 DUP1 SWAP2 DIV MUL PUSH1 0x20 ADD PUSH1 0x40 MLOAD SWAP1 DUP2 ADD PUSH1 0x40 MSTORE DUP1 SWAP3 SWAP2 SWAP1 DUP2 DUP2 MSTORE PUSH1 0x20 ADD DUP3 DUP1 SLOAD PUSH2 0x836 SWAP1 PUSH2 0x1E60 JUMP JUMPDEST DUP1 ISZERO PUSH2 0x881 JUMPI DUP1 PUSH1 0x1F LT PUSH2 0x858 JUMPI PUSH2 0x100 DUP1 DUP4 SLOAD DIV MUL DUP4 MSTORE SWAP2 PUSH1 0x20 ADD SWAP2 PUSH2 0x881 JUMP JUMPDEST DUP3 ADD SWAP2 SWAP1 PUSH0 MSTORE PUSH1 0x20 PUSH0 KECCAK256 SWAP1 JUMPDEST DUP2 SLOAD DUP2 MSTORE SWAP1 PUSH1 0x1 ADD SWAP1 PUSH1 0x20 ADD DUP1 DUP4 GT PUSH2 0x864 JUMPI DUP3 SWAP1 SUB PUSH1 0x1F AND DUP3 ADD SWAP2 JUMPDEST POP POP POP POP POP SWAP1 POP SWAP1 JUMP JUMPDEST PUSH0 PUSH2 0x895 DUP3 PUSH2 0x11A9 JUMP JUMPDEST POP PUSH0 DUP3 DUP2 MSTORE PUSH1 0x4 PUSH1 0x20 MSTORE PUSH1 0x40 SWAP1 KECCAK256 SLOAD PUSH1 0x1 PUSH1 0x1 PUSH1 0xA0 SHL SUB AND PUSH2 0x607 JUMP JUMPDEST PUSH2 0x8BD DUP3 DUP3 CALLER PUSH2 0x11E1 JUMP JUMPDEST POP POP JUMP JUMPDEST PUSH1 0x40 MLOAD PUSH4 0x1C710E67 PUSH1 0xE1 SHL DUP2 MSTORE CALLER PUSH1 0x4 DUP3 ADD MSTORE PUSH32 0x0 PUSH1 0x1 PUSH1 0x1 PUSH1 0xA0 SHL SUB AND SWAP1 PUSH4 0x38E21CCE SWAP1 PUSH1 0x24 ADD PUSH1 0x20 PUSH1 0x40 MLOAD DUP1 DUP4 SUB DUP2 DUP7 GAS STATICCALL ISZERO DUP1 ISZERO PUSH2 0x923 JUMPI RETURNDATASIZE PUSH0 PUSH0 RETURNDATACOPY RETURNDATASIZE PUSH0 REVERT JUMPDEST POP POP POP POP PUSH1 0x40 MLOAD RETURNDATASIZE PUSH1 0x1F NOT PUSH1 0x1F DUP3 ADD AND DUP3 ADD DUP1 PUSH1 0x40 MSTORE POP DUP2 ADD SWAP1 PUSH2 0x947 SWAP2 SWAP1 PUSH2 0x1E98 JUMP JUMPDEST PUSH2 0x98A JUMPI PUSH1 0x40 MLOAD PUSH3 0x461BCD PUSH1 0xE5 SHL DUP2 MSTORE PUSH1 0x20 PUSH1 0x4 DUP3 ADD MSTORE PUSH1 0x14 PUSH1 0x24 DUP3 ADD MSTORE PUSH20 0x139959590815985D5B1D0812D95E48199A5C9CDD PUSH1 0x62 SHL PUSH1 0x44 DUP3 ADD MSTORE PUSH1 0x64 ADD PUSH2 0x678 JUMP JUMPDEST CALLER PUSH0 SWAP1 DUP2 MSTORE PUSH1 0xC PUSH1 0x20 MSTORE PUSH1 0x40 SWAP1 KECCAK256 SLOAD PUSH1 0xFF AND ISZERO PUSH2 0x9DA JUMPI PUSH1 0x40 MLOAD PUSH3 0x461BCD PUSH1 0xE5 SHL DUP2 MSTORE PUSH1 0x20 PUSH1 0x4 DUP3 ADD MSTORE PUSH1 0xE PUSH1 0x24 DUP3 ADD MSTORE PUSH14 0x105B1C9958591E481B5A5B9D1959 PUSH1 0x92 SHL PUSH1 0x44 DUP3 ADD MSTORE PUSH1 0x64 ADD PUSH2 0x678 JUMP JUMPDEST PUSH2 0x29A PUSH1 0xA SLOAD LT PUSH2 0xA18 JUMPI PUSH1 0x40 MLOAD PUSH3 0x461BCD PUSH1 0xE5 SHL DUP2 MSTORE PUSH1 0x20 PUSH1 0x4 DUP3 ADD MSTORE PUSH1 0x8 PUSH1 0x24 DUP3 ADD MSTORE PUSH8 0x14DBDB19081BDD5D PUSH1 0xC2 SHL PUSH1 0x44 DUP3 ADD MSTORE PUSH1 0x64 ADD PUSH2 0x678 JUMP JUMPDEST PUSH1 0x9 SLOAD PUSH1 0x40 MLOAD PUSH4 0x23B872DD PUSH1 0xE0 SHL DUP2 MSTORE CALLER PUSH1 0x4 DUP3 ADD MSTORE PUSH1 0x1 PUSH1 0x1 PUSH1 0xA0 SHL SUB SWAP2 DUP3 AND PUSH1 0x24 DUP3 ADD MSTORE PUSH4 0x3EF1480 PUSH1 0x44 DUP3 ADD MSTORE PUSH32 0x0 SWAP1 SWAP2 AND SWAP1 PUSH4 0x23B872DD SWAP1 PUSH1 0x64 ADD PUSH1 0x20 PUSH1 0x40 MLOAD DUP1 DUP4 SUB DUP2 PUSH0 DUP8 GAS CALL ISZERO DUP1 ISZERO PUSH2 0xA92 JUMPI RETURNDATASIZE PUSH0 PUSH0 RETURNDATACOPY RETURNDATASIZE PUSH0 REVERT JUMPDEST POP POP POP POP PUSH1 0x40 MLOAD RETURNDATASIZE PUSH1 0x1F NOT PUSH1 0x1F DUP3 ADD AND DUP3 ADD DUP1 PUSH1 0x40 MSTORE POP DUP2 ADD SWAP1 PUSH2 0xAB6 SWAP2 SWAP1 PUSH2 0x1E98 JUMP JUMPDEST PUSH2 0xAF9 JUMPI PUSH1 0x40 MLOAD PUSH3 0x461BCD PUSH1 0xE5 SHL DUP2 MSTORE PUSH1 0x20 PUSH1 0x4 DUP3 ADD MSTORE PUSH1 0x14 PUSH1 0x24 DUP3 ADD MSTORE PUSH20 0x1554D110C81D1C985B9CD9995C8819985A5B1959 PUSH1 0x62 SHL PUSH1 0x44 DUP3 ADD MSTORE PUSH1 0x64 ADD PUSH2 0x678 JUMP JUMPDEST PUSH0 PUSH1 0xA PUSH0 DUP2 SLOAD PUSH2 0xB08 SWAP1 PUSH2 0x1EC7 JUMP JUMPDEST SWAP2 DUP3 SWAP1 SSTORE POP CALLER PUSH0 DUP2 DUP2 MSTORE PUSH1 0xC PUSH1 0x20 MSTORE PUSH1 0x40 SWAP1 KECCAK256 DUP1 SLOAD PUSH1 0xFF NOT AND PUSH1 0x1 OR SWAP1 SSTORE SWAP1 SWAP2 POP PUSH2 0xB33 SWAP1 DUP3 PUSH2 0x11EE JUMP JUMPDEST PUSH2 0xB45 DUP2 PUSH2 0xB40 DUP4 PUSH2 0x1207 JUMP JUMPDEST PUSH2 0x123B JUMP JUMPDEST PUSH1 0x40 MLOAD DUP2 SWAP1 CALLER SWAP1 PUSH32 0xF68BAD5AF62D777D3F6B0D6B439AEE2FE6CF022434BBC879441AAEF1E20F4284 SWAP1 PUSH0 SWAP1 LOG3 POP JUMP JUMPDEST PUSH1 0x1 PUSH1 0x1 PUSH1 0xA0 SHL SUB DUP3 AND PUSH2 0xB9D JUMPI PUSH1 0x40 MLOAD PUSH4 0x32505749 PUSH1 0xE1 SHL DUP2 MSTORE PUSH0 PUSH1 0x4 DUP3 ADD MSTORE PUSH1 0x24 ADD PUSH2 0x678 JUMP JUMPDEST PUSH0 PUSH2 0xBA9 DUP4 DUP4 CALLER PUSH2 0x128A JUMP JUMPDEST SWAP1 POP DUP4 PUSH1 0x1 PUSH1 0x1 PUSH1 0xA0 SHL SUB AND DUP2 PUSH1 0x1 PUSH1 0x1 PUSH1 0xA0 SHL SUB AND EQ PUSH2 0xBF7 JUMPI PUSH1 0x40 MLOAD PUSH4 0x64283D7B PUSH1 0xE0 SHL DUP2 MSTORE PUSH1 0x1 PUSH1 0x1 PUSH1 0xA0 SHL SUB DUP1 DUP7 AND PUSH1 0x4 DUP4 ADD MSTORE PUSH1 0x24 DUP3 ADD DUP5 SWAP1 MSTORE DUP3 AND PUSH1 0x44 DUP3 ADD MSTORE PUSH1 0x64 ADD PUSH2 0x678 JUMP JUMPDEST POP POP POP POP JUMP JUMPDEST PUSH2 0xC17 DUP4 DUP4 DUP4 PUSH1 0x40 MLOAD DUP1 PUSH1 0x20 ADD PUSH1 0x40 MSTORE DUP1 PUSH0 DUP2 MSTORE POP PUSH2 0xF4A JUMP JUMPDEST POP POP POP JUMP JUMPDEST PUSH2 0xC24 PUSH2 0x117C JUMP JUMPDEST PUSH1 0xB PUSH2 0x8BD DUP3 DUP3 PUSH2 0x1F23 JUMP JUMPDEST PUSH0 PUSH2 0x607 DUP3 PUSH2 0x11A9 JUMP JUMPDEST PUSH0 PUSH1 0x1 PUSH1 0x1 PUSH1 0xA0 SHL SUB DUP3 AND PUSH2 0xC64 JUMPI PUSH1 0x40 MLOAD PUSH4 0x22718AD9 PUSH1 0xE2 SHL DUP2 MSTORE PUSH0 PUSH1 0x4 DUP3 ADD MSTORE PUSH1 0x24 ADD PUSH2 0x678 JUMP JUMPDEST POP PUSH1 0x1 PUSH1 0x1 PUSH1 0xA0 SHL SUB AND PUSH0 SWAP1 DUP2 MSTORE PUSH1 0x3 PUSH1 0x20 MSTORE PUSH1 0x40 SWAP1 KECCAK256 SLOAD SWAP1 JUMP JUMPDEST PUSH2 0xC87 PUSH2 0x117C JUMP JUMPDEST PUSH2 0xC90 PUSH0 PUSH2 0x137C JUMP JUMPDEST JUMP JUMPDEST PUSH1 0x40 MLOAD PUSH4 0x1C710E67 PUSH1 0xE1 SHL DUP2 MSTORE CALLER PUSH1 0x4 DUP3 ADD MSTORE PUSH32 0x0 PUSH1 0x1 PUSH1 0x1 PUSH1 0xA0 SHL SUB AND SWAP1 PUSH4 0x38E21CCE SWAP1 PUSH1 0x24 ADD PUSH1 0x20 PUSH1 0x40 MLOAD DUP1 DUP4 SUB DUP2 DUP7 GAS STATICCALL ISZERO DUP1 ISZERO PUSH2 0xCF4 JUMPI RETURNDATASIZE PUSH0 PUSH0 RETURNDATACOPY RETURNDATASIZE PUSH0 REVERT JUMPDEST POP POP POP POP PUSH1 0x40 MLOAD RETURNDATASIZE PUSH1 0x1F NOT PUSH1 0x1F DUP3 ADD AND DUP3 ADD DUP1 PUSH1 0x40 MSTORE POP DUP2 ADD SWAP1 PUSH2 0xD18 SWAP2 SWAP1 PUSH2 0x1E98 JUMP JUMPDEST PUSH2 0xD5B JUMPI PUSH1 0x40 MLOAD PUSH3 0x461BCD PUSH1 0xE5 SHL DUP2 MSTORE PUSH1 0x20 PUSH1 0x4 DUP3 ADD MSTORE PUSH1 0x14 PUSH1 0x24 DUP3 ADD MSTORE PUSH20 0x139959590815985D5B1D0812D95E48199A5C9CDD PUSH1 0x62 SHL PUSH1 0x44 DUP3 ADD MSTORE PUSH1 0x64 ADD PUSH2 0x678 JUMP JUMPDEST CALLER PUSH0 SWAP1 DUP2 MSTORE PUSH1 0xC PUSH1 0x20 MSTORE PUSH1 0x40 SWAP1 KECCAK256 SLOAD PUSH1 0xFF AND ISZERO PUSH2 0xDAB JUMPI PUSH1 0x40 MLOAD PUSH3 0x461BCD PUSH1 0xE5 SHL DUP2 MSTORE PUSH1 0x20 PUSH1 0x4 DUP3 ADD MSTORE PUSH1 0xE PUSH1 0x24 DUP3 ADD MSTORE PUSH14 0x105B1C9958591E481B5A5B9D1959 PUSH1 0x92 SHL PUSH1 0x44 DUP3 ADD MSTORE PUSH1 0x64 ADD PUSH2 0x678 JUMP JUMPDEST PUSH2 0x29A PUSH1 0xA SLOAD LT PUSH2 0xDE9 JUMPI PUSH1 0x40 MLOAD PUSH3 0x461BCD PUSH1 0xE5 SHL DUP2 MSTORE PUSH1 0x20 PUSH1 0x4 DUP3 ADD MSTORE PUSH1 0x8 PUSH1 0x24 DUP3 ADD MSTORE PUSH8 0x14DBDB19081BDD5D PUSH1 0xC2 SHL PUSH1 0x44 DUP3 ADD MSTORE PUSH1 0x64 ADD PUSH2 0x678 JUMP JUMPDEST PUSH0 CALLVALUE GT PUSH2 0xE23 JUMPI PUSH1 0x40 MLOAD PUSH3 0x461BCD PUSH1 0xE5 SHL DUP2 MSTORE PUSH1 0x20 PUSH1 0x4 DUP3 ADD MSTORE PUSH1 0x8 PUSH1 0x24 DUP3 ADD MSTORE PUSH8 0xA6CADCC8408AA89 PUSH1 0xC3 SHL PUSH1 0x44 DUP3 ADD MSTORE PUSH1 0x64 ADD PUSH2 0x678 JUMP JUMPDEST PUSH1 0x9 SLOAD PUSH1 0x40 MLOAD PUSH0 SWAP2 PUSH1 0x1 PUSH1 0x1 PUSH1 0xA0 SHL SUB AND SWAP1 CALLVALUE SWAP1 DUP4 DUP2 DUP2 DUP2 DUP6 DUP8 GAS CALL SWAP3 POP POP POP RETURNDATASIZE DUP1 PUSH0 DUP2 EQ PUSH2 0xE6D JUMPI PUSH1 0x40 MLOAD SWAP2 POP PUSH1 0x1F NOT PUSH1 0x3F RETURNDATASIZE ADD AND DUP3 ADD PUSH1 0x40 MSTORE RETURNDATASIZE DUP3 MSTORE RETURNDATASIZE PUSH0 PUSH1 0x20 DUP5 ADD RETURNDATACOPY PUSH2 0xE72 JUMP JUMPDEST PUSH1 0x60 SWAP2 POP JUMPDEST POP POP SWAP1 POP DUP1 PUSH2 0xEB9 JUMPI PUSH1 0x40 MLOAD PUSH3 0x461BCD PUSH1 0xE5 SHL DUP2 MSTORE PUSH1 0x20 PUSH1 0x4 DUP3 ADD MSTORE PUSH1 0x13 PUSH1 0x24 DUP3 ADD MSTORE PUSH19 0x115512081D1C985B9CD9995C8819985A5B1959 PUSH1 0x6A SHL PUSH1 0x44 DUP3 ADD MSTORE PUSH1 0x64 ADD PUSH2 0x678 JUMP JUMPDEST PUSH0 PUSH1 0xA PUSH0 DUP2 SLOAD PUSH2 0xEC8 SWAP1 PUSH2 0x1EC7 JUMP JUMPDEST SWAP2 DUP3 SWAP1 SSTORE POP CALLER PUSH0 DUP2 DUP2 MSTORE PUSH1 0xC PUSH1 0x20 MSTORE PUSH1 0x40 SWAP1 KECCAK256 DUP1 SLOAD PUSH1 0xFF NOT AND PUSH1 0x1 OR SWAP1 SSTORE SWAP1 SWAP2 POP PUSH2 0xEF3 SWAP1 DUP3 PUSH2 0x11EE JUMP JUMPDEST PUSH2 0xF00 DUP2 PUSH2 0xB40 DUP4 PUSH2 0x1207 JUMP JUMPDEST PUSH1 0x40 MLOAD DUP2 SWAP1 CALLER SWAP1 PUSH32 0xF68BAD5AF62D777D3F6B0D6B439AEE2FE6CF022434BBC879441AAEF1E20F4284 SWAP1 PUSH0 SWAP1 LOG3 POP POP JUMP JUMPDEST PUSH1 0x60 PUSH1 0x1 DUP1 SLOAD PUSH2 0x80A SWAP1 PUSH2 0x1E60 JUMP JUMPDEST PUSH2 0x8BD CALLER DUP4 DUP4 PUSH2 0x13CD JUMP JUMPDEST PUSH2 0xF55 DUP5 DUP5 DUP5 PUSH2 0xB74 JUMP JUMPDEST PUSH2 0xBF7 CALLER DUP6 DUP6 DUP6 DUP6 PUSH2 0x1494 JUMP JUMPDEST PUSH1 0x60 PUSH2 0xF6D DUP3 PUSH2 0x11A9 JUMP JUMPDEST POP PUSH0 PUSH2 0xF83 PUSH1 0x40 DUP1 MLOAD PUSH1 0x20 DUP2 ADD SWAP1 SWAP2 MSTORE PUSH0 DUP2 MSTORE SWAP1 JUMP JUMPDEST SWAP1 POP PUSH0 PUSH2 0xF8F DUP5 PUSH2 0x15BC JUMP JUMPDEST SWAP1 POP DUP2 MLOAD PUSH0 SUB PUSH2 0xFA0 JUMPI SWAP4 SWAP3 POP POP POP JUMP JUMPDEST DUP1 MLOAD ISZERO PUSH2 0xFD2 JUMPI DUP2 DUP2 PUSH1 0x40 MLOAD PUSH1 0x20 ADD PUSH2 0xFBA SWAP3 SWAP2 SWAP1 PUSH2 0x1FF5 JUMP JUMPDEST PUSH1 0x40 MLOAD PUSH1 0x20 DUP2 DUP4 SUB SUB DUP2 MSTORE SWAP1 PUSH1 0x40 MSTORE SWAP3 POP POP POP SWAP2 SWAP1 POP JUMP JUMPDEST PUSH2 0xFDB DUP5 PUSH2 0x165B JUMP JUMPDEST SWAP5 SWAP4 POP POP POP POP JUMP JUMPDEST PUSH1 0xB DUP1 SLOAD PUSH2 0xFF0 SWAP1 PUSH2 0x1E60 JUMP JUMPDEST DUP1 PUSH1 0x1F ADD PUSH1 0x20 DUP1 SWAP2 DIV MUL PUSH1 0x20 ADD PUSH1 0x40 MLOAD SWAP1 DUP2 ADD PUSH1 0x40 MSTORE DUP1 SWAP3 SWAP2 SWAP1 DUP2 DUP2 MSTORE PUSH1 0x20 ADD DUP3 DUP1 SLOAD PUSH2 0x101C SWAP1 PUSH2 0x1E60 JUMP JUMPDEST DUP1 ISZERO PUSH2 0x1067 JUMPI DUP1 PUSH1 0x1F LT PUSH2 0x103E JUMPI PUSH2 0x100 DUP1 DUP4 SLOAD DIV MUL DUP4 MSTORE SWAP2 PUSH1 0x20 ADD SWAP2 PUSH2 0x1067 JUMP JUMPDEST DUP3 ADD SWAP2 SWAP1 PUSH0 MSTORE PUSH1 0x20 PUSH0 KECCAK256 SWAP1 JUMPDEST DUP2 SLOAD DUP2 MSTORE SWAP1 PUSH1 0x1 ADD SWAP1 PUSH1 0x20 ADD DUP1 DUP4 GT PUSH2 0x104A JUMPI DUP3 SWAP1 SUB PUSH1 0x1F AND DUP3 ADD SWAP2 JUMPDEST POP POP POP POP POP DUP2 JUMP JUMPDEST PUSH2 0x1077 PUSH2 0x117C JUMP JUMPDEST PUSH1 0x8 DUP1 SLOAD PUSH1 0x1 PUSH1 0x1 PUSH1 0xA0 SHL SUB NOT AND PUSH1 0x1 PUSH1 0x1 PUSH1 0xA0 SHL SUB SWAP3 SWAP1 SWAP3 AND SWAP2 SWAP1 SWAP2 OR SWAP1 SSTORE JUMP JUMPDEST PUSH1 0x1 PUSH1 0x1 PUSH1 0xA0 SHL SUB SWAP2 DUP3 AND PUSH0 SWAP1 DUP2 MSTORE PUSH1 0x5 PUSH1 0x20 SWAP1 DUP2 MSTORE PUSH1 0x40 DUP1 DUP4 KECCAK256 SWAP4 SWAP1 SWAP5 AND DUP3 MSTORE SWAP2 SWAP1 SWAP2 MSTORE KECCAK256 SLOAD PUSH1 0xFF AND SWAP1 JUMP JUMPDEST PUSH2 0x10CE PUSH2 0x117C JUMP JUMPDEST PUSH1 0x9 DUP1 SLOAD PUSH1 0x1 PUSH1 0x1 PUSH1 0xA0 SHL SUB NOT AND PUSH1 0x1 PUSH1 0x1 PUSH1 0xA0 SHL SUB SWAP3 SWAP1 SWAP3 AND SWAP2 SWAP1 SWAP2 OR SWAP1 SSTORE JUMP JUMPDEST PUSH2 0x10F8 PUSH2 0x117C JUMP JUMPDEST PUSH1 0x1 PUSH1 0x1 PUSH1 0xA0 SHL SUB DUP2 AND PUSH2 0x1121 JUMPI PUSH1 0x40 MLOAD PUSH4 0x1E4FBDF7 PUSH1 0xE0 SHL DUP2 MSTORE PUSH0 PUSH1 0x4 DUP3 ADD MSTORE PUSH1 0x24 ADD PUSH2 0x678 JUMP JUMPDEST PUSH2 0x112A DUP2 PUSH2 0x137C JUMP JUMPDEST POP JUMP JUMPDEST PUSH0 PUSH1 0x1 PUSH1 0x1 PUSH1 0xE0 SHL SUB NOT DUP3 AND PUSH4 0x80AC58CD PUSH1 0xE0 SHL EQ DUP1 PUSH2 0x115D JUMPI POP PUSH1 0x1 PUSH1 0x1 PUSH1 0xE0 SHL SUB NOT DUP3 AND PUSH4 0x5B5E139F PUSH1 0xE0 SHL EQ JUMPDEST DUP1 PUSH2 0x607 JUMPI POP PUSH4 0x1FFC9A7 PUSH1 0xE0 SHL PUSH1 0x1 PUSH1 0x1 PUSH1 0xE0 SHL SUB NOT DUP4 AND EQ PUSH2 0x607 JUMP JUMPDEST PUSH1 0x7 SLOAD PUSH1 0x1 PUSH1 0x1 PUSH1 0xA0 SHL SUB AND CALLER EQ PUSH2 0xC90 JUMPI PUSH1 0x40 MLOAD PUSH4 0x118CDAA7 PUSH1 0xE0 SHL DUP2 MSTORE CALLER PUSH1 0x4 DUP3 ADD MSTORE PUSH1 0x24 ADD PUSH2 0x678 JUMP JUMPDEST PUSH0 DUP2 DUP2 MSTORE PUSH1 0x2 PUSH1 0x20 MSTORE PUSH1 0x40 DUP2 KECCAK256 SLOAD PUSH1 0x1 PUSH1 0x1 PUSH1 0xA0 SHL SUB AND DUP1 PUSH2 0x607 JUMPI PUSH1 0x40 MLOAD PUSH4 0x7E273289 PUSH1 0xE0 SHL DUP2 MSTORE PUSH1 0x4 DUP2 ADD DUP5 SWAP1 MSTORE PUSH1 0x24 ADD PUSH2 0x678 JUMP JUMPDEST PUSH2 0xC17 DUP4 DUP4 DUP4 PUSH1 0x1 PUSH2 0x16CC JUMP JUMPDEST PUSH2 0x8BD DUP3 DUP3 PUSH1 0x40 MLOAD DUP1 PUSH1 0x20 ADD PUSH1 0x40 MSTORE DUP1 PUSH0 DUP2 MSTORE POP PUSH2 0x17D0 JUMP JUMPDEST PUSH1 0x60 PUSH1 0xB PUSH2 0x1214 DUP4 PUSH2 0x17E7 JUMP JUMPDEST PUSH1 0x40 MLOAD PUSH1 0x20 ADD PUSH2 0x1225 SWAP3 SWAP2 SWAP1 PUSH2 0x2009 JUMP JUMPDEST PUSH1 0x40 MLOAD PUSH1 0x20 DUP2 DUP4 SUB SUB DUP2 MSTORE SWAP1 PUSH1 0x40 MSTORE SWAP1 POP SWAP2 SWAP1 POP JUMP JUMPDEST PUSH0 DUP3 DUP2 MSTORE PUSH1 0x6 PUSH1 0x20 MSTORE PUSH1 0x40 SWAP1 KECCAK256 PUSH2 0x1252 DUP3 DUP3 PUSH2 0x1F23 JUMP JUMPDEST POP PUSH1 0x40 MLOAD DUP3 DUP2 MSTORE PUSH32 0xF8E1A15ABA9398E019F0B49DF1A4FDE98EE17AE345CB5F6B5E2C27F5033E8CE7 SWAP1 PUSH1 0x20 ADD PUSH1 0x40 MLOAD DUP1 SWAP2 SUB SWAP1 LOG1 POP POP JUMP JUMPDEST PUSH0 DUP3 DUP2 MSTORE PUSH1 0x2 PUSH1 0x20 MSTORE PUSH1 0x40 DUP2 KECCAK256 SLOAD PUSH1 0x1 PUSH1 0x1 PUSH1 0xA0 SHL SUB SWAP1 DUP2 AND SWAP1 DUP4 AND ISZERO PUSH2 0x12B6 JUMPI PUSH2 0x12B6 DUP2 DUP5 DUP7 PUSH2 0x18E5 JUMP JUMPDEST PUSH1 0x1 PUSH1 0x1 PUSH1 0xA0 SHL SUB DUP2 AND ISZERO PUSH2 0x12F0 JUMPI PUSH2 0x12D1 PUSH0 DUP6 PUSH0 PUSH0 PUSH2 0x16CC JUMP JUMPDEST PUSH1 0x1 PUSH1 0x1 PUSH1 0xA0 SHL SUB DUP2 AND PUSH0 SWAP1 DUP2 MSTORE PUSH1 0x3 PUSH1 0x20 MSTORE PUSH1 0x40 SWAP1 KECCAK256 DUP1 SLOAD PUSH0 NOT ADD SWAP1 SSTORE JUMPDEST PUSH1 0x1 PUSH1 0x1 PUSH1 0xA0 SHL SUB DUP6 AND ISZERO PUSH2 0x131E JUMPI PUSH1 0x1 PUSH1 0x1 PUSH1 0xA0 SHL SUB DUP6 AND PUSH0 SWAP1 DUP2 MSTORE PUSH1 0x3 PUSH1 0x20 MSTORE PUSH1 0x40 SWAP1 KECCAK256 DUP1 SLOAD PUSH1 0x1 ADD SWAP1 SSTORE JUMPDEST PUSH0 DUP5 DUP2 MSTORE PUSH1 0x2 PUSH1 0x20 MSTORE PUSH1 0x40 DUP1 DUP3 KECCAK256 DUP1 SLOAD PUSH1 0x1 PUSH1 0x1 PUSH1 0xA0 SHL SUB NOT AND PUSH1 0x1 PUSH1 0x1 PUSH1 0xA0 SHL SUB DUP10 DUP2 AND SWAP2 DUP3 OR SWAP1 SWAP3 SSTORE SWAP2 MLOAD DUP8 SWAP4 SWAP2 DUP6 AND SWAP2 PUSH32 0xDDF252AD1BE2C89B69C2B068FC378DAA952BA7F163C4A11628F55A4DF523B3EF SWAP2 LOG4 SWAP5 SWAP4 POP POP POP POP JUMP JUMPDEST PUSH1 0x7 DUP1 SLOAD PUSH1 0x1 PUSH1 0x1 PUSH1 0xA0 SHL SUB DUP4 DUP2 AND PUSH1 0x1 PUSH1 0x1 PUSH1 0xA0 SHL SUB NOT DUP4 AND DUP2 OR SWAP1 SWAP4 SSTORE PUSH1 0x40 MLOAD SWAP2 AND SWAP2 SWAP1 DUP3 SWAP1 PUSH32 0x8BE0079C531659141344CD1FD0A4F28419497F9722A3DAAFE3B4186F6B6457E0 SWAP1 PUSH0 SWAP1 LOG3 POP POP JUMP JUMPDEST PUSH1 0x1 PUSH1 0x1 PUSH1 0xA0 SHL SUB DUP4 AND PUSH2 0x13F6 JUMPI PUSH1 0x40 MLOAD PUSH4 0xA9FBF51F PUSH1 0xE0 SHL DUP2 MSTORE PUSH0 PUSH1 0x4 DUP3 ADD MSTORE PUSH1 0x24 ADD PUSH2 0x678 JUMP JUMPDEST PUSH1 0x1 PUSH1 0x1 PUSH1 0xA0 SHL SUB DUP3 AND PUSH2 0x1428 JUMPI PUSH1 0x40 MLOAD PUSH4 0xB611743 PUSH1 0xE3 SHL DUP2 MSTORE PUSH1 0x1 PUSH1 0x1 PUSH1 0xA0 SHL SUB DUP4 AND PUSH1 0x4 DUP3 ADD MSTORE PUSH1 0x24 ADD PUSH2 0x678 JUMP JUMPDEST PUSH1 0x1 PUSH1 0x1 PUSH1 0xA0 SHL SUB DUP4 DUP2 AND PUSH0 DUP2 DUP2 MSTORE PUSH1 0x5 PUSH1 0x20 SWAP1 DUP2 MSTORE PUSH1 0x40 DUP1 DUP4 KECCAK256 SWAP5 DUP8 AND DUP1 DUP5 MSTORE SWAP5 DUP3 MSTORE SWAP2 DUP3 SWAP1 KECCAK256 DUP1 SLOAD PUSH1 0xFF NOT AND DUP7 ISZERO ISZERO SWAP1 DUP2 OR SWAP1 SWAP2 SSTORE SWAP2 MLOAD SWAP2 DUP3 MSTORE PUSH32 0x17307EAB39AB6107E8899845AD3D59BD9653F200F220920489CA2B5937696C31 SWAP2 ADD PUSH1 0x40 MLOAD DUP1 SWAP2 SUB SWAP1 LOG3 POP POP POP JUMP JUMPDEST PUSH1 0x1 PUSH1 0x1 PUSH1 0xA0 SHL SUB DUP4 AND EXTCODESIZE ISZERO PUSH2 0x15B5 JUMPI PUSH1 0x40 MLOAD PUSH4 0xA85BD01 PUSH1 0xE1 SHL DUP2 MSTORE PUSH1 0x1 PUSH1 0x1 PUSH1 0xA0 SHL SUB DUP5 AND SWAP1 PUSH4 0x150B7A02 SWAP1 PUSH2 0x14D6 SWAP1 DUP9 SWAP1 DUP9 SWAP1 DUP8 SWAP1 DUP8 SWAP1 PUSH1 0x4 ADD PUSH2 0x209D JUMP JUMPDEST PUSH1 0x20 PUSH1 0x40 MLOAD DUP1 DUP4 SUB DUP2 PUSH0 DUP8 GAS CALL SWAP3 POP POP POP DUP1 ISZERO PUSH2 0x1510 JUMPI POP PUSH1 0x40 DUP1 MLOAD PUSH1 0x1F RETURNDATASIZE SWAP1 DUP2 ADD PUSH1 0x1F NOT AND DUP3 ADD SWAP1 SWAP3 MSTORE PUSH2 0x150D SWAP2 DUP2 ADD SWAP1 PUSH2 0x20D9 JUMP JUMPDEST PUSH1 0x1 JUMPDEST PUSH2 0x1577 JUMPI RETURNDATASIZE DUP1 DUP1 ISZERO PUSH2 0x153D JUMPI PUSH1 0x40 MLOAD SWAP2 POP PUSH1 0x1F NOT PUSH1 0x3F RETURNDATASIZE ADD AND DUP3 ADD PUSH1 0x40 MSTORE RETURNDATASIZE DUP3 MSTORE RETURNDATASIZE PUSH0 PUSH1 0x20 DUP5 ADD RETURNDATACOPY PUSH2 0x1542 JUMP JUMPDEST PUSH1 0x60 SWAP2 POP JUMPDEST POP DUP1 MLOAD PUSH0 SUB PUSH2 0x156F JUMPI PUSH1 0x40 MLOAD PUSH4 0x32505749 PUSH1 0xE1 SHL DUP2 MSTORE PUSH1 0x1 PUSH1 0x1 PUSH1 0xA0 SHL SUB DUP6 AND PUSH1 0x4 DUP3 ADD MSTORE PUSH1 0x24 ADD PUSH2 0x678 JUMP JUMPDEST DUP1 MLOAD PUSH1 0x20 DUP3 ADD REVERT JUMPDEST PUSH1 0x1 PUSH1 0x1 PUSH1 0xE0 SHL SUB NOT DUP2 AND PUSH4 0xA85BD01 PUSH1 0xE1 SHL EQ PUSH2 0x15B3 JUMPI PUSH1 0x40 MLOAD PUSH4 0x32505749 PUSH1 0xE1 SHL DUP2 MSTORE PUSH1 0x1 PUSH1 0x1 PUSH1 0xA0 SHL SUB DUP6 AND PUSH1 0x4 DUP3 ADD MSTORE PUSH1 0x24 ADD PUSH2 0x678 JUMP JUMPDEST POP JUMPDEST POP POP POP POP POP JUMP JUMPDEST PUSH0 DUP2 DUP2 MSTORE PUSH1 0x6 PUSH1 0x20 MSTORE PUSH1 0x40 SWAP1 KECCAK256 DUP1 SLOAD PUSH1 0x60 SWAP2 SWAP1 PUSH2 0x15D8 SWAP1 PUSH2 0x1E60 JUMP JUMPDEST DUP1 PUSH1 0x1F ADD PUSH1 0x20 DUP1 SWAP2 DIV MUL PUSH1 0x20 ADD PUSH1 0x40 MLOAD SWAP1 DUP2 ADD PUSH1 0x40 MSTORE DUP1 SWAP3 SWAP2 SWAP1 DUP2 DUP2 MSTORE PUSH1 0x20 ADD DUP3 DUP1 SLOAD PUSH2 0x1604 SWAP1 PUSH2 0x1E60 JUMP JUMPDEST DUP1 ISZERO PUSH2 0x164F JUMPI DUP1 PUSH1 0x1F LT PUSH2 0x1626 JUMPI PUSH2 0x100 DUP1 DUP4 SLOAD DIV MUL DUP4 MSTORE SWAP2 PUSH1 0x20 ADD SWAP2 PUSH2 0x164F JUMP JUMPDEST DUP3 ADD SWAP2 SWAP1 PUSH0 MSTORE PUSH1 0x20 PUSH0 KECCAK256 SWAP1 JUMPDEST DUP2 SLOAD DUP2 MSTORE SWAP1 PUSH1 0x1 ADD SWAP1 PUSH1 0x20 ADD DUP1 DUP4 GT PUSH2 0x1632 JUMPI DUP3 SWAP1 SUB PUSH1 0x1F AND DUP3 ADD SWAP2 JUMPDEST POP POP POP POP POP SWAP1 POP SWAP2 SWAP1 POP JUMP JUMPDEST PUSH1 0x60 PUSH2 0x1666 DUP3 PUSH2 0x11A9 JUMP JUMPDEST POP PUSH0 PUSH2 0x167C PUSH1 0x40 DUP1 MLOAD PUSH1 0x20 DUP2 ADD SWAP1 SWAP2 MSTORE PUSH0 DUP2 MSTORE SWAP1 JUMP JUMPDEST SWAP1 POP PUSH0 DUP2 MLOAD GT PUSH2 0x169A JUMPI PUSH1 0x40 MLOAD DUP1 PUSH1 0x20 ADD PUSH1 0x40 MSTORE DUP1 PUSH0 DUP2 MSTORE POP PUSH2 0x16C5 JUMP JUMPDEST DUP1 PUSH2 0x16A4 DUP5 PUSH2 0x1949 JUMP JUMPDEST PUSH1 0x40 MLOAD PUSH1 0x20 ADD PUSH2 0x16B5 SWAP3 SWAP2 SWAP1 PUSH2 0x1FF5 JUMP JUMPDEST PUSH1 0x40 MLOAD PUSH1 0x20 DUP2 DUP4 SUB SUB DUP2 MSTORE SWAP1 PUSH1 0x40 MSTORE JUMPDEST SWAP4 SWAP3 POP POP POP JUMP JUMPDEST DUP1 DUP1 PUSH2 0x16E0 JUMPI POP PUSH1 0x1 PUSH1 0x1 PUSH1 0xA0 SHL SUB DUP3 AND ISZERO ISZERO JUMPDEST ISZERO PUSH2 0x17A1 JUMPI PUSH0 PUSH2 0x16EF DUP5 PUSH2 0x11A9 JUMP JUMPDEST SWAP1 POP PUSH1 0x1 PUSH1 0x1 PUSH1 0xA0 SHL SUB DUP4 AND ISZERO DUP1 ISZERO SWAP1 PUSH2 0x171B JUMPI POP DUP3 PUSH1 0x1 PUSH1 0x1 PUSH1 0xA0 SHL SUB AND DUP2 PUSH1 0x1 PUSH1 0x1 PUSH1 0xA0 SHL SUB AND EQ ISZERO JUMPDEST DUP1 ISZERO PUSH2 0x172E JUMPI POP PUSH2 0x172C DUP2 DUP5 PUSH2 0x1099 JUMP JUMPDEST ISZERO JUMPDEST ISZERO PUSH2 0x1757 JUMPI PUSH1 0x40 MLOAD PUSH4 0xA9FBF51F PUSH1 0xE0 SHL DUP2 MSTORE PUSH1 0x1 PUSH1 0x1 PUSH1 0xA0 SHL SUB DUP5 AND PUSH1 0x4 DUP3 ADD MSTORE PUSH1 0x24 ADD PUSH2 0x678 JUMP JUMPDEST DUP2 ISZERO PUSH2 0x179F JUMPI DUP4 DUP6 PUSH1 0x1 PUSH1 0x1 PUSH1 0xA0 SHL SUB AND DUP3 PUSH1 0x1 PUSH1 0x1 PUSH1 0xA0 SHL SUB AND PUSH32 0x8C5BE1E5EBEC7D5BD14F71427D1E84F3DD0314C0F7B2291E5B200AC8C7C3B925 PUSH1 0x40 MLOAD PUSH1 0x40 MLOAD DUP1 SWAP2 SUB SWAP1 LOG4 JUMPDEST POP JUMPDEST POP POP PUSH0 SWAP1 DUP2 MSTORE PUSH1 0x4 PUSH1 0x20 MSTORE PUSH1 0x40 SWAP1 KECCAK256 DUP1 SLOAD PUSH1 0x1 PUSH1 0x1 PUSH1 0xA0 SHL SUB NOT AND PUSH1 0x1 PUSH1 0x1 PUSH1 0xA0 SHL SUB SWAP3 SWAP1 SWAP3 AND SWAP2 SWAP1 SWAP2 OR SWAP1 SSTORE JUMP JUMPDEST PUSH2 0x17DA DUP4 DUP4 PUSH2 0x19D9 JUMP JUMPDEST PUSH2 0xC17 CALLER PUSH0 DUP6 DUP6 DUP6 PUSH2 0x1494 JUMP JUMPDEST PUSH1 0x60 DUP2 PUSH0 SUB PUSH2 0x180D JUMPI POP POP PUSH1 0x40 DUP1 MLOAD DUP1 DUP3 ADD SWAP1 SWAP2 MSTORE PUSH1 0x1 DUP2 MSTORE PUSH1 0x3 PUSH1 0xFC SHL PUSH1 0x20 DUP3 ADD MSTORE SWAP1 JUMP JUMPDEST DUP2 PUSH0 JUMPDEST DUP2 ISZERO PUSH2 0x1836 JUMPI DUP1 PUSH2 0x1820 DUP2 PUSH2 0x1EC7 JUMP JUMPDEST SWAP2 POP PUSH2 0x182F SWAP1 POP PUSH1 0xA DUP4 PUSH2 0x2108 JUMP JUMPDEST SWAP2 POP PUSH2 0x1810 JUMP JUMPDEST PUSH0 DUP2 PUSH8 0xFFFFFFFFFFFFFFFF DUP2 GT ISZERO PUSH2 0x1850 JUMPI PUSH2 0x1850 PUSH2 0x1C8F JUMP JUMPDEST PUSH1 0x40 MLOAD SWAP1 DUP1 DUP3 MSTORE DUP1 PUSH1 0x1F ADD PUSH1 0x1F NOT AND PUSH1 0x20 ADD DUP3 ADD PUSH1 0x40 MSTORE DUP1 ISZERO PUSH2 0x187A JUMPI PUSH1 0x20 DUP3 ADD DUP2 DUP1 CALLDATASIZE DUP4 CALLDATACOPY ADD SWAP1 POP JUMPDEST POP SWAP1 POP JUMPDEST DUP5 ISZERO PUSH2 0xFDB JUMPI DUP2 PUSH2 0x188E DUP2 PUSH2 0x211B JUMP JUMPDEST SWAP3 POP PUSH2 0x189D SWAP1 POP PUSH1 0xA DUP7 PUSH2 0x2130 JUMP JUMPDEST PUSH2 0x18A8 SWAP1 PUSH1 0x30 PUSH2 0x2143 JUMP JUMPDEST PUSH1 0xF8 SHL DUP2 DUP4 DUP2 MLOAD DUP2 LT PUSH2 0x18BD JUMPI PUSH2 0x18BD PUSH2 0x2156 JUMP JUMPDEST PUSH1 0x20 ADD ADD SWAP1 PUSH1 0x1 PUSH1 0x1 PUSH1 0xF8 SHL SUB NOT AND SWAP1 DUP2 PUSH0 BYTE SWAP1 MSTORE8 POP PUSH2 0x18DE PUSH1 0xA DUP7 PUSH2 0x2108 JUMP JUMPDEST SWAP5 POP PUSH2 0x187E JUMP JUMPDEST PUSH2 0x18F0 DUP4 DUP4 DUP4 PUSH2 0x1A3A JUMP JUMPDEST PUSH2 0xC17 JUMPI PUSH1 0x1 PUSH1 0x1 PUSH1 0xA0 SHL SUB DUP4 AND PUSH2 0x191E JUMPI PUSH1 0x40 MLOAD PUSH4 0x7E273289 PUSH1 0xE0 SHL DUP2 MSTORE PUSH1 0x4 DUP2 ADD DUP3 SWAP1 MSTORE PUSH1 0x24 ADD PUSH2 0x678 JUMP JUMPDEST PUSH1 0x40 MLOAD PUSH4 0x177E802F PUSH1 0xE0 SHL DUP2 MSTORE PUSH1 0x1 PUSH1 0x1 PUSH1 0xA0 SHL SUB DUP4 AND PUSH1 0x4 DUP3 ADD MSTORE PUSH1 0x24 DUP2 ADD DUP3 SWAP1 MSTORE PUSH1 0x44 ADD PUSH2 0x678 JUMP JUMPDEST PUSH1 0x60 PUSH0 PUSH2 0x1955 DUP4 PUSH2 0x1A9B JUMP JUMPDEST PUSH1 0x1 ADD SWAP1 POP PUSH0 DUP2 PUSH8 0xFFFFFFFFFFFFFFFF DUP2 GT ISZERO PUSH2 0x1974 JUMPI PUSH2 0x1974 PUSH2 0x1C8F JUMP JUMPDEST PUSH1 0x40 MLOAD SWAP1 DUP1 DUP3 MSTORE DUP1 PUSH1 0x1F ADD PUSH1 0x1F NOT AND PUSH1 0x20 ADD DUP3 ADD PUSH1 0x40 MSTORE DUP1 ISZERO PUSH2 0x199E JUMPI PUSH1 0x20 DUP3 ADD DUP2 DUP1 CALLDATASIZE DUP4 CALLDATACOPY ADD SWAP1 POP JUMPDEST POP SWAP1 POP DUP2 DUP2 ADD PUSH1 0x20 ADD JUMPDEST PUSH0 NOT ADD PUSH16 0x181899199A1A9B1B9C1CB0B131B232B3 PUSH1 0x81 SHL PUSH1 0xA DUP7 MOD BYTE DUP2 MSTORE8 PUSH1 0xA DUP6 DIV SWAP5 POP DUP5 PUSH2 0x19A8 JUMPI POP SWAP4 SWAP3 POP POP POP JUMP JUMPDEST PUSH1 0x1 PUSH1 0x1 PUSH1 0xA0 SHL SUB DUP3 AND PUSH2 0x1A02 JUMPI PUSH1 0x40 MLOAD PUSH4 0x32505749 PUSH1 0xE1 SHL DUP2 MSTORE PUSH0 PUSH1 0x4 DUP3 ADD MSTORE PUSH1 0x24 ADD PUSH2 0x678 JUMP JUMPDEST PUSH0 PUSH2 0x1A0E DUP4 DUP4 PUSH0 PUSH2 0x128A JUMP JUMPDEST SWAP1 POP PUSH1 0x1 PUSH1 0x1 PUSH1 0xA0 SHL SUB DUP2 AND ISZERO PUSH2 0xC17 JUMPI PUSH1 0x40 MLOAD PUSH4 0x39E35637 PUSH1 0xE1 SHL DUP2 MSTORE PUSH0 PUSH1 0x4 DUP3 ADD MSTORE PUSH1 0x24 ADD PUSH2 0x678 JUMP JUMPDEST PUSH0 PUSH1 0x1 PUSH1 0x1 PUSH1 0xA0 SHL SUB DUP4 AND ISZERO DUP1 ISZERO SWAP1 PUSH2 0xFDB JUMPI POP DUP3 PUSH1 0x1 PUSH1 0x1 PUSH1 0xA0 SHL SUB AND DUP5 PUSH1 0x1 PUSH1 0x1 PUSH1 0xA0 SHL SUB AND EQ DUP1 PUSH2 0x1A73 JUMPI POP PUSH2 0x1A73 DUP5 DUP5 PUSH2 0x1099 JUMP JUMPDEST DUP1 PUSH2 0xFDB JUMPI POP POP PUSH0 SWAP1 DUP2 MSTORE PUSH1 0x4 PUSH1 0x20 MSTORE PUSH1 0x40 SWAP1 KECCAK256 SLOAD PUSH1 0x1 PUSH1 0x1 PUSH1 0xA0 SHL SUB SWAP1 DUP2 AND SWAP2 AND EQ SWAP2 SWAP1 POP JUMP JUMPDEST PUSH0 DUP1 PUSH19 0x184F03E93FF9F4DAA797ED6E38ED64BF6A1F01 PUSH1 0x40 SHL DUP4 LT PUSH2 0x1AD9 JUMPI PUSH19 0x184F03E93FF9F4DAA797ED6E38ED64BF6A1F01 PUSH1 0x40 SHL DUP4 DIV SWAP3 POP PUSH1 0x40 ADD JUMPDEST PUSH14 0x4EE2D6D415B85ACEF8100000000 DUP4 LT PUSH2 0x1B05 JUMPI PUSH14 0x4EE2D6D415B85ACEF8100000000 DUP4 DIV SWAP3 POP PUSH1 0x20 ADD JUMPDEST PUSH7 0x2386F26FC10000 DUP4 LT PUSH2 0x1B23 JUMPI PUSH7 0x2386F26FC10000 DUP4 DIV SWAP3 POP PUSH1 0x10 ADD JUMPDEST PUSH4 0x5F5E100 DUP4 LT PUSH2 0x1B3B JUMPI PUSH4 0x5F5E100 DUP4 DIV SWAP3 POP PUSH1 0x8 ADD JUMPDEST PUSH2 0x2710 DUP4 LT PUSH2 0x1B4F JUMPI PUSH2 0x2710 DUP4 DIV SWAP3 POP PUSH1 0x4 ADD JUMPDEST PUSH1 0x64 DUP4 LT PUSH2 0x1B61 JUMPI PUSH1 0x64 DUP4 DIV SWAP3 POP PUSH1 0x2 ADD JUMPDEST PUSH1 0xA DUP4 LT PUSH2 0x607 JUMPI PUSH1 0x1 ADD SWAP3 SWAP2 POP POP JUMP JUMPDEST PUSH1 0x1 PUSH1 0x1 PUSH1 0xE0 SHL SUB NOT DUP2 AND DUP2 EQ PUSH2 0x112A JUMPI PUSH0 PUSH0 REVERT JUMPDEST PUSH0 PUSH1 0x20 DUP3 DUP5 SUB SLT ISZERO PUSH2 0x1B97 JUMPI PUSH0 PUSH0 REVERT JUMPDEST DUP2 CALLDATALOAD PUSH2 0x16C5 DUP2 PUSH2 0x1B72 JUMP JUMPDEST DUP1 CALLDATALOAD PUSH1 0x1 PUSH1 0x1 PUSH1 0xA0 SHL SUB DUP2 AND DUP2 EQ PUSH2 0x1BB8 JUMPI PUSH0 PUSH0 REVERT JUMPDEST SWAP2 SWAP1 POP JUMP JUMPDEST PUSH0 PUSH1 0x20 DUP3 DUP5 SUB SLT ISZERO PUSH2 0x1BCD JUMPI PUSH0 PUSH0 REVERT JUMPDEST PUSH2 0x16C5 DUP3 PUSH2 0x1BA2 JUMP JUMPDEST PUSH0 DUP2 MLOAD DUP1 DUP5 MSTORE DUP1 PUSH1 0x20 DUP5 ADD PUSH1 0x20 DUP7 ADD MCOPY PUSH0 PUSH1 0x20 DUP3 DUP7 ADD ADD MSTORE PUSH1 0x20 PUSH1 0x1F NOT PUSH1 0x1F DUP4 ADD AND DUP6 ADD ADD SWAP2 POP POP SWAP3 SWAP2 POP POP JUMP JUMPDEST PUSH1 0x20 DUP2 MSTORE PUSH0 PUSH2 0x16C5 PUSH1 0x20 DUP4 ADD DUP5 PUSH2 0x1BD6 JUMP JUMPDEST PUSH0 PUSH1 0x20 DUP3 DUP5 SUB SLT ISZERO PUSH2 0x1C26 JUMPI PUSH0 PUSH0 REVERT JUMPDEST POP CALLDATALOAD SWAP2 SWAP1 POP JUMP JUMPDEST PUSH0 PUSH0 PUSH1 0x40 DUP4 DUP6 SUB SLT ISZERO PUSH2 0x1C3E JUMPI PUSH0 PUSH0 REVERT JUMPDEST PUSH2 0x1C47 DUP4 PUSH2 0x1BA2 JUMP JUMPDEST SWAP5 PUSH1 0x20 SWAP4 SWAP1 SWAP4 ADD CALLDATALOAD SWAP4 POP POP POP JUMP JUMPDEST PUSH0 PUSH0 PUSH0 PUSH1 0x60 DUP5 DUP7 SUB SLT ISZERO PUSH2 0x1C67 JUMPI PUSH0 PUSH0 REVERT JUMPDEST PUSH2 0x1C70 DUP5 PUSH2 0x1BA2 JUMP JUMPDEST SWAP3 POP PUSH2 0x1C7E PUSH1 0x20 DUP6 ADD PUSH2 0x1BA2 JUMP JUMPDEST SWAP3 SWAP6 SWAP3 SWAP5 POP POP POP PUSH1 0x40 SWAP2 SWAP1 SWAP2 ADD CALLDATALOAD SWAP1 JUMP JUMPDEST PUSH4 0x4E487B71 PUSH1 0xE0 SHL PUSH0 MSTORE PUSH1 0x41 PUSH1 0x4 MSTORE PUSH1 0x24 PUSH0 REVERT JUMPDEST PUSH0 PUSH0 PUSH8 0xFFFFFFFFFFFFFFFF DUP5 GT ISZERO PUSH2 0x1CBD JUMPI PUSH2 0x1CBD PUSH2 0x1C8F JUMP JUMPDEST POP PUSH1 0x40 MLOAD PUSH1 0x1F NOT PUSH1 0x1F DUP6 ADD DUP2 AND PUSH1 0x3F ADD AND DUP2 ADD DUP2 DUP2 LT PUSH8 0xFFFFFFFFFFFFFFFF DUP3 GT OR ISZERO PUSH2 0x1CEC JUMPI PUSH2 0x1CEC PUSH2 0x1C8F JUMP JUMPDEST PUSH1 0x40 MSTORE DUP4 DUP2 MSTORE SWAP1 POP DUP1 DUP3 DUP5 ADD DUP6 LT ISZERO PUSH2 0x1D03 JUMPI PUSH0 PUSH0 REVERT JUMPDEST DUP4 DUP4 PUSH1 0x20 DUP4 ADD CALLDATACOPY PUSH0 PUSH1 0x20 DUP6 DUP4 ADD ADD MSTORE POP SWAP4 SWAP3 POP POP POP JUMP JUMPDEST PUSH0 PUSH1 0x20 DUP3 DUP5 SUB SLT ISZERO PUSH2 0x1D2A JUMPI PUSH0 PUSH0 REVERT JUMPDEST DUP2 CALLDATALOAD PUSH8 0xFFFFFFFFFFFFFFFF DUP2 GT ISZERO PUSH2 0x1D40 JUMPI PUSH0 PUSH0 REVERT JUMPDEST DUP3 ADD PUSH1 0x1F DUP2 ADD DUP5 SGT PUSH2 0x1D50 JUMPI PUSH0 PUSH0 REVERT JUMPDEST PUSH2 0xFDB DUP5 DUP3 CALLDATALOAD PUSH1 0x20 DUP5 ADD PUSH2 0x1CA3 JUMP JUMPDEST DUP1 ISZERO ISZERO DUP2 EQ PUSH2 0x112A JUMPI PUSH0 PUSH0 REVERT JUMPDEST PUSH0 PUSH0 PUSH1 0x40 DUP4 DUP6 SUB SLT ISZERO PUSH2 0x1D7D JUMPI PUSH0 PUSH0 REVERT JUMPDEST PUSH2 0x1D86 DUP4 PUSH2 0x1BA2 JUMP JUMPDEST SWAP2 POP PUSH1 0x20 DUP4 ADD CALLDATALOAD PUSH2 0x1D96 DUP2 PUSH2 0x1D5F JUMP JUMPDEST DUP1 SWAP2 POP POP SWAP3 POP SWAP3 SWAP1 POP JUMP JUMPDEST PUSH0 PUSH0 PUSH0 PUSH0 PUSH1 0x80 DUP6 DUP8 SUB SLT ISZERO PUSH2 0x1DB4 JUMPI PUSH0 PUSH0 REVERT JUMPDEST PUSH2 0x1DBD DUP6 PUSH2 0x1BA2 JUMP JUMPDEST SWAP4 POP PUSH2 0x1DCB PUSH1 0x20 DUP7 ADD PUSH2 0x1BA2 JUMP JUMPDEST SWAP3 POP PUSH1 0x40 DUP6 ADD CALLDATALOAD SWAP2 POP PUSH1 0x60 DUP6 ADD CALLDATALOAD PUSH8 0xFFFFFFFFFFFFFFFF DUP2 GT ISZERO PUSH2 0x1DED JUMPI PUSH0 PUSH0 REVERT JUMPDEST DUP6 ADD PUSH1 0x1F DUP2 ADD DUP8 SGT PUSH2 0x1DFD JUMPI PUSH0 PUSH0 REVERT JUMPDEST PUSH2 0x1E0C DUP8 DUP3 CALLDATALOAD PUSH1 0x20 DUP5 ADD PUSH2 0x1CA3 JUMP JUMPDEST SWAP2 POP POP SWAP3 SWAP6 SWAP2 SWAP5 POP SWAP3 POP JUMP JUMPDEST PUSH0 PUSH0 PUSH1 0x40 DUP4 DUP6 SUB SLT ISZERO PUSH2 0x1E29 JUMPI PUSH0 PUSH0 REVERT JUMPDEST PUSH2 0x1E32 DUP4 PUSH2 0x1BA2 JUMP JUMPDEST SWAP2 POP PUSH2 0x1E40 PUSH1 0x20 DUP5 ADD PUSH2 0x1BA2 JUMP JUMPDEST SWAP1 POP SWAP3 POP SWAP3 SWAP1 POP JUMP JUMPDEST PUSH0 PUSH1 0x20 DUP3 DUP5 SUB SLT ISZERO PUSH2 0x1E59 JUMPI PUSH0 PUSH0 REVERT JUMPDEST POP MLOAD SWAP2 SWAP1 POP JUMP JUMPDEST PUSH1 0x1 DUP2 DUP2 SHR SWAP1 DUP3 AND DUP1 PUSH2 0x1E74 JUMPI PUSH1 0x7F DUP3 AND SWAP2 POP JUMPDEST PUSH1 0x20 DUP3 LT DUP2 SUB PUSH2 0x1E92 JUMPI PUSH4 0x4E487B71 PUSH1 0xE0 SHL PUSH0 MSTORE PUSH1 0x22 PUSH1 0x4 MSTORE PUSH1 0x24 PUSH0 REVERT JUMPDEST POP SWAP2 SWAP1 POP JUMP JUMPDEST PUSH0 PUSH1 0x20 DUP3 DUP5 SUB SLT ISZERO PUSH2 0x1EA8 JUMPI PUSH0 PUSH0 REVERT JUMPDEST DUP2 MLOAD PUSH2 0x16C5 DUP2 PUSH2 0x1D5F JUMP JUMPDEST PUSH4 0x4E487B71 PUSH1 0xE0 SHL PUSH0 MSTORE PUSH1 0x11 PUSH1 0x4 MSTORE PUSH1 0x24 PUSH0 REVERT JUMPDEST PUSH0 PUSH1 0x1 DUP3 ADD PUSH2 0x1ED8 JUMPI PUSH2 0x1ED8 PUSH2 0x1EB3 JUMP JUMPDEST POP PUSH1 0x1 ADD SWAP1 JUMP JUMPDEST PUSH1 0x1F DUP3 GT ISZERO PUSH2 0xC17 JUMPI DUP1 PUSH0 MSTORE PUSH1 0x20 PUSH0 KECCAK256 PUSH1 0x1F DUP5 ADD PUSH1 0x5 SHR DUP2 ADD PUSH1 0x20 DUP6 LT ISZERO PUSH2 0x1F04 JUMPI POP DUP1 JUMPDEST PUSH1 0x1F DUP5 ADD PUSH1 0x5 SHR DUP3 ADD SWAP2 POP JUMPDEST DUP2 DUP2 LT ISZERO PUSH2 0x15B5 JUMPI PUSH0 DUP2 SSTORE PUSH1 0x1 ADD PUSH2 0x1F10 JUMP JUMPDEST DUP2 MLOAD PUSH8 0xFFFFFFFFFFFFFFFF DUP2 GT ISZERO PUSH2 0x1F3D JUMPI PUSH2 0x1F3D PUSH2 0x1C8F JUMP JUMPDEST PUSH2 0x1F51 DUP2 PUSH2 0x1F4B DUP5 SLOAD PUSH2 0x1E60 JUMP JUMPDEST DUP5 PUSH2 0x1EDF JUMP JUMPDEST PUSH1 0x20 PUSH1 0x1F DUP3 GT PUSH1 0x1 DUP2 EQ PUSH2 0x1F83 JUMPI PUSH0 DUP4 ISZERO PUSH2 0x1F6C JUMPI POP DUP5 DUP3 ADD MLOAD JUMPDEST PUSH0 NOT PUSH1 0x3 DUP6 SWAP1 SHL SHR NOT AND PUSH1 0x1 DUP5 SWAP1 SHL OR DUP5 SSTORE PUSH2 0x15B5 JUMP JUMPDEST PUSH0 DUP5 DUP2 MSTORE PUSH1 0x20 DUP2 KECCAK256 PUSH1 0x1F NOT DUP6 AND SWAP2 JUMPDEST DUP3 DUP2 LT ISZERO PUSH2 0x1FB2 JUMPI DUP8 DUP6 ADD MLOAD DUP3 SSTORE PUSH1 0x20 SWAP5 DUP6 ADD SWAP5 PUSH1 0x1 SWAP1 SWAP3 ADD SWAP2 ADD PUSH2 0x1F92 JUMP JUMPDEST POP DUP5 DUP3 LT ISZERO PUSH2 0x1FCF JUMPI DUP7 DUP5 ADD MLOAD PUSH0 NOT PUSH1 0x3 DUP8 SWAP1 SHL PUSH1 0xF8 AND SHR NOT AND DUP2 SSTORE JUMPDEST POP POP POP POP PUSH1 0x1 SWAP1 DUP2 SHL ADD SWAP1 SSTORE POP JUMP JUMPDEST PUSH0 DUP2 MLOAD DUP1 PUSH1 0x20 DUP5 ADD DUP6 MCOPY PUSH0 SWAP4 ADD SWAP3 DUP4 MSTORE POP SWAP1 SWAP2 SWAP1 POP JUMP JUMPDEST PUSH0 PUSH2 0xFDB PUSH2 0x2003 DUP4 DUP7 PUSH2 0x1FDE JUMP JUMPDEST DUP5 PUSH2 0x1FDE JUMP JUMPDEST PUSH0 PUSH0 DUP5 SLOAD PUSH2 0x2016 DUP2 PUSH2 0x1E60 JUMP JUMPDEST PUSH1 0x1 DUP3 AND DUP1 ISZERO PUSH2 0x202D JUMPI PUSH1 0x1 DUP2 EQ PUSH2 0x2042 JUMPI PUSH2 0x206F JUMP JUMPDEST PUSH1 0xFF NOT DUP4 AND DUP7 MSTORE DUP2 ISZERO ISZERO DUP3 MUL DUP7 ADD SWAP4 POP PUSH2 0x206F JUMP JUMPDEST DUP8 PUSH0 MSTORE PUSH1 0x20 PUSH0 KECCAK256 PUSH0 JUMPDEST DUP4 DUP2 LT ISZERO PUSH2 0x2067 JUMPI DUP2 SLOAD DUP9 DUP3 ADD MSTORE PUSH1 0x1 SWAP1 SWAP2 ADD SWAP1 PUSH1 0x20 ADD PUSH2 0x204B JUMP JUMPDEST POP POP DUP2 DUP7 ADD SWAP4 POP JUMPDEST POP POP POP PUSH1 0x2F PUSH1 0xF8 SHL DUP2 MSTORE PUSH2 0x2086 PUSH1 0x1 DUP3 ADD DUP6 PUSH2 0x1FDE JUMP JUMPDEST PUSH5 0x173539B7B7 PUSH1 0xD9 SHL DUP2 MSTORE PUSH1 0x5 ADD SWAP6 SWAP5 POP POP POP POP POP JUMP JUMPDEST PUSH1 0x1 PUSH1 0x1 PUSH1 0xA0 SHL SUB DUP6 DUP2 AND DUP3 MSTORE DUP5 AND PUSH1 0x20 DUP3 ADD MSTORE PUSH1 0x40 DUP2 ADD DUP4 SWAP1 MSTORE PUSH1 0x80 PUSH1 0x60 DUP3 ADD DUP2 SWAP1 MSTORE PUSH0 SWAP1 PUSH2 0x20CF SWAP1 DUP4 ADD DUP5 PUSH2 0x1BD6 JUMP JUMPDEST SWAP7 SWAP6 POP POP POP POP POP POP JUMP JUMPDEST PUSH0 PUSH1 0x20 DUP3 DUP5 SUB SLT ISZERO PUSH2 0x20E9 JUMPI PUSH0 PUSH0 REVERT JUMPDEST DUP2 MLOAD PUSH2 0x16C5 DUP2 PUSH2 0x1B72 JUMP JUMPDEST PUSH4 0x4E487B71 PUSH1 0xE0 SHL PUSH0 MSTORE PUSH1 0x12 PUSH1 0x4 MSTORE PUSH1 0x24 PUSH0 REVERT JUMPDEST PUSH0 DUP3 PUSH2 0x2116 JUMPI PUSH2 0x2116 PUSH2 0x20F4 JUMP JUMPDEST POP DIV SWAP1 JUMP JUMPDEST PUSH0 DUP2 PUSH2 0x2129 JUMPI PUSH2 0x2129 PUSH2 0x1EB3 JUMP JUMPDEST POP PUSH0 NOT ADD SWAP1 JUMP JUMPDEST PUSH0 DUP3 PUSH2 0x213E JUMPI PUSH2 0x213E PUSH2 0x20F4 JUMP JUMPDEST POP MOD SWAP1 JUMP JUMPDEST DUP1 DUP3 ADD DUP1 DUP3 GT ISZERO PUSH2 0x607 JUMPI PUSH2 0x607 PUSH2 0x1EB3 JUMP JUMPDEST PUSH4 0x4E487B71 PUSH1 0xE0 SHL PUSH0 MSTORE PUSH1 0x32 PUSH1 0x4 MSTORE PUSH1 0x24 PUSH0 REVERT INVALID LOG2 PUSH5 0x6970667358 0x22 SLT KECCAK256 0x21 0xD0 PUSH26 0x8C54FDD1EBAC8566CDB8A6018CD5561509BC0C5BC5464D680836 0xCE 0xAC 0xAC PUSH5 0x736F6C6343 STOP ADDMOD SHR STOP CALLER "},"methodIdentifiers":{"MAX_SUPPLY()":"32cb6b0c","MINT_PRICE_USDC()":"c4f84d28","approve(address,uint256)":"095ea7b3","balanceOf(address)":"70a08231","baseTokenURI()":"d547cfb7","completeTier3(address)":"04cd2e6f","getApproved(uint256)":"081812fc","hasMinted(address)":"38e21cce","isApprovedForAll(address,address)":"e985e9c5","mint()":"1249c58b","mintWithETH()":"8f2aef5b","name()":"06fdde03","owner()":"8da5cb5b","ownerOf(uint256)":"6352211e","renounceOwnership()":"715018a6","safeTransferFrom(address,address,uint256)":"42842e0e","safeTransferFrom(address,address,uint256,bytes)":"b88d4fde","setApprovalForAll(address,bool)":"a22cb465","setBaseURI(string)":"55f804b3","setTreasury(address)":"f0f44260","setVaultLegend(address)":"dd2af79d","supportsInterface(bytes4)":"01ffc9a7","symbol()":"95d89b41","tier3Completed(address)":"0a69e8b5","tokenURI(uint256)":"c87b56dd","totalMinted()":"a2309ff8","transferFrom(address,address,uint256)":"23b872dd","transferOwnership(address)":"f2fde38b","treasury()":"61d027b3","usdc()":"3e413bee","vaultKey()":"a56100b5","vaultLegend()":"9fdd207f"}}}}}