{
  "_format": "hh-sol-artifact-1",
  "contractName": "MasterKey",
  "sourceName": "src/MasterKey.sol",
  "abi": [
    {
      "inputs": [
        {
          "internalType": "address",
          "name": "_usdc",
          "type": "address"
        },
        {
          "internalType": "address",
          "name": "_vaultKey",
          "type": "address"
        },
        {
          "internalType": "address",
          "name": "_treasury",
          "type": "address"
        },
        {
          "internalType": "string",
          "name": "_baseURI",
          "type": "string"
        }
      ],
      "stateMutability": "nonpayable",
      "type": "constructor"
    },
    {
      "inputs": [
        {
          "internalType": "address",
          "name": "sender",
          "type": "address"
        },
        {
          "internalType": "uint256",
          "name": "tokenId",
          "type": "uint256"
        },
        {
          "internalType": "address",
          "name": "owner",
          "type": "address"
        }
      ],
      "name": "ERC721IncorrectOwner",
      "type": "error"
    },
    {
      "inputs": [
        {
          "internalType": "address",
          "name": "operator",
          "type": "address"
        },
        {
          "internalType": "uint256",
          "name": "tokenId",
          "type": "uint256"
        }
      ],
      "name": "ERC721InsufficientApproval",
      "type": "error"
    },
    {
      "inputs": [
        {
          "internalType": "address",
          "name": "approver",
          "type": "address"
        }
      ],
      "name": "ERC721InvalidApprover",
      "type": "error"
    },
    {
      "inputs": [
        {
          "internalType": "address",
          "name": "operator",
          "type": "address"
        }
      ],
      "name": "ERC721InvalidOperator",
      "type": "error"
    },
    {
      "inputs": [
        {
          "internalType": "address",
          "name": "owner",
          "type": "address"
        }
      ],
      "name": "ERC721InvalidOwner",
      "type": "error"
    },
    {
      "inputs": [
        {
          "internalType": "address",
          "name": "receiver",
          "type": "address"
        }
      ],
      "name": "ERC721InvalidReceiver",
      "type": "error"
    },
    {
      "inputs": [
        {
          "internalType": "address",
          "name": "sender",
          "type": "address"
        }
      ],
      "name": "ERC721InvalidSender",
      "type": "error"
    },
    {
      "inputs": [
        {
          "internalType": "uint256",
          "name": "tokenId",
          "type": "uint256"
        }
      ],
      "name": "ERC721NonexistentToken",
      "type": "error"
    },
    {
      "inputs": [
        {
          "internalType": "address",
          "name": "owner",
          "type": "address"
        }
      ],
      "name": "OwnableInvalidOwner",
      "type": "error"
    },
    {
      "inputs": [
        {
          "internalType": "address",
          "name": "account",
          "type": "address"
        }
      ],
      "name": "OwnableUnauthorizedAccount",
      "type": "error"
    },
    {
      "anonymous": false,
      "inputs": [
        {
          "indexed": true,
          "internalType": "address",
          "name": "owner",
          "type": "address"
        },
        {
          "indexed": true,
          "internalType": "address",
          "name": "approved",
          "type": "address"
        },
        {
          "indexed": true,
          "internalType": "uint256",
          "name": "tokenId",
          "type": "uint256"
        }
      ],
      "name": "Approval",
      "type": "event"
    },
    {
      "anonymous": false,
      "inputs": [
        {
          "indexed": true,
          "internalType": "address",
          "name": "owner",
          "type": "address"
        },
        {
          "indexed": true,
          "internalType": "address",
          "name": "operator",
          "type": "address"
        },
        {
          "indexed": false,
          "internalType": "bool",
          "name": "approved",
          "type": "bool"
        }
      ],
      "name": "ApprovalForAll",
      "type": "event"
    },
    {
      "anonymous": false,
      "inputs": [
        {
          "indexed": false,
          "internalType": "uint256",
          "name": "_fromTokenId",
          "type": "uint256"
        },
        {
          "indexed": false,
          "internalType": "uint256",
          "name": "_toTokenId",
          "type": "uint256"
        }
      ],
      "name": "BatchMetadataUpdate",
      "type": "event"
    },
    {
      "anonymous": false,
      "inputs": [
        {
          "indexed": true,
          "internalType": "address",
          "name": "player",
          "type": "address"
        },
        {
          "indexed": true,
          "internalType": "uint256",
          "name": "tokenId",
          "type": "uint256"
        }
      ],
      "name": "MasterKeyMinted",
      "type": "event"
    },
    {
      "anonymous": false,
      "inputs": [
        {
          "indexed": false,
          "internalType": "uint256",
          "name": "_tokenId",
          "type": "uint256"
        }
      ],
      "name": "MetadataUpdate",
      "type": "event"
    },
    {
      "anonymous": false,
      "inputs": [
        {
          "indexed": true,
          "internalType": "address",
          "name": "previousOwner",
          "type": "address"
        },
        {
          "indexed": true,
          "internalType": "address",
          "name": "newOwner",
          "type": "address"
        }
      ],
      "name": "OwnershipTransferred",
      "type": "event"
    },
    {
      "anonymous": false,
      "inputs": [
        {
          "indexed": true,
          "internalType": "address",
          "name": "player",
          "type": "address"
        },
        {
          "indexed": false,
          "internalType": "uint256",
          "name": "legendTokenId",
          "type": "uint256"
        }
      ],
      "name": "Tier3Completed",
      "type": "event"
    },
    {
      "anonymous": false,
      "inputs": [
        {
          "indexed": true,
          "internalType": "address",
          "name": "from",
          "type": "address"
        },
        {
          "indexed": true,
          "internalType": "address",
          "name": "to",
          "type": "address"
        },
        {
          "indexed": true,
          "internalType": "uint256",
          "name": "tokenId",
          "type": "uint256"
        }
      ],
      "name": "Transfer",
      "type": "event"
    },
    {
      "inputs": [],
      "name": "MAX_SUPPLY",
      "outputs": [
        {
          "internalType": "uint256",
          "name": "",
          "type": "uint256"
        }
      ],
      "stateMutability": "view",
      "type": "function"
    },
    {
      "inputs": [],
      "name": "MINT_PRICE_USDC",
      "outputs": [
        {
          "internalType": "uint256",
          "name": "",
          "type": "uint256"
        }
      ],
      "stateMutability": "view",
      "type": "function"
    },
    {
      "inputs": [
        {
          "internalType": "address",
          "name": "to",
          "type": "address"
        },
        {
          "internalType": "uint256",
          "name": "tokenId",
          "type": "uint256"
        }
      ],
      "name": "approve",
      "outputs": [],
      "stateMutability": "nonpayable",
      "type": "function"
    },
    {
      "inputs": [
        {
          "internalType": "address",
          "name": "owner",
          "type": "address"
        }
      ],
      "name": "balanceOf",
      "outputs": [
        {
          "internalType": "uint256",
          "name": "",
          "type": "uint256"
        }
      ],
      "stateMutability": "view",
      "type": "function"
    },
    {
      "inputs": [],
      "name": "baseTokenURI",
      "outputs": [
        {
          "internalType": "string",
          "name": "",
          "type": "string"
        }
      ],
      "stateMutability": "view",
      "type": "function"
    },
    {
      "inputs": [
        {
          "internalType": "address",
          "name": "player",
          "type": "address"
        }
      ],
      "name": "completeTier3",
      "outputs": [],
      "stateMutability": "nonpayable",
      "type": "function"
    },
    {
      "inputs": [
        {
          "internalType": "uint256",
          "name": "tokenId",
          "type": "uint256"
        }
      ],
      "name": "getApproved",
      "outputs": [
        {
          "internalType": "address",
          "name": "",
          "type": "address"
        }
      ],
      "stateMutability": "view",
      "type": "function"
    },
    {
      "inputs": [
        {
          "internalType": "address",
          "name": "",
          "type": "address"
        }
      ],
      "name": "hasMinted",
      "outputs": [
        {
          "internalType": "bool",
          "name": "",
          "type": "bool"
        }
      ],
      "stateMutability": "view",
      "type": "function"
    },
    {
      "inputs": [
        {
          "internalType": "address",
          "name": "owner",
          "type": "address"
        },
        {
          "internalType": "address",
          "name": "operator",
          "type": "address"
        }
      ],
      "name": "isApprovedForAll",
      "outputs": [
        {
          "internalType": "bool",
          "name": "",
          "type": "bool"
        }
      ],
      "stateMutability": "view",
      "type": "function"
    },
    {
      "inputs": [],
      "name": "mint",
      "outputs": [],
      "stateMutability": "nonpayable",
      "type": "function"
    },
    {
      "inputs": [],
      "name": "mintWithETH",
      "outputs": [],
      "stateMutability": "payable",
      "type": "function"
    },
    {
      "inputs": [],
      "name": "name",
      "outputs": [
        {
          "internalType": "string",
          "name": "",
          "type": "string"
        }
      ],
      "stateMutability": "view",
      "type": "function"
    },
    {
      "inputs": [],
      "name": "owner",
      "outputs": [
        {
          "internalType": "address",
          "name": "",
          "type": "address"
        }
      ],
      "stateMutability": "view",
      "type": "function"
    },
    {
      "inputs": [
        {
          "internalType": "uint256",
          "name": "tokenId",
          "type": "uint256"
        }
      ],
      "name": "ownerOf",
      "outputs": [
        {
          "internalType": "address",
          "name": "",
          "type": "address"
        }
      ],
      "stateMutability": "view",
      "type": "function"
    },
    {
      "inputs": [],
      "name": "renounceOwnership",
      "outputs": [],
      "stateMutability": "nonpayable",
      "type": "function"
    },
    {
      "inputs": [
        {
          "internalType": "address",
          "name": "from",
          "type": "address"
        },
        {
          "internalType": "address",
          "name": "to",
          "type": "address"
        },
        {
          "internalType": "uint256",
          "name": "tokenId",
          "type": "uint256"
        }
      ],
      "name": "safeTransferFrom",
      "outputs": [],
      "stateMutability": "nonpayable",
      "type": "function"
    },
    {
      "inputs": [
        {
          "internalType": "address",
          "name": "from",
          "type": "address"
        },
        {
          "internalType": "address",
          "name": "to",
          "type": "address"
        },
        {
          "internalType": "uint256",
          "name": "tokenId",
          "type": "uint256"
        },
        {
          "internalType": "bytes",
          "name": "data",
          "type": "bytes"
        }
      ],
      "name": "safeTransferFrom",
      "outputs": [],
      "stateMutability": "nonpayable",
      "type": "function"
    },
    {
      "inputs": [
        {
          "internalType": "address",
          "name": "operator",
          "type": "address"
        },
        {
          "internalType": "bool",
          "name": "approved",
          "type": "bool"
        }
      ],
      "name": "setApprovalForAll",
      "outputs": [],
      "stateMutability": "nonpayable",
      "type": "function"
    },
    {
      "inputs": [
        {
          "internalType": "string",
          "name": "_baseURI",
          "type": "string"
        }
      ],
      "name": "setBaseURI",
      "outputs": [],
      "stateMutability": "nonpayable",
      "type": "function"
    },
    {
      "inputs": [
        {
          "internalType": "address",
          "name": "_treasury",
          "type": "address"
        }
      ],
      "name": "setTreasury",
      "outputs": [],
      "stateMutability": "nonpayable",
      "type": "function"
    },
    {
      "inputs": [
        {
          "internalType": "address",
          "name": "_vaultLegend",
          "type": "address"
        }
      ],
      "name": "setVaultLegend",
      "outputs": [],
      "stateMutability": "nonpayable",
      "type": "function"
    },
    {
      "inputs": [
        {
          "internalType": "bytes4",
          "name": "interfaceId",
          "type": "bytes4"
        }
      ],
      "name": "supportsInterface",
      "outputs": [
        {
          "internalType": "bool",
          "name": "",
          "type": "bool"
        }
      ],
      "stateMutability": "view",
      "type": "function"
    },
    {
      "inputs": [],
      "name": "symbol",
      "outputs": [
        {
          "internalType": "string",
          "name": "",
          "type": "string"
        }
      ],
      "stateMutability": "view",
      "type": "function"
    },
    {
      "inputs": [
        {
          "internalType": "address",
          "name": "",
          "type": "address"
        }
      ],
      "name": "tier3Completed",
      "outputs": [
        {
          "internalType": "bool",
          "name": "",
          "type": "bool"
        }
      ],
      "stateMutability": "view",
      "type": "function"
    },
    {
      "inputs": [
        {
          "internalType": "uint256",
          "name": "tokenId",
          "type": "uint256"
        }
      ],
      "name": "tokenURI",
      "outputs": [
        {
          "internalType": "string",
          "name": "",
          "type": "string"
        }
      ],
      "stateMutability": "view",
      "type": "function"
    },
    {
      "inputs": [],
      "name": "totalMinted",
      "outputs": [
        {
          "internalType": "uint256",
          "name": "",
          "type": "uint256"
        }
      ],
      "stateMutability": "view",
      "type": "function"
    },
    {
      "inputs": [
        {
          "internalType": "address",
          "name": "from",
          "type": "address"
        },
        {
          "internalType": "address",
          "name": "to",
          "type": "address"
        },
        {
          "internalType": "uint256",
          "name": "tokenId",
          "type": "uint256"
        }
      ],
      "name": "transferFrom",
      "outputs": [],
      "stateMutability": "nonpayable",
      "type": "function"
    },
    {
      "inputs": [
        {
          "internalType": "address",
          "name": "newOwner",
          "type": "address"
        }
      ],
      "name": "transferOwnership",
      "outputs": [],
      "stateMutability": "nonpayable",
      "type": "function"
    },
    {
      "inputs": [],
      "name": "treasury",
      "outputs": [
        {
          "internalType": "address",
          "name": "",
          "type": "address"
        }
      ],
      "stateMutability": "view",
      "type": "function"
    },
    {
      "inputs": [],
      "name": "usdc",
      "outputs": [
        {
          "internalType": "contract IERC20",
          "name": "",
          "type": "address"
        }
      ],
      "stateMutability": "view",
      "type": "function"
    },
    {
      "inputs": [],
      "name": "vaultKey",
      "outputs": [
        {
          "internalType": "contract VaultKey",
          "name": "",
          "type": "address"
        }
      ],
      "stateMutability": "view",
      "type": "function"
    },
    {
      "inputs": [],
      "name": "vaultLegend",
      "outputs": [
        {
          "internalType": "contract VaultLegend",
          "name": "",
          "type": "address"
        }
      ],
      "stateMutability": "view",
      "type": "function"
    }
  ],
  "bytecode": "0x60c060405234801561000f575f5ffd5b5060405161257b38038061257b83398101604081905261002e91610185565b336040518060400160405280600a8152602001694d6173746572204b657960b01b815250604051806040016040528060048152602001634d4b455960e01b815250815f908161007d91906102eb565b50600161008a82826102eb565b5050506001600160a01b0381166100ba57604051631e4fbdf760e01b81525f600482015260240160405180910390fd5b6100c381610105565b506001600160a01b0384811660805283811660a052600980546001600160a01b031916918416919091179055600b6100fb82826102eb565b50505050506103a5565b600780546001600160a01b038381166001600160a01b0319831681179093556040519116919082907f8be0079c531659141344cd1fd0a4f28419497f9722a3daafe3b4186f6b6457e0905f90a35050565b80516001600160a01b038116811461016c575f5ffd5b919050565b634e487b7160e01b5f52604160045260245ffd5b5f5f5f5f60808587031215610198575f5ffd5b6101a185610156565b93506101af60208601610156565b92506101bd60408601610156565b60608601519092506001600160401b038111156101d8575f5ffd5b8501601f810187136101e8575f5ffd5b80516001600160401b0381111561020157610201610171565b604051601f8201601f19908116603f011681016001600160401b038111828210171561022f5761022f610171565b604052818152828201602001891015610246575f5ffd5b8160208401602083015e5f6020838301015280935050505092959194509250565b600181811c9082168061027b57607f821691505b60208210810361029957634e487b7160e01b5f52602260045260245ffd5b50919050565b601f8211156102e657805f5260205f20601f840160051c810160208510156102c45750805b601f840160051c820191505b818110156102e3575f81556001016102d0565b50505b505050565b81516001600160401b0381111561030457610304610171565b610318816103128454610267565b8461029f565b6020601f82116001811461034a575f83156103335750848201515b5f19600385901b1c1916600184901b1784556102e3565b5f84815260208120601f198516915b828110156103795787850151825560209485019460019092019101610359565b508482101561039657868401515f19600387901b60f8161c191681555b50505050600190811b01905550565b60805160a0516121a06103db5f395f81816104dc015281816108d60152610ca701525f818161036e0152610a4a01526121a05ff3fe6080604052600436106101db575f3560e01c8063715018a6116100fd578063b88d4fde11610092578063dd2af79d11610062578063dd2af79d14610567578063e985e9c514610586578063f0f44260146105a5578063f2fde38b146105c4575f5ffd5b8063b88d4fde146104fe578063c4f84d281461051d578063c87b56dd14610534578063d547cfb714610553575f5ffd5b80639fdd207f116100cd5780639fdd207f14610478578063a22cb46514610497578063a2309ff8146104b6578063a56100b5146104cb575f5ffd5b8063715018a61461042b5780638da5cb5b1461043f5780638f2aef5b1461045c57806395d89b4114610464575f5ffd5b806332cb6b0c1161017357806355f804b31161014357806355f804b3146103af57806361d027b3146103ce5780636352211e146103ed57806370a082311461040c575f5ffd5b806332cb6b0c1461030c57806338e21cce1461032f5780633e413bee1461035d57806342842e0e14610390575f5ffd5b8063095ea7b3116101ae578063095ea7b31461028c5780630a69e8b5146102ab5780631249c58b146102d957806323b872dd146102ed575f5ffd5b806301ffc9a7146101df57806304cd2e6f1461021357806306fdde0314610234578063081812fc14610255575b5f5ffd5b3480156101ea575f5ffd5b506101fe6101f9366004611b87565b6105e3565b60405190151581526020015b60405180910390f35b34801561021e575f5ffd5b5061023261022d366004611bbd565b61060d565b005b34801561023f575f5ffd5b506102486107fc565b60405161020a9190611c04565b348015610260575f5ffd5b5061027461026f366004611c16565b61088b565b6040516001600160a01b03909116815260200161020a565b348015610297575f5ffd5b506102326102a6366004611c2d565b6108b2565b3480156102b6575f5ffd5b506101fe6102c5366004611bbd565b600d6020525f908152604090205460ff1681565b3480156102e4575f5ffd5b506102326108c1565b3480156102f8575f5ffd5b50610232610307366004611c55565b610b74565b348015610317575f5ffd5b5061032161029a81565b60405190815260200161020a565b34801561033a575f5ffd5b506101fe610349366004611bbd565b600c6020525f908152604090205460ff1681565b348015610368575f5ffd5b506102747f000000000000000000000000000000000000000000000000000000000000000081565b34801561039b575f5ffd5b506102326103aa366004611c55565b610bfd565b3480156103ba575f5ffd5b506102326103c9366004611d1a565b610c1c565b3480156103d9575f5ffd5b50600954610274906001600160a01b031681565b3480156103f8575f5ffd5b50610274610407366004611c16565b610c30565b348015610417575f5ffd5b50610321610426366004611bbd565b610c3a565b348015610436575f5ffd5b50610232610c7f565b34801561044a575f5ffd5b506007546001600160a01b0316610274565b610232610c92565b34801561046f575f5ffd5b50610248610f30565b348015610483575f5ffd5b50600854610274906001600160a01b031681565b3480156104a2575f5ffd5b506102326104b1366004611d6c565b610f3f565b3480156104c1575f5ffd5b50610321600a5481565b3480156104d6575f5ffd5b506102747f000000000000000000000000000000000000000000000000000000000000000081565b348015610509575f5ffd5b50610232610518366004611da1565b610f4a565b348015610528575f5ffd5b506103216303ef148081565b34801561053f575f5ffd5b5061024861054e366004611c16565b610f62565b34801561055e575f5ffd5b50610248610fe3565b348015610572575f5ffd5b50610232610581366004611bbd565b61106f565b348015610591575f5ffd5b506101fe6105a0366004611e18565b611099565b3480156105b0575f5ffd5b506102326105bf366004611bbd565b6110c6565b3480156105cf575f5ffd5b506102326105de366004611bbd565b6110f0565b5f6001600160e01b03198216632483248360e11b148061060757506106078261112d565b92915050565b61061561117c565b6001600160a01b0381165f908152600c602052604090205460ff166106815760405162461bcd60e51b815260206004820152601760248201527f4e6f742061206d6173746572206b657920686f6c64657200000000000000000060448201526064015b60405180910390fd5b6001600160a01b0381165f908152600d602052604090205460ff16156106dd5760405162461bcd60e51b8152602060048201526011602482015270105b1c9958591e4818dbdb5c1b195d1959607a1b6044820152606401610678565b6008546001600160a01b031661072b5760405162461bcd60e51b815260206004820152601360248201527215985d5b1d131959d95b99081b9bdd081cd95d606a1b6044820152606401610678565b6001600160a01b038181165f818152600d6020526040808220805460ff1916600117905560085490516331ce992f60e01b81526004810193909352909216906331ce992f906024016020604051808303815f875af115801561078f573d5f5f3e3d5ffd5b505050506040513d601f19601f820116820180604052508101906107b39190611e49565b9050816001600160a01b03167f64fb6099887eeb3a933ebf379a9442abef1de568082a409941892f26ef37d819826040516107f091815260200190565b60405180910390a25050565b60605f805461080a90611e60565b80601f016020809104026020016040519081016040528092919081815260200182805461083690611e60565b80156108815780601f1061085857610100808354040283529160200191610881565b820191905f5260205f20905b81548152906001019060200180831161086457829003601f168201915b5050505050905090565b5f610895826111a9565b505f828152600460205260409020546001600160a01b0316610607565b6108bd8282336111e1565b5050565b604051631c710e6760e11b81523360048201527f00000000000000000000000000000000000000000000000000000000000000006001600160a01b0316906338e21cce90602401602060405180830381865afa158015610923573d5f5f3e3d5ffd5b505050506040513d601f19601f820116820180604052508101906109479190611e98565b61098a5760405162461bcd60e51b8152602060048201526014602482015273139959590815985d5b1d0812d95e48199a5c9cdd60621b6044820152606401610678565b335f908152600c602052604090205460ff16156109da5760405162461bcd60e51b815260206004820152600e60248201526d105b1c9958591e481b5a5b9d195960921b6044820152606401610678565b61029a600a5410610a185760405162461bcd60e51b815260206004820152600860248201526714dbdb19081bdd5d60c21b6044820152606401610678565b6009546040516323b872dd60e01b81523360048201526001600160a01b0391821660248201526303ef148060448201527f0000000000000000000000000000000000000000000000000000000000000000909116906323b872dd906064016020604051808303815f875af1158015610a92573d5f5f3e3d5ffd5b505050506040513d601f19601f82011682018060405250810190610ab69190611e98565b610af95760405162461bcd60e51b81526020600482015260146024820152731554d110c81d1c985b9cd9995c8819985a5b195960621b6044820152606401610678565b5f600a5f8154610b0890611ec7565b9182905550335f818152600c60205260409020805460ff19166001179055909150610b3390826111ee565b610b4581610b4083611207565b61123b565b604051819033907ff68bad5af62d777d3f6b0d6b439aee2fe6cf022434bbc879441aaef1e20f4284905f90a350565b6001600160a01b038216610b9d57604051633250574960e11b81525f6004820152602401610678565b5f610ba983833361128a565b9050836001600160a01b0316816001600160a01b031614610bf7576040516364283d7b60e01b81526001600160a01b0380861660048301526024820184905282166044820152606401610678565b50505050565b610c1783838360405180602001604052805f815250610f4a565b505050565b610c2461117c565b600b6108bd8282611f23565b5f610607826111a9565b5f6001600160a01b038216610c64576040516322718ad960e21b81525f6004820152602401610678565b506001600160a01b03165f9081526003602052604090205490565b610c8761117c565b610c905f61137c565b565b604051631c710e6760e11b81523360048201527f00000000000000000000000000000000000000000000000000000000000000006001600160a01b0316906338e21cce90602401602060405180830381865afa158015610cf4573d5f5f3e3d5ffd5b505050506040513d601f19601f82011682018060405250810190610d189190611e98565b610d5b5760405162461bcd60e51b8152602060048201526014602482015273139959590815985d5b1d0812d95e48199a5c9cdd60621b6044820152606401610678565b335f908152600c602052604090205460ff1615610dab5760405162461bcd60e51b815260206004820152600e60248201526d105b1c9958591e481b5a5b9d195960921b6044820152606401610678565b61029a600a5410610de95760405162461bcd60e51b815260206004820152600860248201526714dbdb19081bdd5d60c21b6044820152606401610678565b5f3411610e235760405162461bcd60e51b81526020600482015260086024820152670a6cadcc8408aa8960c31b6044820152606401610678565b6009546040515f916001600160a01b03169034908381818185875af1925050503d805f8114610e6d576040519150601f19603f3d011682016040523d82523d5f602084013e610e72565b606091505b5050905080610eb95760405162461bcd60e51b8152602060048201526013602482015272115512081d1c985b9cd9995c8819985a5b1959606a1b6044820152606401610678565b5f600a5f8154610ec890611ec7565b9182905550335f818152600c60205260409020805460ff19166001179055909150610ef390826111ee565b610f0081610b4083611207565b604051819033907ff68bad5af62d777d3f6b0d6b439aee2fe6cf022434bbc879441aaef1e20f4284905f90a35050565b60606001805461080a90611e60565b6108bd3383836113cd565b610f55848484610b74565b610bf73385858585611494565b6060610f6d826111a9565b505f610f8360408051602081019091525f815290565b90505f610f8f846115bc565b905081515f03610fa0579392505050565b805115610fd2578181604051602001610fba929190611ff5565b60405160208183030381529060405292505050919050565b610fdb8461165b565b949350505050565b600b8054610ff090611e60565b80601f016020809104026020016040519081016040528092919081815260200182805461101c90611e60565b80156110675780601f1061103e57610100808354040283529160200191611067565b820191905f5260205f20905b81548152906001019060200180831161104a57829003601f168201915b505050505081565b61107761117c565b600880546001600160a01b0319166001600160a01b0392909216919091179055565b6001600160a01b039182165f90815260056020908152604080832093909416825291909152205460ff1690565b6110ce61117c565b600980546001600160a01b0319166001600160a01b0392909216919091179055565b6110f861117c565b6001600160a01b03811661112157604051631e4fbdf760e01b81525f6004820152602401610678565b61112a8161137c565b50565b5f6001600160e01b031982166380ac58cd60e01b148061115d57506001600160e01b03198216635b5e139f60e01b145b8061060757506301ffc9a760e01b6001600160e01b0319831614610607565b6007546001600160a01b03163314610c905760405163118cdaa760e01b8152336004820152602401610678565b5f818152600260205260408120546001600160a01b03168061060757604051637e27328960e01b815260048101849052602401610678565b610c1783838360016116cc565b6108bd828260405180602001604052805f8152506117d0565b6060600b611214836117e7565b604051602001611225929190612009565b6040516020818303038152906040529050919050565b5f8281526006602052604090206112528282611f23565b506040518281527ff8e1a15aba9398e019f0b49df1a4fde98ee17ae345cb5f6b5e2c27f5033e8ce79060200160405180910390a15050565b5f828152600260205260408120546001600160a01b03908116908316156112b6576112b68184866118e5565b6001600160a01b038116156112f0576112d15f855f5f6116cc565b6001600160a01b0381165f90815260036020526040902080545f190190555b6001600160a01b0385161561131e576001600160a01b0385165f908152600360205260409020805460010190555b5f8481526002602052604080822080546001600160a01b0319166001600160a01b0389811691821790925591518793918516917fddf252ad1be2c89b69c2b068fc378daa952ba7f163c4a11628f55a4df523b3ef91a4949350505050565b600780546001600160a01b038381166001600160a01b0319831681179093556040519116919082907f8be0079c531659141344cd1fd0a4f28419497f9722a3daafe3b4186f6b6457e0905f90a35050565b6001600160a01b0383166113f65760405163a9fbf51f60e01b81525f6004820152602401610678565b6001600160a01b03821661142857604051630b61174360e31b81526001600160a01b0383166004820152602401610678565b6001600160a01b038381165f81815260056020908152604080832094871680845294825291829020805460ff191686151590811790915591519182527f17307eab39ab6107e8899845ad3d59bd9653f200f220920489ca2b5937696c31910160405180910390a3505050565b6001600160a01b0383163b156115b557604051630a85bd0160e11b81526001600160a01b0384169063150b7a02906114d690889088908790879060040161209d565b6020604051808303815f875af1925050508015611510575060408051601f3d908101601f1916820190925261150d918101906120d9565b60015b611577573d80801561153d576040519150601f19603f3d011682016040523d82523d5f602084013e611542565b606091505b5080515f0361156f57604051633250574960e11b81526001600160a01b0385166004820152602401610678565b805160208201fd5b6001600160e01b03198116630a85bd0160e11b146115b357604051633250574960e11b81526001600160a01b0385166004820152602401610678565b505b5050505050565b5f8181526006602052604090208054606091906115d890611e60565b80601f016020809104026020016040519081016040528092919081815260200182805461160490611e60565b801561164f5780601f106116265761010080835404028352916020019161164f565b820191905f5260205f20905b81548152906001019060200180831161163257829003601f168201915b50505050509050919050565b6060611666826111a9565b505f61167c60408051602081019091525f815290565b90505f81511161169a5760405180602001604052805f8152506116c5565b806116a484611949565b6040516020016116b5929190611ff5565b6040516020818303038152906040525b9392505050565b80806116e057506001600160a01b03821615155b156117a1575f6116ef846111a9565b90506001600160a01b0383161580159061171b5750826001600160a01b0316816001600160a01b031614155b801561172e575061172c8184611099565b155b156117575760405163a9fbf51f60e01b81526001600160a01b0384166004820152602401610678565b811561179f5783856001600160a01b0316826001600160a01b03167f8c5be1e5ebec7d5bd14f71427d1e84f3dd0314c0f7b2291e5b200ac8c7c3b92560405160405180910390a45b505b50505f90815260046020526040902080546001600160a01b0319166001600160a01b0392909216919091179055565b6117da83836119d9565b610c17335f858585611494565b6060815f0361180d5750506040805180820190915260018152600360fc1b602082015290565b815f5b8115611836578061182081611ec7565b915061182f9050600a83612108565b9150611810565b5f8167ffffffffffffffff81111561185057611850611c8f565b6040519080825280601f01601f19166020018201604052801561187a576020820181803683370190505b5090505b8415610fdb578161188e8161211b565b925061189d9050600a86612130565b6118a8906030612143565b60f81b8183815181106118bd576118bd612156565b60200101906001600160f81b03191690815f1a9053506118de600a86612108565b945061187e565b6118f0838383611a3a565b610c17576001600160a01b03831661191e57604051637e27328960e01b815260048101829052602401610678565b60405163177e802f60e01b81526001600160a01b038316600482015260248101829052604401610678565b60605f61195583611a9b565b60010190505f8167ffffffffffffffff81111561197457611974611c8f565b6040519080825280601f01601f19166020018201604052801561199e576020820181803683370190505b5090508181016020015b5f19016f181899199a1a9b1b9c1cb0b131b232b360811b600a86061a8153600a85049450846119a857509392505050565b6001600160a01b038216611a0257604051633250574960e11b81525f6004820152602401610678565b5f611a0e83835f61128a565b90506001600160a01b03811615610c17576040516339e3563760e11b81525f6004820152602401610678565b5f6001600160a01b03831615801590610fdb5750826001600160a01b0316846001600160a01b03161480611a735750611a738484611099565b80610fdb5750505f908152600460205260409020546001600160a01b03908116911614919050565b5f8072184f03e93ff9f4daa797ed6e38ed64bf6a1f0160401b8310611ad95772184f03e93ff9f4daa797ed6e38ed64bf6a1f0160401b830492506040015b6d04ee2d6d415b85acef81000000008310611b05576d04ee2d6d415b85acef8100000000830492506020015b662386f26fc100008310611b2357662386f26fc10000830492506010015b6305f5e1008310611b3b576305f5e100830492506008015b6127108310611b4f57612710830492506004015b60648310611b61576064830492506002015b600a83106106075760010192915050565b6001600160e01b03198116811461112a575f5ffd5b5f60208284031215611b97575f5ffd5b81356116c581611b72565b80356001600160a01b0381168114611bb8575f5ffd5b919050565b5f60208284031215611bcd575f5ffd5b6116c582611ba2565b5f81518084528060208401602086015e5f602082860101526020601f19601f83011685010191505092915050565b602081525f6116c56020830184611bd6565b5f60208284031215611c26575f5ffd5b5035919050565b5f5f60408385031215611c3e575f5ffd5b611c4783611ba2565b946020939093013593505050565b5f5f5f60608486031215611c67575f5ffd5b611c7084611ba2565b9250611c7e60208501611ba2565b929592945050506040919091013590565b634e487b7160e01b5f52604160045260245ffd5b5f5f67ffffffffffffffff841115611cbd57611cbd611c8f565b50604051601f19601f85018116603f0116810181811067ffffffffffffffff82111715611cec57611cec611c8f565b604052838152905080828401851015611d03575f5ffd5b838360208301375f60208583010152509392505050565b5f60208284031215611d2a575f5ffd5b813567ffffffffffffffff811115611d40575f5ffd5b8201601f81018413611d50575f5ffd5b610fdb84823560208401611ca3565b801515811461112a575f5ffd5b5f5f60408385031215611d7d575f5ffd5b611d8683611ba2565b91506020830135611d9681611d5f565b809150509250929050565b5f5f5f5f60808587031215611db4575f5ffd5b611dbd85611ba2565b9350611dcb60208601611ba2565b925060408501359150606085013567ffffffffffffffff811115611ded575f5ffd5b8501601f81018713611dfd575f5ffd5b611e0c87823560208401611ca3565b91505092959194509250565b5f5f60408385031215611e29575f5ffd5b611e3283611ba2565b9150611e4060208401611ba2565b90509250929050565b5f60208284031215611e59575f5ffd5b5051919050565b600181811c90821680611e7457607f821691505b602082108103611e9257634e487b7160e01b5f52602260045260245ffd5b50919050565b5f60208284031215611ea8575f5ffd5b81516116c581611d5f565b634e487b7160e01b5f52601160045260245ffd5b5f60018201611ed857611ed8611eb3565b5060010190565b601f821115610c1757805f5260205f20601f840160051c81016020851015611f045750805b601f840160051c820191505b818110156115b5575f8155600101611f10565b815167ffffffffffffffff811115611f3d57611f3d611c8f565b611f5181611f4b8454611e60565b84611edf565b6020601f821160018114611f83575f8315611f6c5750848201515b5f19600385901b1c1916600184901b1784556115b5565b5f84815260208120601f198516915b82811015611fb25787850151825560209485019460019092019101611f92565b5084821015611fcf57868401515f19600387901b60f8161c191681555b50505050600190811b01905550565b5f81518060208401855e5f93019283525090919050565b5f610fdb6120038386611fde565b84611fde565b5f5f845461201681611e60565b60018216801561202d57600181146120425761206f565b60ff198316865281151582028601935061206f565b875f5260205f205f5b838110156120675781548882015260019091019060200161204b565b505081860193505b505050602f60f81b81526120866001820185611fde565b64173539b7b760d91b815260050195945050505050565b6001600160a01b03858116825284166020820152604081018390526080606082018190525f906120cf90830184611bd6565b9695505050505050565b5f602082840312156120e9575f5ffd5b81516116c581611b72565b634e487b7160e01b5f52601260045260245ffd5b5f82612116576121166120f4565b500490565b5f8161212957612129611eb3565b505f190190565b5f8261213e5761213e6120f4565b500690565b8082018082111561060757610607611eb3565b634e487b7160e01b5f52603260045260245ffdfea2646970667358221220a6b0da418f31425ef511983b399c2d8702f94c11fd2fc754d7893be21f4e15bf64736f6c634300081c0033",
  "linkReferences": {},
  "deployedLinkReferences": {}
}